{"contracts/WasteChain.sol":{"WasteChain":{"abi":[{"inputs":[{"internalType":"address","name":"admin","type":"address"}],"stateMutability":"nonpayable","type":"constructor"},{"inputs":[],"name":"AccessControlBadConfirmation","type":"error"},{"inputs":[{"internalType":"address","name":"account","type":"address"},{"internalType":"bytes32","name":"neededRole","type":"bytes32"}],"name":"AccessControlUnauthorizedAccount","type":"error"},{"anonymous":false,"inputs":[{"indexed":true,"internalType":"string","name":"wasteId","type":"string"},{"indexed":true,"internalType":"address","name":"generator","type":"address"}],"name":"Created","type":"event"},{"anonymous":false,"inputs":[{"indexed":true,"internalType":"bytes32","name":"role","type":"bytes32"},{"indexed":true,"internalType":"bytes32","name":"previousAdminRole","type":"bytes32"},{"indexed":true,"internalType":"bytes32","name":"newAdminRole","type":"bytes32"}],"name":"RoleAdminChanged","type":"event"},{"anonymous":false,"inputs":[{"indexed":true,"internalType":"bytes32","name":"role","type":"bytes32"},{"indexed":true,"internalType":"address","name":"account","type":"address"},{"indexed":true,"internalType":"address","name":"sender","type":"address"}],"name":"RoleGranted","type":"event"},{"anonymous":false,"inputs":[{"indexed":true,"internalType":"bytes32","name":"role","type":"bytes32"},{"indexed":true,"internalType":"address","name":"account","type":"address"},{"indexed":true,"internalType":"address","name":"sender","type":"address"}],"name":"RoleRevoked","type":"event"},{"anonymous":false,"inputs":[{"indexed":true,"internalType":"string","name":"wasteId","type":"string"},{"indexed":false,"internalType":"enum WasteChain.Status","name":"status","type":"uint8"}],"name":"StatusChanged","type":"event"},{"anonymous":false,"inputs":[{"indexed":true,"internalType":"string","name":"wasteId","type":"string"},{"indexed":true,"internalType":"address","name":"from","type":"address"},{"indexed":true,"internalType":"address","name":"to","type":"address"}],"name":"Transferred","type":"event"},{"inputs":[],"name":"DEFAULT_ADMIN_ROLE","outputs":[{"internalType":"bytes32","name":"","type":"bytes32"}],"stateMutability":"view","type":"function"},{"inputs":[],"name":"DISPOSER","outputs":[{"internalType":"bytes32","name":"","type":"bytes32"}],"stateMutability":"view","type":"function"},{"inputs":[],"name":"GENERATOR","outputs":[{"internalType":"bytes32","name":"","type":"bytes32"}],"stateMutability":"view","type":"function"},{"inputs":[],"name":"TRANSPORTER","outputs":[{"internalType":"bytes32","name":"","type":"bytes32"}],"stateMutability":"view","type":"function"},{"inputs":[{"internalType":"string","name":"wasteId","type":"string"},{"internalType":"string","name":"wasteType","type":"string"},{"internalType":"string","name":"hazardClass","type":"string"},{"internalType":"uint256","name":"quantity","type":"uint256"},{"internalType":"string","name":"units","type":"string"}],"name":"createWaste","outputs":[],"stateMutability":"nonpayable","type":"function"},{"inputs":[{"internalType":"string","name":"wasteId","type":"string"}],"name":"deliverWaste","outputs":[],"stateMutability":"nonpayable","type":"function"},{"inputs":[{"internalType":"string","name":"wasteId","type":"string"}],"name":"disposeWaste","outputs":[],"stateMutability":"nonpayable","type":"function"},{"inputs":[{"internalType":"bytes32","name":"role","type":"bytes32"}],"name":"getRoleAdmin","outputs":[{"internalType":"bytes32","name":"","type":"bytes32"}],"stateMutability":"view","type":"function"},{"inputs":[{"internalType":"string","name":"wasteId","type":"string"}],"name":"getWaste","outputs":[{"internalType":"address","name":"currentHolder","type":"address"},{"internalType":"enum WasteChain.Status","name":"status","type":"uint8"},{"internalType":"string","name":"wasteType","type":"string"},{"internalType":"string","name":"hazardClass","type":"string"},{"internalType":"uint256","name":"quantity","type":"uint256"},{"internalType":"string","name":"units","type":"string"},{"internalType":"uint256","name":"sequence","type":"uint256"}],"stateMutability":"view","type":"function"},{"inputs":[{"internalType":"bytes32","name":"role","type":"bytes32"},{"internalType":"address","name":"account","type":"address"}],"name":"grantRole","outputs":[],"stateMutability":"nonpayable","type":"function"},{"inputs":[{"internalType":"bytes32","name":"role","type":"bytes32"},{"internalType":"address","name":"account","type":"address"}],"name":"hasRole","outputs":[{"internalType":"bool","name":"","type":"bool"}],"stateMutability":"view","type":"function"},{"inputs":[{"internalType":"address","name":"addr","type":"address"}],"name":"registerDisposer","outputs":[],"stateMutability":"nonpayable","type":"function"},{"inputs":[{"internalType":"address","name":"addr","type":"address"}],"name":"registerGenerator","outputs":[],"stateMutability":"nonpayable","type":"function"},{"inputs":[{"internalType":"address","name":"addr","type":"address"}],"name":"registerTransporter","outputs":[],"stateMutability":"nonpayable","type":"function"},{"inputs":[{"internalType":"bytes32","name":"role","type":"bytes32"},{"internalType":"address","name":"callerConfirmation","type":"address"}],"name":"renounceRole","outputs":[],"stateMutability":"nonpayable","type":"function"},{"inputs":[{"internalType":"bytes32","name":"role","type":"bytes32"},{"internalType":"address","name":"account","type":"address"}],"name":"revokeRole","outputs":[],"stateMutability":"nonpayable","type":"function"},{"inputs":[{"internalType":"bytes4","name":"interfaceId","type":"bytes4"}],"name":"supportsInterface","outputs":[{"internalType":"bool","name":"","type":"bool"}],"stateMutability":"view","type":"function"},{"inputs":[{"internalType":"string","name":"wasteId","type":"string"},{"internalType":"address","name":"to","type":"address"}],"name":"transferWaste","outputs":[],"stateMutability":"nonpayable","type":"function"}],"evm":{"bytecode":{"linkReferences":{},"object":"60806040523480156200001157600080fd5b50604051620024b0380380620024b0833981810160405281019062000037919062000233565b6200004c6000801b826200005460201b60201c565b505062000265565b60006200006883836200015760201b60201c565b6200014c57600160008085815260200190815260200160002060000160008473ffffffffffffffffffffffffffffffffffffffff1673ffffffffffffffffffffffffffffffffffffffff16815260200190815260200160002060006101000a81548160ff021916908315150217905550620000e8620001c160201b60201c565b73ffffffffffffffffffffffffffffffffffffffff168273ffffffffffffffffffffffffffffffffffffffff16847f2f8788117e7eff1d82e926ec794901d17c78024a50270940304540a733656f0d60405160405180910390a46001905062000151565b600090505b92915050565b600080600084815260200190815260200160002060000160008373ffffffffffffffffffffffffffffffffffffffff1673ffffffffffffffffffffffffffffffffffffffff16815260200190815260200160002060009054906101000a900460ff16905092915050565b600033905090565b600080fd5b600073ffffffffffffffffffffffffffffffffffffffff82169050919050565b6000620001fb82620001ce565b9050919050565b6200020d81620001ee565b81146200021957600080fd5b50565b6000815190506200022d8162000202565b92915050565b6000602082840312156200024c576200024b620001c9565b5b60006200025c848285016200021c565b91505092915050565b61223b80620002756000396000f3fe608060405234801561001057600080fd5b50600436106101165760003560e01c806391d14854116100a2578063ba1e529511610071578063ba1e5295146102e3578063d547741f14610301578063d7255f6b1461031d578063e614a32814610339578063fa6d8c5f1461035557610116565b806391d148541461025b578063a217fddf1461028b578063a8390915146102a9578063b8be99cb146102c757610116565b8063248a9ca3116100e9578063248a9ca3146101b95780632f2ff15d146101e957806336568abe14610205578063549dafd614610221578063600a991c1461023f57610116565b806301ffc9a71461011b5780631759e08c1461014b578063203c56881461016757806320c2850414610183575b600080fd5b610135600480360381019061013091906115c9565b610371565b6040516101429190611611565b60405180910390f35b6101656004803603810190610160919061168a565b6103eb565b005b610181600480360381019061017c919061171c565b610426565b005b61019d6004803603810190610198919061171c565b61062d565b6040516101b09796959493929190611898565b60405180910390f35b6101d360048036038101906101ce9190611952565b610868565b6040516101e0919061198e565b60405180910390f35b61020360048036038101906101fe91906119a9565b610887565b005b61021f600480360381019061021a91906119a9565b6108a9565b005b610229610924565b604051610236919061198e565b60405180910390f35b610259600480360381019061025491906119e9565b610948565b005b610275600480360381019061027091906119a9565b610c45565b6040516102829190611611565b60405180910390f35b610293610caf565b6040516102a0919061198e565b60405180910390f35b6102b1610cb6565b6040516102be919061198e565b60405180910390f35b6102e160048036038101906102dc9190611a75565b610cda565b005b6102eb610fea565b6040516102f8919061198e565b60405180910390f35b61031b600480360381019061031691906119a9565b61100e565b005b6103376004803603810190610332919061171c565b611030565b005b610353600480360381019061034e919061168a565b611237565b005b61036f600480360381019061036a919061168a565b611272565b005b60007f7965db0b000000000000000000000000000000000000000000000000000000007bffffffffffffffffffffffffffffffffffffffffffffffffffffffff1916827bffffffffffffffffffffffffffffffffffffffffffffffffffffffff191614806103e457506103e3826112ad565b5b9050919050565b6000801b6103f881611317565b6104227fddfd3036e1eb6a4af67ba89b65b13a4c179e1ffbf33ac5f3c45ef9007b2cfc0f83610887565b5050565b7f91a89345c1a9fae222ed2cd495c788dea0a507c0332f6b4b33fc1661b781bb9e61045081611317565b600060018484604051610464929190611bb0565b908152602001604051809103902090503373ffffffffffffffffffffffffffffffffffffffff168160000160009054906101000a900473ffffffffffffffffffffffffffffffffffffffff1673ffffffffffffffffffffffffffffffffffffffff1614610506576040517f08c379a00000000000000000000000000000000000000000000000000000000081526004016104fd90611c15565b60405180910390fd5b6002600381111561051a57610519611778565b5b8160000160149054906101000a900460ff16600381111561053e5761053d611778565b5b1461057e576040517f08c379a000000000000000000000000000000000000000000000000000000000815260040161057590611c81565b60405180910390fd5b60038160000160146101000a81548160ff021916908360038111156105a6576105a5611778565b5b021790555060018160050160008282546105c09190611cd0565b9250508190555083836040516105d7929190611bb0565b60405180910390207f45bfd85e9c912cdd9f6adeaae3ed2883a67d05a538e4fde98b22c284f0078c668260000160149054906101000a900460ff1660405161061f9190611d04565b60405180910390a250505050565b6000806060806000606060008060018a8a60405161064c929190611bb0565b908152602001604051809103902090508060000160009054906101000a900473ffffffffffffffffffffffffffffffffffffffff168160000160149054906101000a900460ff16826001018360020184600301548560040186600501548480546106b590611d4e565b80601f01602080910402602001604051908101604052809291908181526020018280546106e190611d4e565b801561072e5780601f106107035761010080835404028352916020019161072e565b820191906000526020600020905b81548152906001019060200180831161071157829003601f168201915b5050505050945083805461074190611d4e565b80601f016020809104026020016040519081016040528092919081815260200182805461076d90611d4e565b80156107ba5780601f1061078f576101008083540402835291602001916107ba565b820191906000526020600020905b81548152906001019060200180831161079d57829003601f168201915b505050505093508180546107cd90611d4e565b80601f01602080910402602001604051908101604052809291908181526020018280546107f990611d4e565b80156108465780601f1061081b57610100808354040283529160200191610846565b820191906000526020600020905b81548152906001019060200180831161082957829003601f168201915b5050505050915097509750975097509750975097505092959891949750929550565b6000806000838152602001908152602001600020600101549050919050565b61089082610868565b61089981611317565b6108a3838361132b565b50505050565b6108b161141c565b73ffffffffffffffffffffffffffffffffffffffff168173ffffffffffffffffffffffffffffffffffffffff1614610915576040517f6697b23200000000000000000000000000000000000000000000000000000000815260040160405180910390fd5b61091f8282611424565b505050565b7fddfd3036e1eb6a4af67ba89b65b13a4c179e1ffbf33ac5f3c45ef9007b2cfc0f81565b7f7c2d301983a60156b882648bf1c7210b103e1d4715ba229e6182e4f8ecd987be61097281611317565b600060018585604051610986929190611bb0565b908152602001604051809103902090503373ffffffffffffffffffffffffffffffffffffffff168160000160009054906101000a900473ffffffffffffffffffffffffffffffffffffffff1673ffffffffffffffffffffffffffffffffffffffff1614610a28576040517f08c379a0000000000000000000000000000000000000000000000000000000008152600401610a1f90611dcb565b60405180910390fd5b60006003811115610a3c57610a3b611778565b5b8160000160149054906101000a900460ff166003811115610a6057610a5f611778565b5b1480610aa1575060026003811115610a7b57610a7a611778565b5b8160000160149054906101000a900460ff166003811115610a9f57610a9e611778565b5b145b610ae0576040517f08c379a0000000000000000000000000000000000000000000000000000000008152600401610ad790611e37565b60405180910390fd5b828160000160006101000a81548173ffffffffffffffffffffffffffffffffffffffff021916908373ffffffffffffffffffffffffffffffffffffffff16021790555060018160000160146101000a81548160ff02191690836003811115610b4b57610b4a611778565b5b02179055506001816005016000828254610b659190611cd0565b925050819055508273ffffffffffffffffffffffffffffffffffffffff163373ffffffffffffffffffffffffffffffffffffffff168686604051610baa929190611bb0565b60405180910390207f8e01a30047398cf836aedf6b5ffa5fcb54b140db5f5f1c67537d719bb23d4d4c60405160405180910390a48484604051610bee929190611bb0565b60405180910390207f45bfd85e9c912cdd9f6adeaae3ed2883a67d05a538e4fde98b22c284f0078c668260000160149054906101000a900460ff16604051610c369190611d04565b60405180910390a25050505050565b600080600084815260200190815260200160002060000160008373ffffffffffffffffffffffffffffffffffffffff1673ffffffffffffffffffffffffffffffffffffffff16815260200190815260200160002060009054906101000a900460ff16905092915050565b6000801b81565b7f91a89345c1a9fae222ed2cd495c788dea0a507c0332f6b4b33fc1661b781bb9e81565b7fddfd3036e1eb6a4af67ba89b65b13a4c179e1ffbf33ac5f3c45ef9007b2cfc0f610d0481611317565b600060018b8b604051610d18929190611bb0565b90815260200160405180910390206005015414610d6a576040517f08c379a0000000000000000000000000000000000000000000000000000000008152600401610d6190611ea3565b60405180910390fd5b6040518060e001604052803373ffffffffffffffffffffffffffffffffffffffff16815260200160006003811115610da557610da4611778565b5b815260200189898080601f016020809104026020016040519081016040528093929190818152602001838380828437600081840152601f19601f82011690508083019250505050505050815260200187878080601f016020809104026020016040519081016040528093929190818152602001838380828437600081840152601f19601f82011690508083019250505050505050815260200185815260200184848080601f016020809104026020016040519081016040528093929190818152602001838380828437600081840152601f19601f820116905080830192505050505050508152602001600181525060018b8b604051610ea5929190611bb0565b908152602001604051809103902060008201518160000160006101000a81548173ffffffffffffffffffffffffffffffffffffffff021916908373ffffffffffffffffffffffffffffffffffffffff16021790555060208201518160000160146101000a81548160ff02191690836003811115610f2557610f24611778565b5b02179055506040820151816001019081610f3f919061209e565b506060820151816002019081610f55919061209e565b506080820151816003015560a0820151816004019081610f75919061209e565b5060c082015181600501559050503373ffffffffffffffffffffffffffffffffffffffff168a8a604051610faa929190611bb0565b60405180910390207fdb4e8a6f69daa6b4b9977ed734b510ed9b7ce86536c87435bfd7ef57968d05ee60405160405180910390a350505050505050505050565b7f7c2d301983a60156b882648bf1c7210b103e1d4715ba229e6182e4f8ecd987be81565b61101782610868565b61102081611317565b61102a8383611424565b50505050565b7f7c2d301983a60156b882648bf1c7210b103e1d4715ba229e6182e4f8ecd987be61105a81611317565b60006001848460405161106e929190611bb0565b908152602001604051809103902090503373ffffffffffffffffffffffffffffffffffffffff168160000160009054906101000a900473ffffffffffffffffffffffffffffffffffffffff1673ffffffffffffffffffffffffffffffffffffffff1614611110576040517f08c379a0000000000000000000000000000000000000000000000000000000008152600401611107906121bc565b60405180910390fd5b6001600381111561112457611123611778565b5b8160000160149054906101000a900460ff16600381111561114857611147611778565b5b14611188576040517f08c379a000000000000000000000000000000000000000000000000000000000815260040161117f906121bc565b60405180910390fd5b60028160000160146101000a81548160ff021916908360038111156111b0576111af611778565b5b021790555060018160050160008282546111ca9190611cd0565b9250508190555083836040516111e1929190611bb0565b60405180910390207f45bfd85e9c912cdd9f6adeaae3ed2883a67d05a538e4fde98b22c284f0078c668260000160149054906101000a900460ff166040516112299190611d04565b60405180910390a250505050565b6000801b61124481611317565b61126e7f91a89345c1a9fae222ed2cd495c788dea0a507c0332f6b4b33fc1661b781bb9e83610887565b5050565b6000801b61127f81611317565b6112a97f7c2d301983a60156b882648bf1c7210b103e1d4715ba229e6182e4f8ecd987be83610887565b5050565b60007f01ffc9a7000000000000000000000000000000000000000000000000000000007bffffffffffffffffffffffffffffffffffffffffffffffffffffffff1916827bffffffffffffffffffffffffffffffffffffffffffffffffffffffff1916149050919050565b6113288161132361141c565b611516565b50565b60006113378383610c45565b61141157600160008085815260200190815260200160002060000160008473ffffffffffffffffffffffffffffffffffffffff1673ffffffffffffffffffffffffffffffffffffffff16815260200190815260200160002060006101000a81548160ff0219169083151502179055506113ae61141c565b73ffffffffffffffffffffffffffffffffffffffff168273ffffffffffffffffffffffffffffffffffffffff16847f2f8788117e7eff1d82e926ec794901d17c78024a50270940304540a733656f0d60405160405180910390a460019050611416565b600090505b92915050565b600033905090565b60006114308383610c45565b1561150b57600080600085815260200190815260200160002060000160008473ffffffffffffffffffffffffffffffffffffffff1673ffffffffffffffffffffffffffffffffffffffff16815260200190815260200160002060006101000a81548160ff0219169083151502179055506114a861141c565b73ffffffffffffffffffffffffffffffffffffffff168273ffffffffffffffffffffffffffffffffffffffff16847ff6391f5c32d9c69d2a47ea670b442974b53935d1edc7fd64eb21e047a839171b60405160405180910390a460019050611510565b600090505b92915050565b6115208282610c45565b6115635780826040517fe2517d3f00000000000000000000000000000000000000000000000000000000815260040161155a9291906121dc565b60405180910390fd5b5050565b600080fd5b600080fd5b60007fffffffff0000000000000000000000000000000000000000000000000000000082169050919050565b6115a681611571565b81146115b157600080fd5b50565b6000813590506115c38161159d565b92915050565b6000602082840312156115df576115de611567565b5b60006115ed848285016115b4565b91505092915050565b60008115159050919050565b61160b816115f6565b82525050565b60006020820190506116266000830184611602565b92915050565b600073ffffffffffffffffffffffffffffffffffffffff82169050919050565b60006116578261162c565b9050919050565b6116678161164c565b811461167257600080fd5b50565b6000813590506116848161165e565b92915050565b6000602082840312156116a05761169f611567565b5b60006116ae84828501611675565b91505092915050565b600080fd5b600080fd5b600080fd5b60008083601f8401126116dc576116db6116b7565b5b8235905067ffffffffffffffff8111156116f9576116f86116bc565b5b602083019150836001820283011115611715576117146116c1565b5b9250929050565b6000806020838503121561173357611732611567565b5b600083013567ffffffffffffffff8111156117515761175061156c565b5b61175d858286016116c6565b92509250509250929050565b6117728161164c565b82525050565b7f4e487b7100000000000000000000000000000000000000000000000000000000600052602160045260246000fd5b600481106117b8576117b7611778565b5b50565b60008190506117c9826117a7565b919050565b60006117d9826117bb565b9050919050565b6117e9816117ce565b82525050565b600081519050919050565b600082825260208201905092915050565b60005b8381101561182957808201518184015260208101905061180e565b60008484015250505050565b6000601f19601f8301169050919050565b6000611851826117ef565b61185b81856117fa565b935061186b81856020860161180b565b61187481611835565b840191505092915050565b6000819050919050565b6118928161187f565b82525050565b600060e0820190506118ad600083018a611769565b6118ba60208301896117e0565b81810360408301526118cc8188611846565b905081810360608301526118e08187611846565b90506118ef6080830186611889565b81810360a08301526119018185611846565b905061191060c0830184611889565b98975050505050505050565b6000819050919050565b61192f8161191c565b811461193a57600080fd5b50565b60008135905061194c81611926565b92915050565b60006020828403121561196857611967611567565b5b60006119768482850161193d565b91505092915050565b6119888161191c565b82525050565b60006020820190506119a3600083018461197f565b92915050565b600080604083850312156119c0576119bf611567565b5b60006119ce8582860161193d565b92505060206119df85828601611675565b9150509250929050565b600080600060408486031215611a0257611a01611567565b5b600084013567ffffffffffffffff811115611a2057611a1f61156c565b5b611a2c868287016116c6565b93509350506020611a3f86828701611675565b9150509250925092565b611a528161187f565b8114611a5d57600080fd5b50565b600081359050611a6f81611a49565b92915050565b600080600080600080600080600060a08a8c031215611a9757611a96611567565b5b60008a013567ffffffffffffffff811115611ab557611ab461156c565b5b611ac18c828d016116c6565b995099505060208a013567ffffffffffffffff811115611ae457611ae361156c565b5b611af08c828d016116c6565b975097505060408a013567ffffffffffffffff811115611b1357611b1261156c565b5b611b1f8c828d016116c6565b95509550506060611b328c828d01611a60565b93505060808a013567ffffffffffffffff811115611b5357611b5261156c565b5b611b5f8c828d016116c6565b92509250509295985092959850929598565b600081905092915050565b82818337600083830152505050565b6000611b978385611b71565b9350611ba4838584611b7c565b82840190509392505050565b6000611bbd828486611b8b565b91508190509392505050565b7f4d75737420626520646973706f73657200000000000000000000000000000000600082015250565b6000611bff6010836117fa565b9150611c0a82611bc9565b602082019050919050565b60006020820190508181036000830152611c2e81611bf2565b9050919050565b7f4e6f742064656c69766572656420796574000000000000000000000000000000600082015250565b6000611c6b6011836117fa565b9150611c7682611c35565b602082019050919050565b60006020820190508181036000830152611c9a81611c5e565b9050919050565b7f4e487b7100000000000000000000000000000000000000000000000000000000600052601160045260246000fd5b6000611cdb8261187f565b9150611ce68361187f565b9250828201905080821115611cfe57611cfd611ca1565b5b92915050565b6000602082019050611d1960008301846117e0565b92915050565b7f4e487b7100000000000000000000000000000000000000000000000000000000600052602260045260246000fd5b60006002820490506001821680611d6657607f821691505b602082108103611d7957611d78611d1f565b5b50919050565b7f4e6f742063757272656e7420686f6c6465720000000000000000000000000000600082015250565b6000611db56012836117fa565b9150611dc082611d7f565b602082019050919050565b60006020820190508181036000830152611de481611da8565b9050919050565b7f496e76616c696420737461747573000000000000000000000000000000000000600082015250565b6000611e21600e836117fa565b9150611e2c82611deb565b602082019050919050565b60006020820190508181036000830152611e5081611e14565b9050919050565b7f416c726561647920657869737473000000000000000000000000000000000000600082015250565b6000611e8d600e836117fa565b9150611e9882611e57565b602082019050919050565b60006020820190508181036000830152611ebc81611e80565b9050919050565b7f4e487b7100000000000000000000000000000000000000000000000000000000600052604160045260246000fd5b60008190508160005260206000209050919050565b60006020601f8301049050919050565b600082821b905092915050565b600060088302611f547fffffffffffffffffffffffffffffffffffffffffffffffffffffffffffffffff82611f17565b611f5e8683611f17565b95508019841693508086168417925050509392505050565b6000819050919050565b6000611f9b611f96611f918461187f565b611f76565b61187f565b9050919050565b6000819050919050565b611fb583611f80565b611fc9611fc182611fa2565b848454611f24565b825550505050565b600090565b611fde611fd1565b611fe9818484611fac565b505050565b5b8181101561200d57612002600082611fd6565b600181019050611fef565b5050565b601f8211156120525761202381611ef2565b61202c84611f07565b8101602085101561203b578190505b61204f61204785611f07565b830182611fee565b50505b505050565b600082821c905092915050565b600061207560001984600802612057565b1980831691505092915050565b600061208e8383612064565b9150826002028217905092915050565b6120a7826117ef565b67ffffffffffffffff8111156120c0576120bf611ec3565b5b6120ca8254611d4e565b6120d5828285612011565b600060209050601f83116001811461210857600084156120f6578287015190505b6121008582612082565b865550612168565b601f19841661211686611ef2565b60005b8281101561213e57848901518255600182019150602085019450602081019050612119565b8683101561215b5784890151612157601f891682612064565b8355505b6001600288020188555050505b505050505050565b7f4e6f7420696e207472616e736974000000000000000000000000000000000000600082015250565b60006121a6600e836117fa565b91506121b182612170565b602082019050919050565b600060208201905081810360008301526121d581612199565b9050919050565b60006040820190506121f16000830185611769565b6121fe602083018461197f565b939250505056fea2646970667358221220e0f9db0bd941a0e1a3581b2104a48e28a51e702921d822cf05c22becc1b7cc0164736f6c63430008140033","opcodes":"PUSH1 0x80 PUSH1 0x40 MSTORE CALLVALUE DUP1 ISZERO PUSH3 0x11 JUMPI PUSH1 0x0 DUP1 REVERT JUMPDEST POP PUSH1 0x40 MLOAD PUSH3 0x24B0 CODESIZE SUB DUP1 PUSH3 0x24B0 DUP4 CODECOPY DUP2 DUP2 ADD PUSH1 0x40 MSTORE DUP2 ADD SWAP1 PUSH3 0x37 SWAP2 SWAP1 PUSH3 0x233 JUMP JUMPDEST PUSH3 0x4C PUSH1 0x0 DUP1 SHL DUP3 PUSH3 0x54 PUSH1 0x20 SHL PUSH1 0x20 SHR JUMP JUMPDEST POP POP PUSH3 0x265 JUMP JUMPDEST PUSH1 0x0 PUSH3 0x68 DUP4 DUP4 PUSH3 0x157 PUSH1 0x20 SHL PUSH1 0x20 SHR JUMP JUMPDEST PUSH3 0x14C JUMPI PUSH1 0x1 PUSH1 0x0 DUP1 DUP6 DUP2 MSTORE PUSH1 0x20 ADD SWAP1 DUP2 MSTORE PUSH1 0x20 ADD PUSH1 0x0 KECCAK256 PUSH1 0x0 ADD PUSH1 0x0 DUP5 PUSH20 0xFFFFFFFFFFFFFFFFFFFFFFFFFFFFFFFFFFFFFFFF AND PUSH20 0xFFFFFFFFFFFFFFFFFFFFFFFFFFFFFFFFFFFFFFFF AND DUP2 MSTORE PUSH1 0x20 ADD SWAP1 DUP2 MSTORE PUSH1 0x20 ADD PUSH1 0x0 KECCAK256 PUSH1 0x0 PUSH2 0x100 EXP DUP2 SLOAD DUP2 PUSH1 0xFF MUL NOT AND SWAP1 DUP4 ISZERO ISZERO MUL OR SWAP1 SSTORE POP PUSH3 0xE8 PUSH3 0x1C1 PUSH1 0x20 SHL PUSH1 0x20 SHR JUMP JUMPDEST PUSH20 0xFFFFFFFFFFFFFFFFFFFFFFFFFFFFFFFFFFFFFFFF AND DUP3 PUSH20 0xFFFFFFFFFFFFFFFFFFFFFFFFFFFFFFFFFFFFFFFF AND DUP5 PUSH32 0x2F8788117E7EFF1D82E926EC794901D17C78024A50270940304540A733656F0D PUSH1 0x40 MLOAD PUSH1 0x40 MLOAD DUP1 SWAP2 SUB SWAP1 LOG4 PUSH1 0x1 SWAP1 POP PUSH3 0x151 JUMP JUMPDEST PUSH1 0x0 SWAP1 POP JUMPDEST SWAP3 SWAP2 POP POP JUMP JUMPDEST PUSH1 0x0 DUP1 PUSH1 0x0 DUP5 DUP2 MSTORE PUSH1 0x20 ADD SWAP1 DUP2 MSTORE PUSH1 0x20 ADD PUSH1 0x0 KECCAK256 PUSH1 0x0 ADD PUSH1 0x0 DUP4 PUSH20 0xFFFFFFFFFFFFFFFFFFFFFFFFFFFFFFFFFFFFFFFF AND PUSH20 0xFFFFFFFFFFFFFFFFFFFFFFFFFFFFFFFFFFFFFFFF AND DUP2 MSTORE PUSH1 0x20 ADD SWAP1 DUP2 MSTORE PUSH1 0x20 ADD PUSH1 0x0 KECCAK256 PUSH1 0x0 SWAP1 SLOAD SWAP1 PUSH2 0x100 EXP SWAP1 DIV PUSH1 0xFF AND SWAP1 POP SWAP3 SWAP2 POP POP JUMP JUMPDEST PUSH1 0x0 CALLER SWAP1 POP SWAP1 JUMP JUMPDEST PUSH1 0x0 DUP1 REVERT JUMPDEST PUSH1 0x0 PUSH20 0xFFFFFFFFFFFFFFFFFFFFFFFFFFFFFFFFFFFFFFFF DUP3 AND SWAP1 POP SWAP2 SWAP1 POP JUMP JUMPDEST PUSH1 0x0 PUSH3 0x1FB DUP3 PUSH3 0x1CE JUMP JUMPDEST SWAP1 POP SWAP2 SWAP1 POP JUMP JUMPDEST PUSH3 0x20D DUP2 PUSH3 0x1EE JUMP JUMPDEST DUP2 EQ PUSH3 0x219 JUMPI PUSH1 0x0 DUP1 REVERT JUMPDEST POP JUMP JUMPDEST PUSH1 0x0 DUP2 MLOAD SWAP1 POP PUSH3 0x22D DUP2 PUSH3 0x202 JUMP JUMPDEST SWAP3 SWAP2 POP POP JUMP JUMPDEST PUSH1 0x0 PUSH1 0x20 DUP3 DUP5 SUB SLT ISZERO PUSH3 0x24C JUMPI PUSH3 0x24B PUSH3 0x1C9 JUMP JUMPDEST JUMPDEST PUSH1 0x0 PUSH3 0x25C DUP5 DUP3 DUP6 ADD PUSH3 0x21C JUMP JUMPDEST SWAP2 POP POP SWAP3 SWAP2 POP POP JUMP JUMPDEST PUSH2 0x223B DUP1 PUSH3 0x275 PUSH1 0x0 CODECOPY PUSH1 0x0 RETURN INVALID PUSH1 0x80 PUSH1 0x40 MSTORE CALLVALUE DUP1 ISZERO PUSH2 0x10 JUMPI PUSH1 0x0 DUP1 REVERT JUMPDEST POP PUSH1 0x4 CALLDATASIZE LT PUSH2 0x116 JUMPI PUSH1 0x0 CALLDATALOAD PUSH1 0xE0 SHR DUP1 PUSH4 0x91D14854 GT PUSH2 0xA2 JUMPI DUP1 PUSH4 0xBA1E5295 GT PUSH2 0x71 JUMPI DUP1 PUSH4 0xBA1E5295 EQ PUSH2 0x2E3 JUMPI DUP1 PUSH4 0xD547741F EQ PUSH2 0x301 JUMPI DUP1 PUSH4 0xD7255F6B EQ PUSH2 0x31D JUMPI DUP1 PUSH4 0xE614A328 EQ PUSH2 0x339 JUMPI DUP1 PUSH4 0xFA6D8C5F EQ PUSH2 0x355 JUMPI PUSH2 0x116 JUMP JUMPDEST DUP1 PUSH4 0x91D14854 EQ PUSH2 0x25B JUMPI DUP1 PUSH4 0xA217FDDF EQ PUSH2 0x28B JUMPI DUP1 PUSH4 0xA8390915 EQ PUSH2 0x2A9 JUMPI DUP1 PUSH4 0xB8BE99CB EQ PUSH2 0x2C7 JUMPI PUSH2 0x116 JUMP JUMPDEST DUP1 PUSH4 0x248A9CA3 GT PUSH2 0xE9 JUMPI DUP1 PUSH4 0x248A9CA3 EQ PUSH2 0x1B9 JUMPI DUP1 PUSH4 0x2F2FF15D EQ PUSH2 0x1E9 JUMPI DUP1 PUSH4 0x36568ABE EQ PUSH2 0x205 JUMPI DUP1 PUSH4 0x549DAFD6 EQ PUSH2 0x221 JUMPI DUP1 PUSH4 0x600A991C EQ PUSH2 0x23F JUMPI PUSH2 0x116 JUMP JUMPDEST DUP1 PUSH4 0x1FFC9A7 EQ PUSH2 0x11B JUMPI DUP1 PUSH4 0x1759E08C EQ PUSH2 0x14B JUMPI DUP1 PUSH4 0x203C5688 EQ PUSH2 0x167 JUMPI DUP1 PUSH4 0x20C28504 EQ PUSH2 0x183 JUMPI JUMPDEST PUSH1 0x0 DUP1 REVERT JUMPDEST PUSH2 0x135 PUSH1 0x4 DUP1 CALLDATASIZE SUB DUP2 ADD SWAP1 PUSH2 0x130 SWAP2 SWAP1 PUSH2 0x15C9 JUMP JUMPDEST PUSH2 0x371 JUMP JUMPDEST PUSH1 0x40 MLOAD PUSH2 0x142 SWAP2 SWAP1 PUSH2 0x1611 JUMP JUMPDEST PUSH1 0x40 MLOAD DUP1 SWAP2 SUB SWAP1 RETURN JUMPDEST PUSH2 0x165 PUSH1 0x4 DUP1 CALLDATASIZE SUB DUP2 ADD SWAP1 PUSH2 0x160 SWAP2 SWAP1 PUSH2 0x168A JUMP JUMPDEST PUSH2 0x3EB JUMP JUMPDEST STOP JUMPDEST PUSH2 0x181 PUSH1 0x4 DUP1 CALLDATASIZE SUB DUP2 ADD SWAP1 PUSH2 0x17C SWAP2 SWAP1 PUSH2 0x171C JUMP JUMPDEST PUSH2 0x426 JUMP JUMPDEST STOP JUMPDEST PUSH2 0x19D PUSH1 0x4 DUP1 CALLDATASIZE SUB DUP2 ADD SWAP1 PUSH2 0x198 SWAP2 SWAP1 PUSH2 0x171C JUMP JUMPDEST PUSH2 0x62D JUMP JUMPDEST PUSH1 0x40 MLOAD PUSH2 0x1B0 SWAP8 SWAP7 SWAP6 SWAP5 SWAP4 SWAP3 SWAP2 SWAP1 PUSH2 0x1898 JUMP JUMPDEST PUSH1 0x40 MLOAD DUP1 SWAP2 SUB SWAP1 RETURN JUMPDEST PUSH2 0x1D3 PUSH1 0x4 DUP1 CALLDATASIZE SUB DUP2 ADD SWAP1 PUSH2 0x1CE SWAP2 SWAP1 PUSH2 0x1952 JUMP JUMPDEST PUSH2 0x868 JUMP JUMPDEST PUSH1 0x40 MLOAD PUSH2 0x1E0 SWAP2 SWAP1 PUSH2 0x198E JUMP JUMPDEST PUSH1 0x40 MLOAD DUP1 SWAP2 SUB SWAP1 RETURN JUMPDEST PUSH2 0x203 PUSH1 0x4 DUP1 CALLDATASIZE SUB DUP2 ADD SWAP1 PUSH2 0x1FE SWAP2 SWAP1 PUSH2 0x19A9 JUMP JUMPDEST PUSH2 0x887 JUMP JUMPDEST STOP JUMPDEST PUSH2 0x21F PUSH1 0x4 DUP1 CALLDATASIZE SUB DUP2 ADD SWAP1 PUSH2 0x21A SWAP2 SWAP1 PUSH2 0x19A9 JUMP JUMPDEST PUSH2 0x8A9 JUMP JUMPDEST STOP JUMPDEST PUSH2 0x229 PUSH2 0x924 JUMP JUMPDEST PUSH1 0x40 MLOAD PUSH2 0x236 SWAP2 SWAP1 PUSH2 0x198E JUMP JUMPDEST PUSH1 0x40 MLOAD DUP1 SWAP2 SUB SWAP1 RETURN JUMPDEST PUSH2 0x259 PUSH1 0x4 DUP1 CALLDATASIZE SUB DUP2 ADD SWAP1 PUSH2 0x254 SWAP2 SWAP1 PUSH2 0x19E9 JUMP JUMPDEST PUSH2 0x948 JUMP JUMPDEST STOP JUMPDEST PUSH2 0x275 PUSH1 0x4 DUP1 CALLDATASIZE SUB DUP2 ADD SWAP1 PUSH2 0x270 SWAP2 SWAP1 PUSH2 0x19A9 JUMP JUMPDEST PUSH2 0xC45 JUMP JUMPDEST PUSH1 0x40 MLOAD PUSH2 0x282 SWAP2 SWAP1 PUSH2 0x1611 JUMP JUMPDEST PUSH1 0x40 MLOAD DUP1 SWAP2 SUB SWAP1 RETURN JUMPDEST PUSH2 0x293 PUSH2 0xCAF JUMP JUMPDEST PUSH1 0x40 MLOAD PUSH2 0x2A0 SWAP2 SWAP1 PUSH2 0x198E JUMP JUMPDEST PUSH1 0x40 MLOAD DUP1 SWAP2 SUB SWAP1 RETURN JUMPDEST PUSH2 0x2B1 PUSH2 0xCB6 JUMP JUMPDEST PUSH1 0x40 MLOAD PUSH2 0x2BE SWAP2 SWAP1 PUSH2 0x198E JUMP JUMPDEST PUSH1 0x40 MLOAD DUP1 SWAP2 SUB SWAP1 RETURN JUMPDEST PUSH2 0x2E1 PUSH1 0x4 DUP1 CALLDATASIZE SUB DUP2 ADD SWAP1 PUSH2 0x2DC SWAP2 SWAP1 PUSH2 0x1A75 JUMP JUMPDEST PUSH2 0xCDA JUMP JUMPDEST STOP JUMPDEST PUSH2 0x2EB PUSH2 0xFEA JUMP JUMPDEST PUSH1 0x40 MLOAD PUSH2 0x2F8 SWAP2 SWAP1 PUSH2 0x198E JUMP JUMPDEST PUSH1 0x40 MLOAD DUP1 SWAP2 SUB SWAP1 RETURN JUMPDEST PUSH2 0x31B PUSH1 0x4 DUP1 CALLDATASIZE SUB DUP2 ADD SWAP1 PUSH2 0x316 SWAP2 SWAP1 PUSH2 0x19A9 JUMP JUMPDEST PUSH2 0x100E JUMP JUMPDEST STOP JUMPDEST PUSH2 0x337 PUSH1 0x4 DUP1 CALLDATASIZE SUB DUP2 ADD SWAP1 PUSH2 0x332 SWAP2 SWAP1 PUSH2 0x171C JUMP JUMPDEST PUSH2 0x1030 JUMP JUMPDEST STOP JUMPDEST PUSH2 0x353 PUSH1 0x4 DUP1 CALLDATASIZE SUB DUP2 ADD SWAP1 PUSH2 0x34E SWAP2 SWAP1 PUSH2 0x168A JUMP JUMPDEST PUSH2 0x1237 JUMP JUMPDEST STOP JUMPDEST PUSH2 0x36F PUSH1 0x4 DUP1 CALLDATASIZE SUB DUP2 ADD SWAP1 PUSH2 0x36A SWAP2 SWAP1 PUSH2 0x168A JUMP JUMPDEST PUSH2 0x1272 JUMP JUMPDEST STOP JUMPDEST PUSH1 0x0 PUSH32 0x7965DB0B00000000000000000000000000000000000000000000000000000000 PUSH28 0xFFFFFFFFFFFFFFFFFFFFFFFFFFFFFFFFFFFFFFFFFFFFFFFFFFFFFFFF NOT AND DUP3 PUSH28 0xFFFFFFFFFFFFFFFFFFFFFFFFFFFFFFFFFFFFFFFFFFFFFFFFFFFFFFFF NOT AND EQ DUP1 PUSH2 0x3E4 JUMPI POP PUSH2 0x3E3 DUP3 PUSH2 0x12AD JUMP JUMPDEST JUMPDEST SWAP1 POP SWAP2 SWAP1 POP JUMP JUMPDEST PUSH1 0x0 DUP1 SHL PUSH2 0x3F8 DUP2 PUSH2 0x1317 JUMP JUMPDEST PUSH2 0x422 PUSH32 0xDDFD3036E1EB6A4AF67BA89B65B13A4C179E1FFBF33AC5F3C45EF9007B2CFC0F DUP4 PUSH2 0x887 JUMP JUMPDEST POP POP JUMP JUMPDEST PUSH32 0x91A89345C1A9FAE222ED2CD495C788DEA0A507C0332F6B4B33FC1661B781BB9E PUSH2 0x450 DUP2 PUSH2 0x1317 JUMP JUMPDEST PUSH1 0x0 PUSH1 0x1 DUP5 DUP5 PUSH1 0x40 MLOAD PUSH2 0x464 SWAP3 SWAP2 SWAP1 PUSH2 0x1BB0 JUMP JUMPDEST SWAP1 DUP2 MSTORE PUSH1 0x20 ADD PUSH1 0x40 MLOAD DUP1 SWAP2 SUB SWAP1 KECCAK256 SWAP1 POP CALLER PUSH20 0xFFFFFFFFFFFFFFFFFFFFFFFFFFFFFFFFFFFFFFFF AND DUP2 PUSH1 0x0 ADD PUSH1 0x0 SWAP1 SLOAD SWAP1 PUSH2 0x100 EXP SWAP1 DIV PUSH20 0xFFFFFFFFFFFFFFFFFFFFFFFFFFFFFFFFFFFFFFFF AND PUSH20 0xFFFFFFFFFFFFFFFFFFFFFFFFFFFFFFFFFFFFFFFF AND EQ PUSH2 0x506 JUMPI PUSH1 0x40 MLOAD PUSH32 0x8C379A000000000000000000000000000000000000000000000000000000000 DUP2 MSTORE PUSH1 0x4 ADD PUSH2 0x4FD SWAP1 PUSH2 0x1C15 JUMP JUMPDEST PUSH1 0x40 MLOAD DUP1 SWAP2 SUB SWAP1 REVERT JUMPDEST PUSH1 0x2 PUSH1 0x3 DUP2 GT ISZERO PUSH2 0x51A JUMPI PUSH2 0x519 PUSH2 0x1778 JUMP JUMPDEST JUMPDEST DUP2 PUSH1 0x0 ADD PUSH1 0x14 SWAP1 SLOAD SWAP1 PUSH2 0x100 EXP SWAP1 DIV PUSH1 0xFF AND PUSH1 0x3 DUP2 GT ISZERO PUSH2 0x53E JUMPI PUSH2 0x53D PUSH2 0x1778 JUMP JUMPDEST JUMPDEST EQ PUSH2 0x57E JUMPI PUSH1 0x40 MLOAD PUSH32 0x8C379A000000000000000000000000000000000000000000000000000000000 DUP2 MSTORE PUSH1 0x4 ADD PUSH2 0x575 SWAP1 PUSH2 0x1C81 JUMP JUMPDEST PUSH1 0x40 MLOAD DUP1 SWAP2 SUB SWAP1 REVERT JUMPDEST PUSH1 0x3 DUP2 PUSH1 0x0 ADD PUSH1 0x14 PUSH2 0x100 EXP DUP2 SLOAD DUP2 PUSH1 0xFF MUL NOT AND SWAP1 DUP4 PUSH1 0x3 DUP2 GT ISZERO PUSH2 0x5A6 JUMPI PUSH2 0x5A5 PUSH2 0x1778 JUMP JUMPDEST JUMPDEST MUL OR SWAP1 SSTORE POP PUSH1 0x1 DUP2 PUSH1 0x5 ADD PUSH1 0x0 DUP3 DUP3 SLOAD PUSH2 0x5C0 SWAP2 SWAP1 PUSH2 0x1CD0 JUMP JUMPDEST SWAP3 POP POP DUP2 SWAP1 SSTORE POP DUP4 DUP4 PUSH1 0x40 MLOAD PUSH2 0x5D7 SWAP3 SWAP2 SWAP1 PUSH2 0x1BB0 JUMP JUMPDEST PUSH1 0x40 MLOAD DUP1 SWAP2 SUB SWAP1 KECCAK256 PUSH32 0x45BFD85E9C912CDD9F6ADEAAE3ED2883A67D05A538E4FDE98B22C284F0078C66 DUP3 PUSH1 0x0 ADD PUSH1 0x14 SWAP1 SLOAD SWAP1 PUSH2 0x100 EXP SWAP1 DIV PUSH1 0xFF AND PUSH1 0x40 MLOAD PUSH2 0x61F SWAP2 SWAP1 PUSH2 0x1D04 JUMP JUMPDEST PUSH1 0x40 MLOAD DUP1 SWAP2 SUB SWAP1 LOG2 POP POP POP POP JUMP JUMPDEST PUSH1 0x0 DUP1 PUSH1 0x60 DUP1 PUSH1 0x0 PUSH1 0x60 PUSH1 0x0 DUP1 PUSH1 0x1 DUP11 DUP11 PUSH1 0x40 MLOAD PUSH2 0x64C SWAP3 SWAP2 SWAP1 PUSH2 0x1BB0 JUMP JUMPDEST SWAP1 DUP2 MSTORE PUSH1 0x20 ADD PUSH1 0x40 MLOAD DUP1 SWAP2 SUB SWAP1 KECCAK256 SWAP1 POP DUP1 PUSH1 0x0 ADD PUSH1 0x0 SWAP1 SLOAD SWAP1 PUSH2 0x100 EXP SWAP1 DIV PUSH20 0xFFFFFFFFFFFFFFFFFFFFFFFFFFFFFFFFFFFFFFFF AND DUP2 PUSH1 0x0 ADD PUSH1 0x14 SWAP1 SLOAD SWAP1 PUSH2 0x100 EXP SWAP1 DIV PUSH1 0xFF AND DUP3 PUSH1 0x1 ADD DUP4 PUSH1 0x2 ADD DUP5 PUSH1 0x3 ADD SLOAD DUP6 PUSH1 0x4 ADD DUP7 PUSH1 0x5 ADD SLOAD DUP5 DUP1 SLOAD PUSH2 0x6B5 SWAP1 PUSH2 0x1D4E JUMP JUMPDEST DUP1 PUSH1 0x1F ADD PUSH1 0x20 DUP1 SWAP2 DIV MUL PUSH1 0x20 ADD PUSH1 0x40 MLOAD SWAP1 DUP2 ADD PUSH1 0x40 MSTORE DUP1 SWAP3 SWAP2 SWAP1 DUP2 DUP2 MSTORE PUSH1 0x20 ADD DUP3 DUP1 SLOAD PUSH2 0x6E1 SWAP1 PUSH2 0x1D4E JUMP JUMPDEST DUP1 ISZERO PUSH2 0x72E JUMPI DUP1 PUSH1 0x1F LT PUSH2 0x703 JUMPI PUSH2 0x100 DUP1 DUP4 SLOAD DIV MUL DUP4 MSTORE SWAP2 PUSH1 0x20 ADD SWAP2 PUSH2 0x72E JUMP JUMPDEST DUP3 ADD SWAP2 SWAP1 PUSH1 0x0 MSTORE PUSH1 0x20 PUSH1 0x0 KECCAK256 SWAP1 JUMPDEST DUP2 SLOAD DUP2 MSTORE SWAP1 PUSH1 0x1 ADD SWAP1 PUSH1 0x20 ADD DUP1 DUP4 GT PUSH2 0x711 JUMPI DUP3 SWAP1 SUB PUSH1 0x1F AND DUP3 ADD SWAP2 JUMPDEST POP POP POP POP POP SWAP5 POP DUP4 DUP1 SLOAD PUSH2 0x741 SWAP1 PUSH2 0x1D4E JUMP JUMPDEST DUP1 PUSH1 0x1F ADD PUSH1 0x20 DUP1 SWAP2 DIV MUL PUSH1 0x20 ADD PUSH1 0x40 MLOAD SWAP1 DUP2 ADD PUSH1 0x40 MSTORE DUP1 SWAP3 SWAP2 SWAP1 DUP2 DUP2 MSTORE PUSH1 0x20 ADD DUP3 DUP1 SLOAD PUSH2 0x76D SWAP1 PUSH2 0x1D4E JUMP JUMPDEST DUP1 ISZERO PUSH2 0x7BA JUMPI DUP1 PUSH1 0x1F LT PUSH2 0x78F JUMPI PUSH2 0x100 DUP1 DUP4 SLOAD DIV MUL DUP4 MSTORE SWAP2 PUSH1 0x20 ADD SWAP2 PUSH2 0x7BA JUMP JUMPDEST DUP3 ADD SWAP2 SWAP1 PUSH1 0x0 MSTORE PUSH1 0x20 PUSH1 0x0 KECCAK256 SWAP1 JUMPDEST DUP2 SLOAD DUP2 MSTORE SWAP1 PUSH1 0x1 ADD SWAP1 PUSH1 0x20 ADD DUP1 DUP4 GT PUSH2 0x79D JUMPI DUP3 SWAP1 SUB PUSH1 0x1F AND DUP3 ADD SWAP2 JUMPDEST POP POP POP POP POP SWAP4 POP DUP2 DUP1 SLOAD PUSH2 0x7CD SWAP1 PUSH2 0x1D4E JUMP JUMPDEST DUP1 PUSH1 0x1F ADD PUSH1 0x20 DUP1 SWAP2 DIV MUL PUSH1 0x20 ADD PUSH1 0x40 MLOAD SWAP1 DUP2 ADD PUSH1 0x40 MSTORE DUP1 SWAP3 SWAP2 SWAP1 DUP2 DUP2 MSTORE PUSH1 0x20 ADD DUP3 DUP1 SLOAD PUSH2 0x7F9 SWAP1 PUSH2 0x1D4E JUMP JUMPDEST DUP1 ISZERO PUSH2 0x846 JUMPI DUP1 PUSH1 0x1F LT PUSH2 0x81B JUMPI PUSH2 0x100 DUP1 DUP4 SLOAD DIV MUL DUP4 MSTORE SWAP2 PUSH1 0x20 ADD SWAP2 PUSH2 0x846 JUMP JUMPDEST DUP3 ADD SWAP2 SWAP1 PUSH1 0x0 MSTORE PUSH1 0x20 PUSH1 0x0 KECCAK256 SWAP1 JUMPDEST DUP2 SLOAD DUP2 MSTORE SWAP1 PUSH1 0x1 ADD SWAP1 PUSH1 0x20 ADD DUP1 DUP4 GT PUSH2 0x829 JUMPI DUP3 SWAP1 SUB PUSH1 0x1F AND DUP3 ADD SWAP2 JUMPDEST POP POP POP POP POP SWAP2 POP SWAP8 POP SWAP8 POP SWAP8 POP SWAP8 POP SWAP8 POP SWAP8 POP SWAP8 POP POP SWAP3 SWAP6 SWAP9 SWAP2 SWAP5 SWAP8 POP SWAP3 SWAP6 POP JUMP JUMPDEST PUSH1 0x0 DUP1 PUSH1 0x0 DUP4 DUP2 MSTORE PUSH1 0x20 ADD SWAP1 DUP2 MSTORE PUSH1 0x20 ADD PUSH1 0x0 KECCAK256 PUSH1 0x1 ADD SLOAD SWAP1 POP SWAP2 SWAP1 POP JUMP JUMPDEST PUSH2 0x890 DUP3 PUSH2 0x868 JUMP JUMPDEST PUSH2 0x899 DUP2 PUSH2 0x1317 JUMP JUMPDEST PUSH2 0x8A3 DUP4 DUP4 PUSH2 0x132B JUMP JUMPDEST POP POP POP POP JUMP JUMPDEST PUSH2 0x8B1 PUSH2 0x141C JUMP JUMPDEST PUSH20 0xFFFFFFFFFFFFFFFFFFFFFFFFFFFFFFFFFFFFFFFF AND DUP2 PUSH20 0xFFFFFFFFFFFFFFFFFFFFFFFFFFFFFFFFFFFFFFFF AND EQ PUSH2 0x915 JUMPI PUSH1 0x40 MLOAD PUSH32 0x6697B23200000000000000000000000000000000000000000000000000000000 DUP2 MSTORE PUSH1 0x4 ADD PUSH1 0x40 MLOAD DUP1 SWAP2 SUB SWAP1 REVERT JUMPDEST PUSH2 0x91F DUP3 DUP3 PUSH2 0x1424 JUMP JUMPDEST POP POP POP JUMP JUMPDEST PUSH32 0xDDFD3036E1EB6A4AF67BA89B65B13A4C179E1FFBF33AC5F3C45EF9007B2CFC0F DUP2 JUMP JUMPDEST PUSH32 0x7C2D301983A60156B882648BF1C7210B103E1D4715BA229E6182E4F8ECD987BE PUSH2 0x972 DUP2 PUSH2 0x1317 JUMP JUMPDEST PUSH1 0x0 PUSH1 0x1 DUP6 DUP6 PUSH1 0x40 MLOAD PUSH2 0x986 SWAP3 SWAP2 SWAP1 PUSH2 0x1BB0 JUMP JUMPDEST SWAP1 DUP2 MSTORE PUSH1 0x20 ADD PUSH1 0x40 MLOAD DUP1 SWAP2 SUB SWAP1 KECCAK256 SWAP1 POP CALLER PUSH20 0xFFFFFFFFFFFFFFFFFFFFFFFFFFFFFFFFFFFFFFFF AND DUP2 PUSH1 0x0 ADD PUSH1 0x0 SWAP1 SLOAD SWAP1 PUSH2 0x100 EXP SWAP1 DIV PUSH20 0xFFFFFFFFFFFFFFFFFFFFFFFFFFFFFFFFFFFFFFFF AND PUSH20 0xFFFFFFFFFFFFFFFFFFFFFFFFFFFFFFFFFFFFFFFF AND EQ PUSH2 0xA28 JUMPI PUSH1 0x40 MLOAD PUSH32 0x8C379A000000000000000000000000000000000000000000000000000000000 DUP2 MSTORE PUSH1 0x4 ADD PUSH2 0xA1F SWAP1 PUSH2 0x1DCB JUMP JUMPDEST PUSH1 0x40 MLOAD DUP1 SWAP2 SUB SWAP1 REVERT JUMPDEST PUSH1 0x0 PUSH1 0x3 DUP2 GT ISZERO PUSH2 0xA3C JUMPI PUSH2 0xA3B PUSH2 0x1778 JUMP JUMPDEST JUMPDEST DUP2 PUSH1 0x0 ADD PUSH1 0x14 SWAP1 SLOAD SWAP1 PUSH2 0x100 EXP SWAP1 DIV PUSH1 0xFF AND PUSH1 0x3 DUP2 GT ISZERO PUSH2 0xA60 JUMPI PUSH2 0xA5F PUSH2 0x1778 JUMP JUMPDEST JUMPDEST EQ DUP1 PUSH2 0xAA1 JUMPI POP PUSH1 0x2 PUSH1 0x3 DUP2 GT ISZERO PUSH2 0xA7B JUMPI PUSH2 0xA7A PUSH2 0x1778 JUMP JUMPDEST JUMPDEST DUP2 PUSH1 0x0 ADD PUSH1 0x14 SWAP1 SLOAD SWAP1 PUSH2 0x100 EXP SWAP1 DIV PUSH1 0xFF AND PUSH1 0x3 DUP2 GT ISZERO PUSH2 0xA9F JUMPI PUSH2 0xA9E PUSH2 0x1778 JUMP JUMPDEST JUMPDEST EQ JUMPDEST PUSH2 0xAE0 JUMPI PUSH1 0x40 MLOAD PUSH32 0x8C379A000000000000000000000000000000000000000000000000000000000 DUP2 MSTORE PUSH1 0x4 ADD PUSH2 0xAD7 SWAP1 PUSH2 0x1E37 JUMP JUMPDEST PUSH1 0x40 MLOAD DUP1 SWAP2 SUB SWAP1 REVERT JUMPDEST DUP3 DUP2 PUSH1 0x0 ADD PUSH1 0x0 PUSH2 0x100 EXP DUP2 SLOAD DUP2 PUSH20 0xFFFFFFFFFFFFFFFFFFFFFFFFFFFFFFFFFFFFFFFF MUL NOT AND SWAP1 DUP4 PUSH20 0xFFFFFFFFFFFFFFFFFFFFFFFFFFFFFFFFFFFFFFFF AND MUL OR SWAP1 SSTORE POP PUSH1 0x1 DUP2 PUSH1 0x0 ADD PUSH1 0x14 PUSH2 0x100 EXP DUP2 SLOAD DUP2 PUSH1 0xFF MUL NOT AND SWAP1 DUP4 PUSH1 0x3 DUP2 GT ISZERO PUSH2 0xB4B JUMPI PUSH2 0xB4A PUSH2 0x1778 JUMP JUMPDEST JUMPDEST MUL OR SWAP1 SSTORE POP PUSH1 0x1 DUP2 PUSH1 0x5 ADD PUSH1 0x0 DUP3 DUP3 SLOAD PUSH2 0xB65 SWAP2 SWAP1 PUSH2 0x1CD0 JUMP JUMPDEST SWAP3 POP POP DUP2 SWAP1 SSTORE POP DUP3 PUSH20 0xFFFFFFFFFFFFFFFFFFFFFFFFFFFFFFFFFFFFFFFF AND CALLER PUSH20 0xFFFFFFFFFFFFFFFFFFFFFFFFFFFFFFFFFFFFFFFF AND DUP7 DUP7 PUSH1 0x40 MLOAD PUSH2 0xBAA SWAP3 SWAP2 SWAP1 PUSH2 0x1BB0 JUMP JUMPDEST PUSH1 0x40 MLOAD DUP1 SWAP2 SUB SWAP1 KECCAK256 PUSH32 0x8E01A30047398CF836AEDF6B5FFA5FCB54B140DB5F5F1C67537D719BB23D4D4C PUSH1 0x40 MLOAD PUSH1 0x40 MLOAD DUP1 SWAP2 SUB SWAP1 LOG4 DUP5 DUP5 PUSH1 0x40 MLOAD PUSH2 0xBEE SWAP3 SWAP2 SWAP1 PUSH2 0x1BB0 JUMP JUMPDEST PUSH1 0x40 MLOAD DUP1 SWAP2 SUB SWAP1 KECCAK256 PUSH32 0x45BFD85E9C912CDD9F6ADEAAE3ED2883A67D05A538E4FDE98B22C284F0078C66 DUP3 PUSH1 0x0 ADD PUSH1 0x14 SWAP1 SLOAD SWAP1 PUSH2 0x100 EXP SWAP1 DIV PUSH1 0xFF AND PUSH1 0x40 MLOAD PUSH2 0xC36 SWAP2 SWAP1 PUSH2 0x1D04 JUMP JUMPDEST PUSH1 0x40 MLOAD DUP1 SWAP2 SUB SWAP1 LOG2 POP POP POP POP POP JUMP JUMPDEST PUSH1 0x0 DUP1 PUSH1 0x0 DUP5 DUP2 MSTORE PUSH1 0x20 ADD SWAP1 DUP2 MSTORE PUSH1 0x20 ADD PUSH1 0x0 KECCAK256 PUSH1 0x0 ADD PUSH1 0x0 DUP4 PUSH20 0xFFFFFFFFFFFFFFFFFFFFFFFFFFFFFFFFFFFFFFFF AND PUSH20 0xFFFFFFFFFFFFFFFFFFFFFFFFFFFFFFFFFFFFFFFF AND DUP2 MSTORE PUSH1 0x20 ADD SWAP1 DUP2 MSTORE PUSH1 0x20 ADD PUSH1 0x0 KECCAK256 PUSH1 0x0 SWAP1 SLOAD SWAP1 PUSH2 0x100 EXP SWAP1 DIV PUSH1 0xFF AND SWAP1 POP SWAP3 SWAP2 POP POP JUMP JUMPDEST PUSH1 0x0 DUP1 SHL DUP2 JUMP JUMPDEST PUSH32 0x91A89345C1A9FAE222ED2CD495C788DEA0A507C0332F6B4B33FC1661B781BB9E DUP2 JUMP JUMPDEST PUSH32 0xDDFD3036E1EB6A4AF67BA89B65B13A4C179E1FFBF33AC5F3C45EF9007B2CFC0F PUSH2 0xD04 DUP2 PUSH2 0x1317 JUMP JUMPDEST PUSH1 0x0 PUSH1 0x1 DUP12 DUP12 PUSH1 0x40 MLOAD PUSH2 0xD18 SWAP3 SWAP2 SWAP1 PUSH2 0x1BB0 JUMP JUMPDEST SWAP1 DUP2 MSTORE PUSH1 0x20 ADD PUSH1 0x40 MLOAD DUP1 SWAP2 SUB SWAP1 KECCAK256 PUSH1 0x5 ADD SLOAD EQ PUSH2 0xD6A JUMPI PUSH1 0x40 MLOAD PUSH32 0x8C379A000000000000000000000000000000000000000000000000000000000 DUP2 MSTORE PUSH1 0x4 ADD PUSH2 0xD61 SWAP1 PUSH2 0x1EA3 JUMP JUMPDEST PUSH1 0x40 MLOAD DUP1 SWAP2 SUB SWAP1 REVERT JUMPDEST PUSH1 0x40 MLOAD DUP1 PUSH1 0xE0 ADD PUSH1 0x40 MSTORE DUP1 CALLER PUSH20 0xFFFFFFFFFFFFFFFFFFFFFFFFFFFFFFFFFFFFFFFF AND DUP2 MSTORE PUSH1 0x20 ADD PUSH1 0x0 PUSH1 0x3 DUP2 GT ISZERO PUSH2 0xDA5 JUMPI PUSH2 0xDA4 PUSH2 0x1778 JUMP JUMPDEST JUMPDEST DUP2 MSTORE PUSH1 0x20 ADD DUP10 DUP10 DUP1 DUP1 PUSH1 0x1F ADD PUSH1 0x20 DUP1 SWAP2 DIV MUL PUSH1 0x20 ADD PUSH1 0x40 MLOAD SWAP1 DUP2 ADD PUSH1 0x40 MSTORE DUP1 SWAP4 SWAP3 SWAP2 SWAP1 DUP2 DUP2 MSTORE PUSH1 0x20 ADD DUP4 DUP4 DUP1 DUP3 DUP5 CALLDATACOPY PUSH1 0x0 DUP2 DUP5 ADD MSTORE PUSH1 0x1F NOT PUSH1 0x1F DUP3 ADD AND SWAP1 POP DUP1 DUP4 ADD SWAP3 POP POP POP POP POP POP POP DUP2 MSTORE PUSH1 0x20 ADD DUP8 DUP8 DUP1 DUP1 PUSH1 0x1F ADD PUSH1 0x20 DUP1 SWAP2 DIV MUL PUSH1 0x20 ADD PUSH1 0x40 MLOAD SWAP1 DUP2 ADD PUSH1 0x40 MSTORE DUP1 SWAP4 SWAP3 SWAP2 SWAP1 DUP2 DUP2 MSTORE PUSH1 0x20 ADD DUP4 DUP4 DUP1 DUP3 DUP5 CALLDATACOPY PUSH1 0x0 DUP2 DUP5 ADD MSTORE PUSH1 0x1F NOT PUSH1 0x1F DUP3 ADD AND SWAP1 POP DUP1 DUP4 ADD SWAP3 POP POP POP POP POP POP POP DUP2 MSTORE PUSH1 0x20 ADD DUP6 DUP2 MSTORE PUSH1 0x20 ADD DUP5 DUP5 DUP1 DUP1 PUSH1 0x1F ADD PUSH1 0x20 DUP1 SWAP2 DIV MUL PUSH1 0x20 ADD PUSH1 0x40 MLOAD SWAP1 DUP2 ADD PUSH1 0x40 MSTORE DUP1 SWAP4 SWAP3 SWAP2 SWAP1 DUP2 DUP2 MSTORE PUSH1 0x20 ADD DUP4 DUP4 DUP1 DUP3 DUP5 CALLDATACOPY PUSH1 0x0 DUP2 DUP5 ADD MSTORE PUSH1 0x1F NOT PUSH1 0x1F DUP3 ADD AND SWAP1 POP DUP1 DUP4 ADD SWAP3 POP POP POP POP POP POP POP DUP2 MSTORE PUSH1 0x20 ADD PUSH1 0x1 DUP2 MSTORE POP PUSH1 0x1 DUP12 DUP12 PUSH1 0x40 MLOAD PUSH2 0xEA5 SWAP3 SWAP2 SWAP1 PUSH2 0x1BB0 JUMP JUMPDEST SWAP1 DUP2 MSTORE PUSH1 0x20 ADD PUSH1 0x40 MLOAD DUP1 SWAP2 SUB SWAP1 KECCAK256 PUSH1 0x0 DUP3 ADD MLOAD DUP2 PUSH1 0x0 ADD PUSH1 0x0 PUSH2 0x100 EXP DUP2 SLOAD DUP2 PUSH20 0xFFFFFFFFFFFFFFFFFFFFFFFFFFFFFFFFFFFFFFFF MUL NOT AND SWAP1 DUP4 PUSH20 0xFFFFFFFFFFFFFFFFFFFFFFFFFFFFFFFFFFFFFFFF AND MUL OR SWAP1 SSTORE POP PUSH1 0x20 DUP3 ADD MLOAD DUP2 PUSH1 0x0 ADD PUSH1 0x14 PUSH2 0x100 EXP DUP2 SLOAD DUP2 PUSH1 0xFF MUL NOT AND SWAP1 DUP4 PUSH1 0x3 DUP2 GT ISZERO PUSH2 0xF25 JUMPI PUSH2 0xF24 PUSH2 0x1778 JUMP JUMPDEST JUMPDEST MUL OR SWAP1 SSTORE POP PUSH1 0x40 DUP3 ADD MLOAD DUP2 PUSH1 0x1 ADD SWAP1 DUP2 PUSH2 0xF3F SWAP2 SWAP1 PUSH2 0x209E JUMP JUMPDEST POP PUSH1 0x60 DUP3 ADD MLOAD DUP2 PUSH1 0x2 ADD SWAP1 DUP2 PUSH2 0xF55 SWAP2 SWAP1 PUSH2 0x209E JUMP JUMPDEST POP PUSH1 0x80 DUP3 ADD MLOAD DUP2 PUSH1 0x3 ADD SSTORE PUSH1 0xA0 DUP3 ADD MLOAD DUP2 PUSH1 0x4 ADD SWAP1 DUP2 PUSH2 0xF75 SWAP2 SWAP1 PUSH2 0x209E JUMP JUMPDEST POP PUSH1 0xC0 DUP3 ADD MLOAD DUP2 PUSH1 0x5 ADD SSTORE SWAP1 POP POP CALLER PUSH20 0xFFFFFFFFFFFFFFFFFFFFFFFFFFFFFFFFFFFFFFFF AND DUP11 DUP11 PUSH1 0x40 MLOAD PUSH2 0xFAA SWAP3 SWAP2 SWAP1 PUSH2 0x1BB0 JUMP JUMPDEST PUSH1 0x40 MLOAD DUP1 SWAP2 SUB SWAP1 KECCAK256 PUSH32 0xDB4E8A6F69DAA6B4B9977ED734B510ED9B7CE86536C87435BFD7EF57968D05EE PUSH1 0x40 MLOAD PUSH1 0x40 MLOAD DUP1 SWAP2 SUB SWAP1 LOG3 POP POP POP POP POP POP POP POP POP POP JUMP JUMPDEST PUSH32 0x7C2D301983A60156B882648BF1C7210B103E1D4715BA229E6182E4F8ECD987BE DUP2 JUMP JUMPDEST PUSH2 0x1017 DUP3 PUSH2 0x868 JUMP JUMPDEST PUSH2 0x1020 DUP2 PUSH2 0x1317 JUMP JUMPDEST PUSH2 0x102A DUP4 DUP4 PUSH2 0x1424 JUMP JUMPDEST POP POP POP POP JUMP JUMPDEST PUSH32 0x7C2D301983A60156B882648BF1C7210B103E1D4715BA229E6182E4F8ECD987BE PUSH2 0x105A DUP2 PUSH2 0x1317 JUMP JUMPDEST PUSH1 0x0 PUSH1 0x1 DUP5 DUP5 PUSH1 0x40 MLOAD PUSH2 0x106E SWAP3 SWAP2 SWAP1 PUSH2 0x1BB0 JUMP JUMPDEST SWAP1 DUP2 MSTORE PUSH1 0x20 ADD PUSH1 0x40 MLOAD DUP1 SWAP2 SUB SWAP1 KECCAK256 SWAP1 POP CALLER PUSH20 0xFFFFFFFFFFFFFFFFFFFFFFFFFFFFFFFFFFFFFFFF AND DUP2 PUSH1 0x0 ADD PUSH1 0x0 SWAP1 SLOAD SWAP1 PUSH2 0x100 EXP SWAP1 DIV PUSH20 0xFFFFFFFFFFFFFFFFFFFFFFFFFFFFFFFFFFFFFFFF AND PUSH20 0xFFFFFFFFFFFFFFFFFFFFFFFFFFFFFFFFFFFFFFFF AND EQ PUSH2 0x1110 JUMPI PUSH1 0x40 MLOAD PUSH32 0x8C379A000000000000000000000000000000000000000000000000000000000 DUP2 MSTORE PUSH1 0x4 ADD PUSH2 0x1107 SWAP1 PUSH2 0x21BC JUMP JUMPDEST PUSH1 0x40 MLOAD DUP1 SWAP2 SUB SWAP1 REVERT JUMPDEST PUSH1 0x1 PUSH1 0x3 DUP2 GT ISZERO PUSH2 0x1124 JUMPI PUSH2 0x1123 PUSH2 0x1778 JUMP JUMPDEST JUMPDEST DUP2 PUSH1 0x0 ADD PUSH1 0x14 SWAP1 SLOAD SWAP1 PUSH2 0x100 EXP SWAP1 DIV PUSH1 0xFF AND PUSH1 0x3 DUP2 GT ISZERO PUSH2 0x1148 JUMPI PUSH2 0x1147 PUSH2 0x1778 JUMP JUMPDEST JUMPDEST EQ PUSH2 0x1188 JUMPI PUSH1 0x40 MLOAD PUSH32 0x8C379A000000000000000000000000000000000000000000000000000000000 DUP2 MSTORE PUSH1 0x4 ADD PUSH2 0x117F SWAP1 PUSH2 0x21BC JUMP JUMPDEST PUSH1 0x40 MLOAD DUP1 SWAP2 SUB SWAP1 REVERT JUMPDEST PUSH1 0x2 DUP2 PUSH1 0x0 ADD PUSH1 0x14 PUSH2 0x100 EXP DUP2 SLOAD DUP2 PUSH1 0xFF MUL NOT AND SWAP1 DUP4 PUSH1 0x3 DUP2 GT ISZERO PUSH2 0x11B0 JUMPI PUSH2 0x11AF PUSH2 0x1778 JUMP JUMPDEST JUMPDEST MUL OR SWAP1 SSTORE POP PUSH1 0x1 DUP2 PUSH1 0x5 ADD PUSH1 0x0 DUP3 DUP3 SLOAD PUSH2 0x11CA SWAP2 SWAP1 PUSH2 0x1CD0 JUMP JUMPDEST SWAP3 POP POP DUP2 SWAP1 SSTORE POP DUP4 DUP4 PUSH1 0x40 MLOAD PUSH2 0x11E1 SWAP3 SWAP2 SWAP1 PUSH2 0x1BB0 JUMP JUMPDEST PUSH1 0x40 MLOAD DUP1 SWAP2 SUB SWAP1 KECCAK256 PUSH32 0x45BFD85E9C912CDD9F6ADEAAE3ED2883A67D05A538E4FDE98B22C284F0078C66 DUP3 PUSH1 0x0 ADD PUSH1 0x14 SWAP1 SLOAD SWAP1 PUSH2 0x100 EXP SWAP1 DIV PUSH1 0xFF AND PUSH1 0x40 MLOAD PUSH2 0x1229 SWAP2 SWAP1 PUSH2 0x1D04 JUMP JUMPDEST PUSH1 0x40 MLOAD DUP1 SWAP2 SUB SWAP1 LOG2 POP POP POP POP JUMP JUMPDEST PUSH1 0x0 DUP1 SHL PUSH2 0x1244 DUP2 PUSH2 0x1317 JUMP JUMPDEST PUSH2 0x126E PUSH32 0x91A89345C1A9FAE222ED2CD495C788DEA0A507C0332F6B4B33FC1661B781BB9E DUP4 PUSH2 0x887 JUMP JUMPDEST POP POP JUMP JUMPDEST PUSH1 0x0 DUP1 SHL PUSH2 0x127F DUP2 PUSH2 0x1317 JUMP JUMPDEST PUSH2 0x12A9 PUSH32 0x7C2D301983A60156B882648BF1C7210B103E1D4715BA229E6182E4F8ECD987BE DUP4 PUSH2 0x887 JUMP JUMPDEST POP POP JUMP JUMPDEST PUSH1 0x0 PUSH32 0x1FFC9A700000000000000000000000000000000000000000000000000000000 PUSH28 0xFFFFFFFFFFFFFFFFFFFFFFFFFFFFFFFFFFFFFFFFFFFFFFFFFFFFFFFF NOT AND DUP3 PUSH28 0xFFFFFFFFFFFFFFFFFFFFFFFFFFFFFFFFFFFFFFFFFFFFFFFFFFFFFFFF NOT AND EQ SWAP1 POP SWAP2 SWAP1 POP JUMP JUMPDEST PUSH2 0x1328 DUP2 PUSH2 0x1323 PUSH2 0x141C JUMP JUMPDEST PUSH2 0x1516 JUMP JUMPDEST POP JUMP JUMPDEST PUSH1 0x0 PUSH2 0x1337 DUP4 DUP4 PUSH2 0xC45 JUMP JUMPDEST PUSH2 0x1411 JUMPI PUSH1 0x1 PUSH1 0x0 DUP1 DUP6 DUP2 MSTORE PUSH1 0x20 ADD SWAP1 DUP2 MSTORE PUSH1 0x20 ADD PUSH1 0x0 KECCAK256 PUSH1 0x0 ADD PUSH1 0x0 DUP5 PUSH20 0xFFFFFFFFFFFFFFFFFFFFFFFFFFFFFFFFFFFFFFFF AND PUSH20 0xFFFFFFFFFFFFFFFFFFFFFFFFFFFFFFFFFFFFFFFF AND DUP2 MSTORE PUSH1 0x20 ADD SWAP1 DUP2 MSTORE PUSH1 0x20 ADD PUSH1 0x0 KECCAK256 PUSH1 0x0 PUSH2 0x100 EXP DUP2 SLOAD DUP2 PUSH1 0xFF MUL NOT AND SWAP1 DUP4 ISZERO ISZERO MUL OR SWAP1 SSTORE POP PUSH2 0x13AE PUSH2 0x141C JUMP JUMPDEST PUSH20 0xFFFFFFFFFFFFFFFFFFFFFFFFFFFFFFFFFFFFFFFF AND DUP3 PUSH20 0xFFFFFFFFFFFFFFFFFFFFFFFFFFFFFFFFFFFFFFFF AND DUP5 PUSH32 0x2F8788117E7EFF1D82E926EC794901D17C78024A50270940304540A733656F0D PUSH1 0x40 MLOAD PUSH1 0x40 MLOAD DUP1 SWAP2 SUB SWAP1 LOG4 PUSH1 0x1 SWAP1 POP PUSH2 0x1416 JUMP JUMPDEST PUSH1 0x0 SWAP1 POP JUMPDEST SWAP3 SWAP2 POP POP JUMP JUMPDEST PUSH1 0x0 CALLER SWAP1 POP SWAP1 JUMP JUMPDEST PUSH1 0x0 PUSH2 0x1430 DUP4 DUP4 PUSH2 0xC45 JUMP JUMPDEST ISZERO PUSH2 0x150B JUMPI PUSH1 0x0 DUP1 PUSH1 0x0 DUP6 DUP2 MSTORE PUSH1 0x20 ADD SWAP1 DUP2 MSTORE PUSH1 0x20 ADD PUSH1 0x0 KECCAK256 PUSH1 0x0 ADD PUSH1 0x0 DUP5 PUSH20 0xFFFFFFFFFFFFFFFFFFFFFFFFFFFFFFFFFFFFFFFF AND PUSH20 0xFFFFFFFFFFFFFFFFFFFFFFFFFFFFFFFFFFFFFFFF AND DUP2 MSTORE PUSH1 0x20 ADD SWAP1 DUP2 MSTORE PUSH1 0x20 ADD PUSH1 0x0 KECCAK256 PUSH1 0x0 PUSH2 0x100 EXP DUP2 SLOAD DUP2 PUSH1 0xFF MUL NOT AND SWAP1 DUP4 ISZERO ISZERO MUL OR SWAP1 SSTORE POP PUSH2 0x14A8 PUSH2 0x141C JUMP JUMPDEST PUSH20 0xFFFFFFFFFFFFFFFFFFFFFFFFFFFFFFFFFFFFFFFF AND DUP3 PUSH20 0xFFFFFFFFFFFFFFFFFFFFFFFFFFFFFFFFFFFFFFFF AND DUP5 PUSH32 0xF6391F5C32D9C69D2A47EA670B442974B53935D1EDC7FD64EB21E047A839171B PUSH1 0x40 MLOAD PUSH1 0x40 MLOAD DUP1 SWAP2 SUB SWAP1 LOG4 PUSH1 0x1 SWAP1 POP PUSH2 0x1510 JUMP JUMPDEST PUSH1 0x0 SWAP1 POP JUMPDEST SWAP3 SWAP2 POP POP JUMP JUMPDEST PUSH2 0x1520 DUP3 DUP3 PUSH2 0xC45 JUMP JUMPDEST PUSH2 0x1563 JUMPI DUP1 DUP3 PUSH1 0x40 MLOAD PUSH32 0xE2517D3F00000000000000000000000000000000000000000000000000000000 DUP2 MSTORE PUSH1 0x4 ADD PUSH2 0x155A SWAP3 SWAP2 SWAP1 PUSH2 0x21DC JUMP JUMPDEST PUSH1 0x40 MLOAD DUP1 SWAP2 SUB SWAP1 REVERT JUMPDEST POP POP JUMP JUMPDEST PUSH1 0x0 DUP1 REVERT JUMPDEST PUSH1 0x0 DUP1 REVERT JUMPDEST PUSH1 0x0 PUSH32 0xFFFFFFFF00000000000000000000000000000000000000000000000000000000 DUP3 AND SWAP1 POP SWAP2 SWAP1 POP JUMP JUMPDEST PUSH2 0x15A6 DUP2 PUSH2 0x1571 JUMP JUMPDEST DUP2 EQ PUSH2 0x15B1 JUMPI PUSH1 0x0 DUP1 REVERT JUMPDEST POP JUMP JUMPDEST PUSH1 0x0 DUP2 CALLDATALOAD SWAP1 POP PUSH2 0x15C3 DUP2 PUSH2 0x159D JUMP JUMPDEST SWAP3 SWAP2 POP POP JUMP JUMPDEST PUSH1 0x0 PUSH1 0x20 DUP3 DUP5 SUB SLT ISZERO PUSH2 0x15DF JUMPI PUSH2 0x15DE PUSH2 0x1567 JUMP JUMPDEST JUMPDEST PUSH1 0x0 PUSH2 0x15ED DUP5 DUP3 DUP6 ADD PUSH2 0x15B4 JUMP JUMPDEST SWAP2 POP POP SWAP3 SWAP2 POP POP JUMP JUMPDEST PUSH1 0x0 DUP2 ISZERO ISZERO SWAP1 POP SWAP2 SWAP1 POP JUMP JUMPDEST PUSH2 0x160B DUP2 PUSH2 0x15F6 JUMP JUMPDEST DUP3 MSTORE POP POP JUMP JUMPDEST PUSH1 0x0 PUSH1 0x20 DUP3 ADD SWAP1 POP PUSH2 0x1626 PUSH1 0x0 DUP4 ADD DUP5 PUSH2 0x1602 JUMP JUMPDEST SWAP3 SWAP2 POP POP JUMP JUMPDEST PUSH1 0x0 PUSH20 0xFFFFFFFFFFFFFFFFFFFFFFFFFFFFFFFFFFFFFFFF DUP3 AND SWAP1 POP SWAP2 SWAP1 POP JUMP JUMPDEST PUSH1 0x0 PUSH2 0x1657 DUP3 PUSH2 0x162C JUMP JUMPDEST SWAP1 POP SWAP2 SWAP1 POP JUMP JUMPDEST PUSH2 0x1667 DUP2 PUSH2 0x164C JUMP JUMPDEST DUP2 EQ PUSH2 0x1672 JUMPI PUSH1 0x0 DUP1 REVERT JUMPDEST POP JUMP JUMPDEST PUSH1 0x0 DUP2 CALLDATALOAD SWAP1 POP PUSH2 0x1684 DUP2 PUSH2 0x165E JUMP JUMPDEST SWAP3 SWAP2 POP POP JUMP JUMPDEST PUSH1 0x0 PUSH1 0x20 DUP3 DUP5 SUB SLT ISZERO PUSH2 0x16A0 JUMPI PUSH2 0x169F PUSH2 0x1567 JUMP JUMPDEST JUMPDEST PUSH1 0x0 PUSH2 0x16AE DUP5 DUP3 DUP6 ADD PUSH2 0x1675 JUMP JUMPDEST SWAP2 POP POP SWAP3 SWAP2 POP POP JUMP JUMPDEST PUSH1 0x0 DUP1 REVERT JUMPDEST PUSH1 0x0 DUP1 REVERT JUMPDEST PUSH1 0x0 DUP1 REVERT JUMPDEST PUSH1 0x0 DUP1 DUP4 PUSH1 0x1F DUP5 ADD SLT PUSH2 0x16DC JUMPI PUSH2 0x16DB PUSH2 0x16B7 JUMP JUMPDEST JUMPDEST DUP3 CALLDATALOAD SWAP1 POP PUSH8 0xFFFFFFFFFFFFFFFF DUP2 GT ISZERO PUSH2 0x16F9 JUMPI PUSH2 0x16F8 PUSH2 0x16BC JUMP JUMPDEST JUMPDEST PUSH1 0x20 DUP4 ADD SWAP2 POP DUP4 PUSH1 0x1 DUP3 MUL DUP4 ADD GT ISZERO PUSH2 0x1715 JUMPI PUSH2 0x1714 PUSH2 0x16C1 JUMP JUMPDEST JUMPDEST SWAP3 POP SWAP3 SWAP1 POP JUMP JUMPDEST PUSH1 0x0 DUP1 PUSH1 0x20 DUP4 DUP6 SUB SLT ISZERO PUSH2 0x1733 JUMPI PUSH2 0x1732 PUSH2 0x1567 JUMP JUMPDEST JUMPDEST PUSH1 0x0 DUP4 ADD CALLDATALOAD PUSH8 0xFFFFFFFFFFFFFFFF DUP2 GT ISZERO PUSH2 0x1751 JUMPI PUSH2 0x1750 PUSH2 0x156C JUMP JUMPDEST JUMPDEST PUSH2 0x175D DUP6 DUP3 DUP7 ADD PUSH2 0x16C6 JUMP JUMPDEST SWAP3 POP SWAP3 POP POP SWAP3 POP SWAP3 SWAP1 POP JUMP JUMPDEST PUSH2 0x1772 DUP2 PUSH2 0x164C JUMP JUMPDEST DUP3 MSTORE POP POP JUMP JUMPDEST PUSH32 0x4E487B7100000000000000000000000000000000000000000000000000000000 PUSH1 0x0 MSTORE PUSH1 0x21 PUSH1 0x4 MSTORE PUSH1 0x24 PUSH1 0x0 REVERT JUMPDEST PUSH1 0x4 DUP2 LT PUSH2 0x17B8 JUMPI PUSH2 0x17B7 PUSH2 0x1778 JUMP JUMPDEST JUMPDEST POP JUMP JUMPDEST PUSH1 0x0 DUP2 SWAP1 POP PUSH2 0x17C9 DUP3 PUSH2 0x17A7 JUMP JUMPDEST SWAP2 SWAP1 POP JUMP JUMPDEST PUSH1 0x0 PUSH2 0x17D9 DUP3 PUSH2 0x17BB JUMP JUMPDEST SWAP1 POP SWAP2 SWAP1 POP JUMP JUMPDEST PUSH2 0x17E9 DUP2 PUSH2 0x17CE JUMP JUMPDEST DUP3 MSTORE POP POP JUMP JUMPDEST PUSH1 0x0 DUP2 MLOAD SWAP1 POP SWAP2 SWAP1 POP JUMP JUMPDEST PUSH1 0x0 DUP3 DUP3 MSTORE PUSH1 0x20 DUP3 ADD SWAP1 POP SWAP3 SWAP2 POP POP JUMP JUMPDEST PUSH1 0x0 JUMPDEST DUP4 DUP2 LT ISZERO PUSH2 0x1829 JUMPI DUP1 DUP3 ADD MLOAD DUP2 DUP5 ADD MSTORE PUSH1 0x20 DUP2 ADD SWAP1 POP PUSH2 0x180E JUMP JUMPDEST PUSH1 0x0 DUP5 DUP5 ADD MSTORE POP POP POP POP JUMP JUMPDEST PUSH1 0x0 PUSH1 0x1F NOT PUSH1 0x1F DUP4 ADD AND SWAP1 POP SWAP2 SWAP1 POP JUMP JUMPDEST PUSH1 0x0 PUSH2 0x1851 DUP3 PUSH2 0x17EF JUMP JUMPDEST PUSH2 0x185B DUP2 DUP6 PUSH2 0x17FA JUMP JUMPDEST SWAP4 POP PUSH2 0x186B DUP2 DUP6 PUSH1 0x20 DUP7 ADD PUSH2 0x180B JUMP JUMPDEST PUSH2 0x1874 DUP2 PUSH2 0x1835 JUMP JUMPDEST DUP5 ADD SWAP2 POP POP SWAP3 SWAP2 POP POP JUMP JUMPDEST PUSH1 0x0 DUP2 SWAP1 POP SWAP2 SWAP1 POP JUMP JUMPDEST PUSH2 0x1892 DUP2 PUSH2 0x187F JUMP JUMPDEST DUP3 MSTORE POP POP JUMP JUMPDEST PUSH1 0x0 PUSH1 0xE0 DUP3 ADD SWAP1 POP PUSH2 0x18AD PUSH1 0x0 DUP4 ADD DUP11 PUSH2 0x1769 JUMP JUMPDEST PUSH2 0x18BA PUSH1 0x20 DUP4 ADD DUP10 PUSH2 0x17E0 JUMP JUMPDEST DUP2 DUP2 SUB PUSH1 0x40 DUP4 ADD MSTORE PUSH2 0x18CC DUP2 DUP9 PUSH2 0x1846 JUMP JUMPDEST SWAP1 POP DUP2 DUP2 SUB PUSH1 0x60 DUP4 ADD MSTORE PUSH2 0x18E0 DUP2 DUP8 PUSH2 0x1846 JUMP JUMPDEST SWAP1 POP PUSH2 0x18EF PUSH1 0x80 DUP4 ADD DUP7 PUSH2 0x1889 JUMP JUMPDEST DUP2 DUP2 SUB PUSH1 0xA0 DUP4 ADD MSTORE PUSH2 0x1901 DUP2 DUP6 PUSH2 0x1846 JUMP JUMPDEST SWAP1 POP PUSH2 0x1910 PUSH1 0xC0 DUP4 ADD DUP5 PUSH2 0x1889 JUMP JUMPDEST SWAP9 SWAP8 POP POP POP POP POP POP POP POP JUMP JUMPDEST PUSH1 0x0 DUP2 SWAP1 POP SWAP2 SWAP1 POP JUMP JUMPDEST PUSH2 0x192F DUP2 PUSH2 0x191C JUMP JUMPDEST DUP2 EQ PUSH2 0x193A JUMPI PUSH1 0x0 DUP1 REVERT JUMPDEST POP JUMP JUMPDEST PUSH1 0x0 DUP2 CALLDATALOAD SWAP1 POP PUSH2 0x194C DUP2 PUSH2 0x1926 JUMP JUMPDEST SWAP3 SWAP2 POP POP JUMP JUMPDEST PUSH1 0x0 PUSH1 0x20 DUP3 DUP5 SUB SLT ISZERO PUSH2 0x1968 JUMPI PUSH2 0x1967 PUSH2 0x1567 JUMP JUMPDEST JUMPDEST PUSH1 0x0 PUSH2 0x1976 DUP5 DUP3 DUP6 ADD PUSH2 0x193D JUMP JUMPDEST SWAP2 POP POP SWAP3 SWAP2 POP POP JUMP JUMPDEST PUSH2 0x1988 DUP2 PUSH2 0x191C JUMP JUMPDEST DUP3 MSTORE POP POP JUMP JUMPDEST PUSH1 0x0 PUSH1 0x20 DUP3 ADD SWAP1 POP PUSH2 0x19A3 PUSH1 0x0 DUP4 ADD DUP5 PUSH2 0x197F JUMP JUMPDEST SWAP3 SWAP2 POP POP JUMP JUMPDEST PUSH1 0x0 DUP1 PUSH1 0x40 DUP4 DUP6 SUB SLT ISZERO PUSH2 0x19C0 JUMPI PUSH2 0x19BF PUSH2 0x1567 JUMP JUMPDEST JUMPDEST PUSH1 0x0 PUSH2 0x19CE DUP6 DUP3 DUP7 ADD PUSH2 0x193D JUMP JUMPDEST SWAP3 POP POP PUSH1 0x20 PUSH2 0x19DF DUP6 DUP3 DUP7 ADD PUSH2 0x1675 JUMP JUMPDEST SWAP2 POP POP SWAP3 POP SWAP3 SWAP1 POP JUMP JUMPDEST PUSH1 0x0 DUP1 PUSH1 0x0 PUSH1 0x40 DUP5 DUP7 SUB SLT ISZERO PUSH2 0x1A02 JUMPI PUSH2 0x1A01 PUSH2 0x1567 JUMP JUMPDEST JUMPDEST PUSH1 0x0 DUP5 ADD CALLDATALOAD PUSH8 0xFFFFFFFFFFFFFFFF DUP2 GT ISZERO PUSH2 0x1A20 JUMPI PUSH2 0x1A1F PUSH2 0x156C JUMP JUMPDEST JUMPDEST PUSH2 0x1A2C DUP7 DUP3 DUP8 ADD PUSH2 0x16C6 JUMP JUMPDEST SWAP4 POP SWAP4 POP POP PUSH1 0x20 PUSH2 0x1A3F DUP7 DUP3 DUP8 ADD PUSH2 0x1675 JUMP JUMPDEST SWAP2 POP POP SWAP3 POP SWAP3 POP SWAP3 JUMP JUMPDEST PUSH2 0x1A52 DUP2 PUSH2 0x187F JUMP JUMPDEST DUP2 EQ PUSH2 0x1A5D JUMPI PUSH1 0x0 DUP1 REVERT JUMPDEST POP JUMP JUMPDEST PUSH1 0x0 DUP2 CALLDATALOAD SWAP1 POP PUSH2 0x1A6F DUP2 PUSH2 0x1A49 JUMP JUMPDEST SWAP3 SWAP2 POP POP JUMP JUMPDEST PUSH1 0x0 DUP1 PUSH1 0x0 DUP1 PUSH1 0x0 DUP1 PUSH1 0x0 DUP1 PUSH1 0x0 PUSH1 0xA0 DUP11 DUP13 SUB SLT ISZERO PUSH2 0x1A97 JUMPI PUSH2 0x1A96 PUSH2 0x1567 JUMP JUMPDEST JUMPDEST PUSH1 0x0 DUP11 ADD CALLDATALOAD PUSH8 0xFFFFFFFFFFFFFFFF DUP2 GT ISZERO PUSH2 0x1AB5 JUMPI PUSH2 0x1AB4 PUSH2 0x156C JUMP JUMPDEST JUMPDEST PUSH2 0x1AC1 DUP13 DUP3 DUP14 ADD PUSH2 0x16C6 JUMP JUMPDEST SWAP10 POP SWAP10 POP POP PUSH1 0x20 DUP11 ADD CALLDATALOAD PUSH8 0xFFFFFFFFFFFFFFFF DUP2 GT ISZERO PUSH2 0x1AE4 JUMPI PUSH2 0x1AE3 PUSH2 0x156C JUMP JUMPDEST JUMPDEST PUSH2 0x1AF0 DUP13 DUP3 DUP14 ADD PUSH2 0x16C6 JUMP JUMPDEST SWAP8 POP SWAP8 POP POP PUSH1 0x40 DUP11 ADD CALLDATALOAD PUSH8 0xFFFFFFFFFFFFFFFF DUP2 GT ISZERO PUSH2 0x1B13 JUMPI PUSH2 0x1B12 PUSH2 0x156C JUMP JUMPDEST JUMPDEST PUSH2 0x1B1F DUP13 DUP3 DUP14 ADD PUSH2 0x16C6 JUMP JUMPDEST SWAP6 POP SWAP6 POP POP PUSH1 0x60 PUSH2 0x1B32 DUP13 DUP3 DUP14 ADD PUSH2 0x1A60 JUMP JUMPDEST SWAP4 POP POP PUSH1 0x80 DUP11 ADD CALLDATALOAD PUSH8 0xFFFFFFFFFFFFFFFF DUP2 GT ISZERO PUSH2 0x1B53 JUMPI PUSH2 0x1B52 PUSH2 0x156C JUMP JUMPDEST JUMPDEST PUSH2 0x1B5F DUP13 DUP3 DUP14 ADD PUSH2 0x16C6 JUMP JUMPDEST SWAP3 POP SWAP3 POP POP SWAP3 SWAP6 SWAP9 POP SWAP3 SWAP6 SWAP9 POP SWAP3 SWAP6 SWAP9 JUMP JUMPDEST PUSH1 0x0 DUP2 SWAP1 POP SWAP3 SWAP2 POP POP JUMP JUMPDEST DUP3 DUP2 DUP4 CALLDATACOPY PUSH1 0x0 DUP4 DUP4 ADD MSTORE POP POP POP JUMP JUMPDEST PUSH1 0x0 PUSH2 0x1B97 DUP4 DUP6 PUSH2 0x1B71 JUMP JUMPDEST SWAP4 POP PUSH2 0x1BA4 DUP4 DUP6 DUP5 PUSH2 0x1B7C JUMP JUMPDEST DUP3 DUP5 ADD SWAP1 POP SWAP4 SWAP3 POP POP POP JUMP JUMPDEST PUSH1 0x0 PUSH2 0x1BBD DUP3 DUP5 DUP7 PUSH2 0x1B8B JUMP JUMPDEST SWAP2 POP DUP2 SWAP1 POP SWAP4 SWAP3 POP POP POP JUMP JUMPDEST PUSH32 0x4D75737420626520646973706F73657200000000000000000000000000000000 PUSH1 0x0 DUP3 ADD MSTORE POP JUMP JUMPDEST PUSH1 0x0 PUSH2 0x1BFF PUSH1 0x10 DUP4 PUSH2 0x17FA JUMP JUMPDEST SWAP2 POP PUSH2 0x1C0A DUP3 PUSH2 0x1BC9 JUMP JUMPDEST PUSH1 0x20 DUP3 ADD SWAP1 POP SWAP2 SWAP1 POP JUMP JUMPDEST PUSH1 0x0 PUSH1 0x20 DUP3 ADD SWAP1 POP DUP2 DUP2 SUB PUSH1 0x0 DUP4 ADD MSTORE PUSH2 0x1C2E DUP2 PUSH2 0x1BF2 JUMP JUMPDEST SWAP1 POP SWAP2 SWAP1 POP JUMP JUMPDEST PUSH32 0x4E6F742064656C69766572656420796574000000000000000000000000000000 PUSH1 0x0 DUP3 ADD MSTORE POP JUMP JUMPDEST PUSH1 0x0 PUSH2 0x1C6B PUSH1 0x11 DUP4 PUSH2 0x17FA JUMP JUMPDEST SWAP2 POP PUSH2 0x1C76 DUP3 PUSH2 0x1C35 JUMP JUMPDEST PUSH1 0x20 DUP3 ADD SWAP1 POP SWAP2 SWAP1 POP JUMP JUMPDEST PUSH1 0x0 PUSH1 0x20 DUP3 ADD SWAP1 POP DUP2 DUP2 SUB PUSH1 0x0 DUP4 ADD MSTORE PUSH2 0x1C9A DUP2 PUSH2 0x1C5E JUMP JUMPDEST SWAP1 POP SWAP2 SWAP1 POP JUMP JUMPDEST PUSH32 0x4E487B7100000000000000000000000000000000000000000000000000000000 PUSH1 0x0 MSTORE PUSH1 0x11 PUSH1 0x4 MSTORE PUSH1 0x24 PUSH1 0x0 REVERT JUMPDEST PUSH1 0x0 PUSH2 0x1CDB DUP3 PUSH2 0x187F JUMP JUMPDEST SWAP2 POP PUSH2 0x1CE6 DUP4 PUSH2 0x187F JUMP JUMPDEST SWAP3 POP DUP3 DUP3 ADD SWAP1 POP DUP1 DUP3 GT ISZERO PUSH2 0x1CFE JUMPI PUSH2 0x1CFD PUSH2 0x1CA1 JUMP JUMPDEST JUMPDEST SWAP3 SWAP2 POP POP JUMP JUMPDEST PUSH1 0x0 PUSH1 0x20 DUP3 ADD SWAP1 POP PUSH2 0x1D19 PUSH1 0x0 DUP4 ADD DUP5 PUSH2 0x17E0 JUMP JUMPDEST SWAP3 SWAP2 POP POP JUMP JUMPDEST PUSH32 0x4E487B7100000000000000000000000000000000000000000000000000000000 PUSH1 0x0 MSTORE PUSH1 0x22 PUSH1 0x4 MSTORE PUSH1 0x24 PUSH1 0x0 REVERT JUMPDEST PUSH1 0x0 PUSH1 0x2 DUP3 DIV SWAP1 POP PUSH1 0x1 DUP3 AND DUP1 PUSH2 0x1D66 JUMPI PUSH1 0x7F DUP3 AND SWAP2 POP JUMPDEST PUSH1 0x20 DUP3 LT DUP2 SUB PUSH2 0x1D79 JUMPI PUSH2 0x1D78 PUSH2 0x1D1F JUMP JUMPDEST JUMPDEST POP SWAP2 SWAP1 POP JUMP JUMPDEST PUSH32 0x4E6F742063757272656E7420686F6C6465720000000000000000000000000000 PUSH1 0x0 DUP3 ADD MSTORE POP JUMP JUMPDEST PUSH1 0x0 PUSH2 0x1DB5 PUSH1 0x12 DUP4 PUSH2 0x17FA JUMP JUMPDEST SWAP2 POP PUSH2 0x1DC0 DUP3 PUSH2 0x1D7F JUMP JUMPDEST PUSH1 0x20 DUP3 ADD SWAP1 POP SWAP2 SWAP1 POP JUMP JUMPDEST PUSH1 0x0 PUSH1 0x20 DUP3 ADD SWAP1 POP DUP2 DUP2 SUB PUSH1 0x0 DUP4 ADD MSTORE PUSH2 0x1DE4 DUP2 PUSH2 0x1DA8 JUMP JUMPDEST SWAP1 POP SWAP2 SWAP1 POP JUMP JUMPDEST PUSH32 0x496E76616C696420737461747573000000000000000000000000000000000000 PUSH1 0x0 DUP3 ADD MSTORE POP JUMP JUMPDEST PUSH1 0x0 PUSH2 0x1E21 PUSH1 0xE DUP4 PUSH2 0x17FA JUMP JUMPDEST SWAP2 POP PUSH2 0x1E2C DUP3 PUSH2 0x1DEB JUMP JUMPDEST PUSH1 0x20 DUP3 ADD SWAP1 POP SWAP2 SWAP1 POP JUMP JUMPDEST PUSH1 0x0 PUSH1 0x20 DUP3 ADD SWAP1 POP DUP2 DUP2 SUB PUSH1 0x0 DUP4 ADD MSTORE PUSH2 0x1E50 DUP2 PUSH2 0x1E14 JUMP JUMPDEST SWAP1 POP SWAP2 SWAP1 POP JUMP JUMPDEST PUSH32 0x416C726561647920657869737473000000000000000000000000000000000000 PUSH1 0x0 DUP3 ADD MSTORE POP JUMP JUMPDEST PUSH1 0x0 PUSH2 0x1E8D PUSH1 0xE DUP4 PUSH2 0x17FA JUMP JUMPDEST SWAP2 POP PUSH2 0x1E98 DUP3 PUSH2 0x1E57 JUMP JUMPDEST PUSH1 0x20 DUP3 ADD SWAP1 POP SWAP2 SWAP1 POP JUMP JUMPDEST PUSH1 0x0 PUSH1 0x20 DUP3 ADD SWAP1 POP DUP2 DUP2 SUB PUSH1 0x0 DUP4 ADD MSTORE PUSH2 0x1EBC DUP2 PUSH2 0x1E80 JUMP JUMPDEST SWAP1 POP SWAP2 SWAP1 POP JUMP JUMPDEST PUSH32 0x4E487B7100000000000000000000000000000000000000000000000000000000 PUSH1 0x0 MSTORE PUSH1 0x41 PUSH1 0x4 MSTORE PUSH1 0x24 PUSH1 0x0 REVERT JUMPDEST PUSH1 0x0 DUP2 SWAP1 POP DUP2 PUSH1 0x0 MSTORE PUSH1 0x20 PUSH1 0x0 KECCAK256 SWAP1 POP SWAP2 SWAP1 POP JUMP JUMPDEST PUSH1 0x0 PUSH1 0x20 PUSH1 0x1F DUP4 ADD DIV SWAP1 POP SWAP2 SWAP1 POP JUMP JUMPDEST PUSH1 0x0 DUP3 DUP3 SHL SWAP1 POP SWAP3 SWAP2 POP POP JUMP JUMPDEST PUSH1 0x0 PUSH1 0x8 DUP4 MUL PUSH2 0x1F54 PUSH32 0xFFFFFFFFFFFFFFFFFFFFFFFFFFFFFFFFFFFFFFFFFFFFFFFFFFFFFFFFFFFFFFFF DUP3 PUSH2 0x1F17 JUMP JUMPDEST PUSH2 0x1F5E DUP7 DUP4 PUSH2 0x1F17 JUMP JUMPDEST SWAP6 POP DUP1 NOT DUP5 AND SWAP4 POP DUP1 DUP7 AND DUP5 OR SWAP3 POP POP POP SWAP4 SWAP3 POP POP POP JUMP JUMPDEST PUSH1 0x0 DUP2 SWAP1 POP SWAP2 SWAP1 POP JUMP JUMPDEST PUSH1 0x0 PUSH2 0x1F9B PUSH2 0x1F96 PUSH2 0x1F91 DUP5 PUSH2 0x187F JUMP JUMPDEST PUSH2 0x1F76 JUMP JUMPDEST PUSH2 0x187F JUMP JUMPDEST SWAP1 POP SWAP2 SWAP1 POP JUMP JUMPDEST PUSH1 0x0 DUP2 SWAP1 POP SWAP2 SWAP1 POP JUMP JUMPDEST PUSH2 0x1FB5 DUP4 PUSH2 0x1F80 JUMP JUMPDEST PUSH2 0x1FC9 PUSH2 0x1FC1 DUP3 PUSH2 0x1FA2 JUMP JUMPDEST DUP5 DUP5 SLOAD PUSH2 0x1F24 JUMP JUMPDEST DUP3 SSTORE POP POP POP POP JUMP JUMPDEST PUSH1 0x0 SWAP1 JUMP JUMPDEST PUSH2 0x1FDE PUSH2 0x1FD1 JUMP JUMPDEST PUSH2 0x1FE9 DUP2 DUP5 DUP5 PUSH2 0x1FAC JUMP JUMPDEST POP POP POP JUMP JUMPDEST JUMPDEST DUP2 DUP2 LT ISZERO PUSH2 0x200D JUMPI PUSH2 0x2002 PUSH1 0x0 DUP3 PUSH2 0x1FD6 JUMP JUMPDEST PUSH1 0x1 DUP2 ADD SWAP1 POP PUSH2 0x1FEF JUMP JUMPDEST POP POP JUMP JUMPDEST PUSH1 0x1F DUP3 GT ISZERO PUSH2 0x2052 JUMPI PUSH2 0x2023 DUP2 PUSH2 0x1EF2 JUMP JUMPDEST PUSH2 0x202C DUP5 PUSH2 0x1F07 JUMP JUMPDEST DUP2 ADD PUSH1 0x20 DUP6 LT ISZERO PUSH2 0x203B JUMPI DUP2 SWAP1 POP JUMPDEST PUSH2 0x204F PUSH2 0x2047 DUP6 PUSH2 0x1F07 JUMP JUMPDEST DUP4 ADD DUP3 PUSH2 0x1FEE JUMP JUMPDEST POP POP JUMPDEST POP POP POP JUMP JUMPDEST PUSH1 0x0 DUP3 DUP3 SHR SWAP1 POP SWAP3 SWAP2 POP POP JUMP JUMPDEST PUSH1 0x0 PUSH2 0x2075 PUSH1 0x0 NOT DUP5 PUSH1 0x8 MUL PUSH2 0x2057 JUMP JUMPDEST NOT DUP1 DUP4 AND SWAP2 POP POP SWAP3 SWAP2 POP POP JUMP JUMPDEST PUSH1 0x0 PUSH2 0x208E DUP4 DUP4 PUSH2 0x2064 JUMP JUMPDEST SWAP2 POP DUP3 PUSH1 0x2 MUL DUP3 OR SWAP1 POP SWAP3 SWAP2 POP POP JUMP JUMPDEST PUSH2 0x20A7 DUP3 PUSH2 0x17EF JUMP JUMPDEST PUSH8 0xFFFFFFFFFFFFFFFF DUP2 GT ISZERO PUSH2 0x20C0 JUMPI PUSH2 0x20BF PUSH2 0x1EC3 JUMP JUMPDEST JUMPDEST PUSH2 0x20CA DUP3 SLOAD PUSH2 0x1D4E JUMP JUMPDEST PUSH2 0x20D5 DUP3 DUP3 DUP6 PUSH2 0x2011 JUMP JUMPDEST PUSH1 0x0 PUSH1 0x20 SWAP1 POP PUSH1 0x1F DUP4 GT PUSH1 0x1 DUP2 EQ PUSH2 0x2108 JUMPI PUSH1 0x0 DUP5 ISZERO PUSH2 0x20F6 JUMPI DUP3 DUP8 ADD MLOAD SWAP1 POP JUMPDEST PUSH2 0x2100 DUP6 DUP3 PUSH2 0x2082 JUMP JUMPDEST DUP7 SSTORE POP PUSH2 0x2168 JUMP JUMPDEST PUSH1 0x1F NOT DUP5 AND PUSH2 0x2116 DUP7 PUSH2 0x1EF2 JUMP JUMPDEST PUSH1 0x0 JUMPDEST DUP3 DUP2 LT ISZERO PUSH2 0x213E JUMPI DUP5 DUP10 ADD MLOAD DUP3 SSTORE PUSH1 0x1 DUP3 ADD SWAP2 POP PUSH1 0x20 DUP6 ADD SWAP5 POP PUSH1 0x20 DUP2 ADD SWAP1 POP PUSH2 0x2119 JUMP JUMPDEST DUP7 DUP4 LT ISZERO PUSH2 0x215B JUMPI DUP5 DUP10 ADD MLOAD PUSH2 0x2157 PUSH1 0x1F DUP10 AND DUP3 PUSH2 0x2064 JUMP JUMPDEST DUP4 SSTORE POP JUMPDEST PUSH1 0x1 PUSH1 0x2 DUP9 MUL ADD DUP9 SSTORE POP POP POP JUMPDEST POP POP POP POP POP POP JUMP JUMPDEST PUSH32 0x4E6F7420696E207472616E736974000000000000000000000000000000000000 PUSH1 0x0 DUP3 ADD MSTORE POP JUMP JUMPDEST PUSH1 0x0 PUSH2 0x21A6 PUSH1 0xE DUP4 PUSH2 0x17FA JUMP JUMPDEST SWAP2 POP PUSH2 0x21B1 DUP3 PUSH2 0x2170 JUMP JUMPDEST PUSH1 0x20 DUP3 ADD SWAP1 POP SWAP2 SWAP1 POP JUMP JUMPDEST PUSH1 0x0 PUSH1 0x20 DUP3 ADD SWAP1 POP DUP2 DUP2 SUB PUSH1 0x0 DUP4 ADD MSTORE PUSH2 0x21D5 DUP2 PUSH2 0x2199 JUMP JUMPDEST SWAP1 POP SWAP2 SWAP1 POP JUMP JUMPDEST PUSH1 0x0 PUSH1 0x40 DUP3 ADD SWAP1 POP PUSH2 0x21F1 PUSH1 0x0 DUP4 ADD DUP6 PUSH2 0x1769 JUMP JUMPDEST PUSH2 0x21FE PUSH1 0x20 DUP4 ADD DUP5 PUSH2 0x197F JUMP JUMPDEST SWAP4 SWAP3 POP POP POP JUMP INVALID LOG2 PUSH5 0x6970667358 0x22 SLT KECCAK256 0xE0 0xF9 0xDB SIGNEXTEND 0xD9 COINBASE LOG0 0xE1 LOG3 PC SHL 0x21 DIV LOG4 DUP15 0x28 0xA5 0x1E PUSH17 0x2921D822CF05C22BECC1B7CC0164736F6C PUSH4 0x43000814 STOP CALLER "},"methodIdentifiers":{"DEFAULT_ADMIN_ROLE()":"a217fddf","DISPOSER()":"a8390915","GENERATOR()":"549dafd6","TRANSPORTER()":"ba1e5295","createWaste(string,string,string,uint256,string)":"b8be99cb","deliverWaste(string)":"d7255f6b","disposeWaste(string)":"203c5688","getRoleAdmin(bytes32)":"248a9ca3","getWaste(string)":"20c28504","grantRole(bytes32,address)":"2f2ff15d","hasRole(bytes32,address)":"91d14854","registerDisposer(address)":"e614a328","registerGenerator(address)":"1759e08c","registerTransporter(address)":"fa6d8c5f","renounceRole(bytes32,address)":"36568abe","revokeRole(bytes32,address)":"d547741f","supportsInterface(bytes4)":"01ffc9a7","transferWaste(string,address)":"600a991c"}}}}}