{"contracts/ChainCustody.sol":{"ChainCustody":{"abi":[{"anonymous":false,"inputs":[{"indexed":true,"internalType":"string","name":"id","type":"string"},{"indexed":true,"internalType":"address","name":"holder","type":"address"}],"name":"MaterialInitialized","type":"event"},{"anonymous":false,"inputs":[{"indexed":true,"internalType":"string","name":"id","type":"string"},{"indexed":true,"internalType":"address","name":"from","type":"address"},{"indexed":true,"internalType":"address","name":"to","type":"address"},{"indexed":false,"internalType":"uint256","name":"sequence","type":"uint256"}],"name":"MaterialTransferred","type":"event"},{"inputs":[{"internalType":"string","name":"_id","type":"string"}],"name":"getMaterial","outputs":[{"internalType":"address","name":"currentHolder","type":"address"},{"internalType":"uint256","name":"lastSequence","type":"uint256"},{"internalType":"string","name":"id","type":"string"},{"internalType":"string","name":"description","type":"string"}],"stateMutability":"view","type":"function"},{"inputs":[{"internalType":"string","name":"_id","type":"string"},{"internalType":"string","name":"_description","type":"string"}],"name":"initializeMaterial","outputs":[],"stateMutability":"nonpayable","type":"function"},{"inputs":[],"name":"listMaterials","outputs":[{"internalType":"string[]","name":"","type":"string[]"}],"stateMutability":"view","type":"function"},{"inputs":[{"internalType":"string","name":"_id","type":"string"},{"internalType":"address","name":"_newHolder","type":"address"}],"name":"transferMaterial","outputs":[],"stateMutability":"nonpayable","type":"function"}],"evm":{"bytecode":{"linkReferences":{},"object":"608060405234801561001057600080fd5b50611202806100206000396000f3fe608060405234801561001057600080fd5b506004361061004c5760003560e01c80639367098414610051578063a0d58ed01461006d578063bfcb742114610089578063c71f5100146100a7575b600080fd5b61006b60048036038101906100669190610863565b6100da565b005b610087600480360381019061008291906108c3565b610275565b005b6100916104e5565b60405161009e9190610a96565b60405180910390f35b6100c160048036038101906100bc9190610ab8565b6105be565b6040516100d19493929190610b77565b60405180910390f35b60008084846040516100ed929190610c09565b908152602001604051809103902090503373ffffffffffffffffffffffffffffffffffffffff168160000160009054906101000a900473ffffffffffffffffffffffffffffffffffffffff1673ffffffffffffffffffffffffffffffffffffffff161461018f576040517f08c379a000000000000000000000000000000000000000000000000000000000815260040161018690610c6e565b60405180910390fd5b818160000160006101000a81548173ffffffffffffffffffffffffffffffffffffffff021916908373ffffffffffffffffffffffffffffffffffffffff16021790555060018160010160008282546101e79190610cbd565b925050819055508173ffffffffffffffffffffffffffffffffffffffff163373ffffffffffffffffffffffffffffffffffffffff16858560405161022c929190610c09565b60405180910390207f99ea32ae71460e8842c8289c2eb257cc48e1f961f9ec61c4bc7bcea8b296309e84600101546040516102679190610cf1565b60405180910390a450505050565b6000808585604051610288929190610c09565b908152602001604051809103902060020180546102a490610d3b565b9050146102e6576040517f08c379a00000000000000000000000000000000000000000000000000000000081526004016102dd90610db8565b60405180910390fd5b60405180608001604052803373ffffffffffffffffffffffffffffffffffffffff1681526020016001815260200185858080601f016020809104026020016040519081016040528093929190818152602001838380828437600081840152601f19601f82011690508083019250505050505050815260200183838080601f016020809104026020016040519081016040528093929190818152602001838380828437600081840152601f19601f82011690508083019250505050505050815250600085856040516103b8929190610c09565b908152602001604051809103902060008201518160000160006101000a81548173ffffffffffffffffffffffffffffffffffffffff021916908373ffffffffffffffffffffffffffffffffffffffff16021790555060208201518160010155604082015181600201908161042c9190610fb3565b5060608201518160030190816104429190610fb3565b509050506001848490918060018154018082558091505060019003906000526020600020016000909192909192909192909192509182610483929190611090565b503373ffffffffffffffffffffffffffffffffffffffff1684846040516104ab929190610c09565b60405180910390207fc7bba16ad61a496a17bf51bfad299bbb51b3c664635c5875052854c1cbba442860405160405180910390a350505050565b60606001805480602002602001604051908101604052809291908181526020016000905b828210156105b557838290600052602060002001805461052890610d3b565b80601f016020809104026020016040519081016040528092919081815260200182805461055490610d3b565b80156105a15780601f10610576576101008083540402835291602001916105a1565b820191906000526020600020905b81548152906001019060200180831161058457829003601f168201915b505050505081526020019060010190610509565b50505050905090565b60008060608060008087876040516105d7929190610c09565b9081526020016040518091039020905060008160020180546105f890610d3b565b90500361063a576040517f08c379a0000000000000000000000000000000000000000000000000000000008152600401610631906111ac565b60405180910390fd5b8060000160009054906101000a900473ffffffffffffffffffffffffffffffffffffffff168160010154826002018360030181805461067890610d3b565b80601f01602080910402602001604051908101604052809291908181526020018280546106a490610d3b565b80156106f15780601f106106c6576101008083540402835291602001916106f1565b820191906000526020600020905b8154815290600101906020018083116106d457829003601f168201915b5050505050915080805461070490610d3b565b80601f016020809104026020016040519081016040528092919081815260200182805461073090610d3b565b801561077d5780601f106107525761010080835404028352916020019161077d565b820191906000526020600020905b81548152906001019060200180831161076057829003601f168201915b5050505050905094509450945094505092959194509250565b600080fd5b600080fd5b600080fd5b600080fd5b600080fd5b60008083601f8401126107c5576107c46107a0565b5b8235905067ffffffffffffffff8111156107e2576107e16107a5565b5b6020830191508360018202830111156107fe576107fd6107aa565b5b9250929050565b600073ffffffffffffffffffffffffffffffffffffffff82169050919050565b600061083082610805565b9050919050565b61084081610825565b811461084b57600080fd5b50565b60008135905061085d81610837565b92915050565b60008060006040848603121561087c5761087b610796565b5b600084013567ffffffffffffffff81111561089a5761089961079b565b5b6108a6868287016107af565b935093505060206108b98682870161084e565b9150509250925092565b600080600080604085870312156108dd576108dc610796565b5b600085013567ffffffffffffffff8111156108fb576108fa61079b565b5b610907878288016107af565b9450945050602085013567ffffffffffffffff81111561092a5761092961079b565b5b610936878288016107af565b925092505092959194509250565b600081519050919050565b600082825260208201905092915050565b6000819050602082019050919050565b600081519050919050565b600082825260208201905092915050565b60005b838110156109aa57808201518184015260208101905061098f565b60008484015250505050565b6000601f19601f8301169050919050565b60006109d282610970565b6109dc818561097b565b93506109ec81856020860161098c565b6109f5816109b6565b840191505092915050565b6000610a0c83836109c7565b905092915050565b6000602082019050919050565b6000610a2c82610944565b610a36818561094f565b935083602082028501610a4885610960565b8060005b85811015610a845784840389528151610a658582610a00565b9450610a7083610a14565b925060208a01995050600181019050610a4c565b50829750879550505050505092915050565b60006020820190508181036000830152610ab08184610a21565b905092915050565b60008060208385031215610acf57610ace610796565b5b600083013567ffffffffffffffff811115610aed57610aec61079b565b5b610af9858286016107af565b92509250509250929050565b610b0e81610825565b82525050565b6000819050919050565b610b2781610b14565b82525050565b600082825260208201905092915050565b6000610b4982610970565b610b538185610b2d565b9350610b6381856020860161098c565b610b6c816109b6565b840191505092915050565b6000608082019050610b8c6000830187610b05565b610b996020830186610b1e565b8181036040830152610bab8185610b3e565b90508181036060830152610bbf8184610b3e565b905095945050505050565b600081905092915050565b82818337600083830152505050565b6000610bf08385610bca565b9350610bfd838584610bd5565b82840190509392505050565b6000610c16828486610be4565b91508190509392505050565b7f4f6e6c7920686f6c646572000000000000000000000000000000000000000000600082015250565b6000610c58600b83610b2d565b9150610c6382610c22565b602082019050919050565b60006020820190508181036000830152610c8781610c4b565b9050919050565b7f4e487b7100000000000000000000000000000000000000000000000000000000600052601160045260246000fd5b6000610cc882610b14565b9150610cd383610b14565b9250828201905080821115610ceb57610cea610c8e565b5b92915050565b6000602082019050610d066000830184610b1e565b92915050565b7f4e487b7100000000000000000000000000000000000000000000000000000000600052602260045260246000fd5b60006002820490506001821680610d5357607f821691505b602082108103610d6657610d65610d0c565b5b50919050565b7f416c726561647920657869737473000000000000000000000000000000000000600082015250565b6000610da2600e83610b2d565b9150610dad82610d6c565b602082019050919050565b60006020820190508181036000830152610dd181610d95565b9050919050565b7f4e487b7100000000000000000000000000000000000000000000000000000000600052604160045260246000fd5b60008190508160005260206000209050919050565b60006020601f8301049050919050565b600082821b905092915050565b600060088302610e697fffffffffffffffffffffffffffffffffffffffffffffffffffffffffffffffff82610e2c565b610e738683610e2c565b95508019841693508086168417925050509392505050565b6000819050919050565b6000610eb0610eab610ea684610b14565b610e8b565b610b14565b9050919050565b6000819050919050565b610eca83610e95565b610ede610ed682610eb7565b848454610e39565b825550505050565b600090565b610ef3610ee6565b610efe818484610ec1565b505050565b5b81811015610f2257610f17600082610eeb565b600181019050610f04565b5050565b601f821115610f6757610f3881610e07565b610f4184610e1c565b81016020851015610f50578190505b610f64610f5c85610e1c565b830182610f03565b50505b505050565b600082821c905092915050565b6000610f8a60001984600802610f6c565b1980831691505092915050565b6000610fa38383610f79565b9150826002028217905092915050565b610fbc82610970565b67ffffffffffffffff811115610fd557610fd4610dd8565b5b610fdf8254610d3b565b610fea828285610f26565b600060209050601f83116001811461101d576000841561100b578287015190505b6110158582610f97565b86555061107d565b601f19841661102b86610e07565b60005b828110156110535784890151825560018201915060208501945060208101905061102e565b86831015611070578489015161106c601f891682610f79565b8355505b6001600288020188555050505b505050505050565b600082905092915050565b61109a8383611085565b67ffffffffffffffff8111156110b3576110b2610dd8565b5b6110bd8254610d3b565b6110c8828285610f26565b6000601f8311600181146110f757600084156110e5578287013590505b6110ef8582610f97565b865550611157565b601f19841661110586610e07565b60005b8281101561112d57848901358255600182019150602085019450602081019050611108565b8683101561114a5784890135611146601f891682610f79565b8355505b6001600288020188555050505b50505050505050565b7f4e6f7420666f756e640000000000000000000000000000000000000000000000600082015250565b6000611196600983610b2d565b91506111a182611160565b602082019050919050565b600060208201905081810360008301526111c581611189565b905091905056fea2646970667358221220588f27e0fc23fca6c7758c749e67ea9c32580dc795641ed1b3389751bb0f0e8364736f6c63430008140033","opcodes":"PUSH1 0x80 PUSH1 0x40 MSTORE CALLVALUE DUP1 ISZERO PUSH2 0x10 JUMPI PUSH1 0x0 DUP1 REVERT JUMPDEST POP PUSH2 0x1202 DUP1 PUSH2 0x20 PUSH1 0x0 CODECOPY PUSH1 0x0 RETURN INVALID PUSH1 0x80 PUSH1 0x40 MSTORE CALLVALUE DUP1 ISZERO PUSH2 0x10 JUMPI PUSH1 0x0 DUP1 REVERT JUMPDEST POP PUSH1 0x4 CALLDATASIZE LT PUSH2 0x4C JUMPI PUSH1 0x0 CALLDATALOAD PUSH1 0xE0 SHR DUP1 PUSH4 0x93670984 EQ PUSH2 0x51 JUMPI DUP1 PUSH4 0xA0D58ED0 EQ PUSH2 0x6D JUMPI DUP1 PUSH4 0xBFCB7421 EQ PUSH2 0x89 JUMPI DUP1 PUSH4 0xC71F5100 EQ PUSH2 0xA7 JUMPI JUMPDEST PUSH1 0x0 DUP1 REVERT JUMPDEST PUSH2 0x6B PUSH1 0x4 DUP1 CALLDATASIZE SUB DUP2 ADD SWAP1 PUSH2 0x66 SWAP2 SWAP1 PUSH2 0x863 JUMP JUMPDEST PUSH2 0xDA JUMP JUMPDEST STOP JUMPDEST PUSH2 0x87 PUSH1 0x4 DUP1 CALLDATASIZE SUB DUP2 ADD SWAP1 PUSH2 0x82 SWAP2 SWAP1 PUSH2 0x8C3 JUMP JUMPDEST PUSH2 0x275 JUMP JUMPDEST STOP JUMPDEST PUSH2 0x91 PUSH2 0x4E5 JUMP JUMPDEST PUSH1 0x40 MLOAD PUSH2 0x9E SWAP2 SWAP1 PUSH2 0xA96 JUMP JUMPDEST PUSH1 0x40 MLOAD DUP1 SWAP2 SUB SWAP1 RETURN JUMPDEST PUSH2 0xC1 PUSH1 0x4 DUP1 CALLDATASIZE SUB DUP2 ADD SWAP1 PUSH2 0xBC SWAP2 SWAP1 PUSH2 0xAB8 JUMP JUMPDEST PUSH2 0x5BE JUMP JUMPDEST PUSH1 0x40 MLOAD PUSH2 0xD1 SWAP5 SWAP4 SWAP3 SWAP2 SWAP1 PUSH2 0xB77 JUMP JUMPDEST PUSH1 0x40 MLOAD DUP1 SWAP2 SUB SWAP1 RETURN JUMPDEST PUSH1 0x0 DUP1 DUP5 DUP5 PUSH1 0x40 MLOAD PUSH2 0xED SWAP3 SWAP2 SWAP1 PUSH2 0xC09 JUMP JUMPDEST SWAP1 DUP2 MSTORE PUSH1 0x20 ADD PUSH1 0x40 MLOAD DUP1 SWAP2 SUB SWAP1 KECCAK256 SWAP1 POP CALLER PUSH20 0xFFFFFFFFFFFFFFFFFFFFFFFFFFFFFFFFFFFFFFFF AND DUP2 PUSH1 0x0 ADD PUSH1 0x0 SWAP1 SLOAD SWAP1 PUSH2 0x100 EXP SWAP1 DIV PUSH20 0xFFFFFFFFFFFFFFFFFFFFFFFFFFFFFFFFFFFFFFFF AND PUSH20 0xFFFFFFFFFFFFFFFFFFFFFFFFFFFFFFFFFFFFFFFF AND EQ PUSH2 0x18F JUMPI PUSH1 0x40 MLOAD PUSH32 0x8C379A000000000000000000000000000000000000000000000000000000000 DUP2 MSTORE PUSH1 0x4 ADD PUSH2 0x186 SWAP1 PUSH2 0xC6E JUMP JUMPDEST PUSH1 0x40 MLOAD DUP1 SWAP2 SUB SWAP1 REVERT JUMPDEST DUP2 DUP2 PUSH1 0x0 ADD PUSH1 0x0 PUSH2 0x100 EXP DUP2 SLOAD DUP2 PUSH20 0xFFFFFFFFFFFFFFFFFFFFFFFFFFFFFFFFFFFFFFFF MUL NOT AND SWAP1 DUP4 PUSH20 0xFFFFFFFFFFFFFFFFFFFFFFFFFFFFFFFFFFFFFFFF AND MUL OR SWAP1 SSTORE POP PUSH1 0x1 DUP2 PUSH1 0x1 ADD PUSH1 0x0 DUP3 DUP3 SLOAD PUSH2 0x1E7 SWAP2 SWAP1 PUSH2 0xCBD JUMP JUMPDEST SWAP3 POP POP DUP2 SWAP1 SSTORE POP DUP2 PUSH20 0xFFFFFFFFFFFFFFFFFFFFFFFFFFFFFFFFFFFFFFFF AND CALLER PUSH20 0xFFFFFFFFFFFFFFFFFFFFFFFFFFFFFFFFFFFFFFFF AND DUP6 DUP6 PUSH1 0x40 MLOAD PUSH2 0x22C SWAP3 SWAP2 SWAP1 PUSH2 0xC09 JUMP JUMPDEST PUSH1 0x40 MLOAD DUP1 SWAP2 SUB SWAP1 KECCAK256 PUSH32 0x99EA32AE71460E8842C8289C2EB257CC48E1F961F9EC61C4BC7BCEA8B296309E DUP5 PUSH1 0x1 ADD SLOAD PUSH1 0x40 MLOAD PUSH2 0x267 SWAP2 SWAP1 PUSH2 0xCF1 JUMP JUMPDEST PUSH1 0x40 MLOAD DUP1 SWAP2 SUB SWAP1 LOG4 POP POP POP POP JUMP JUMPDEST PUSH1 0x0 DUP1 DUP6 DUP6 PUSH1 0x40 MLOAD PUSH2 0x288 SWAP3 SWAP2 SWAP1 PUSH2 0xC09 JUMP JUMPDEST SWAP1 DUP2 MSTORE PUSH1 0x20 ADD PUSH1 0x40 MLOAD DUP1 SWAP2 SUB SWAP1 KECCAK256 PUSH1 0x2 ADD DUP1 SLOAD PUSH2 0x2A4 SWAP1 PUSH2 0xD3B JUMP JUMPDEST SWAP1 POP EQ PUSH2 0x2E6 JUMPI PUSH1 0x40 MLOAD PUSH32 0x8C379A000000000000000000000000000000000000000000000000000000000 DUP2 MSTORE PUSH1 0x4 ADD PUSH2 0x2DD SWAP1 PUSH2 0xDB8 JUMP JUMPDEST PUSH1 0x40 MLOAD DUP1 SWAP2 SUB SWAP1 REVERT JUMPDEST PUSH1 0x40 MLOAD DUP1 PUSH1 0x80 ADD PUSH1 0x40 MSTORE DUP1 CALLER PUSH20 0xFFFFFFFFFFFFFFFFFFFFFFFFFFFFFFFFFFFFFFFF AND DUP2 MSTORE PUSH1 0x20 ADD PUSH1 0x1 DUP2 MSTORE PUSH1 0x20 ADD DUP6 DUP6 DUP1 DUP1 PUSH1 0x1F ADD PUSH1 0x20 DUP1 SWAP2 DIV MUL PUSH1 0x20 ADD PUSH1 0x40 MLOAD SWAP1 DUP2 ADD PUSH1 0x40 MSTORE DUP1 SWAP4 SWAP3 SWAP2 SWAP1 DUP2 DUP2 MSTORE PUSH1 0x20 ADD DUP4 DUP4 DUP1 DUP3 DUP5 CALLDATACOPY PUSH1 0x0 DUP2 DUP5 ADD MSTORE PUSH1 0x1F NOT PUSH1 0x1F DUP3 ADD AND SWAP1 POP DUP1 DUP4 ADD SWAP3 POP POP POP POP POP POP POP DUP2 MSTORE PUSH1 0x20 ADD DUP4 DUP4 DUP1 DUP1 PUSH1 0x1F ADD PUSH1 0x20 DUP1 SWAP2 DIV MUL PUSH1 0x20 ADD PUSH1 0x40 MLOAD SWAP1 DUP2 ADD PUSH1 0x40 MSTORE DUP1 SWAP4 SWAP3 SWAP2 SWAP1 DUP2 DUP2 MSTORE PUSH1 0x20 ADD DUP4 DUP4 DUP1 DUP3 DUP5 CALLDATACOPY PUSH1 0x0 DUP2 DUP5 ADD MSTORE PUSH1 0x1F NOT PUSH1 0x1F DUP3 ADD AND SWAP1 POP DUP1 DUP4 ADD SWAP3 POP POP POP POP POP POP POP DUP2 MSTORE POP PUSH1 0x0 DUP6 DUP6 PUSH1 0x40 MLOAD PUSH2 0x3B8 SWAP3 SWAP2 SWAP1 PUSH2 0xC09 JUMP JUMPDEST SWAP1 DUP2 MSTORE PUSH1 0x20 ADD PUSH1 0x40 MLOAD DUP1 SWAP2 SUB SWAP1 KECCAK256 PUSH1 0x0 DUP3 ADD MLOAD DUP2 PUSH1 0x0 ADD PUSH1 0x0 PUSH2 0x100 EXP DUP2 SLOAD DUP2 PUSH20 0xFFFFFFFFFFFFFFFFFFFFFFFFFFFFFFFFFFFFFFFF MUL NOT AND SWAP1 DUP4 PUSH20 0xFFFFFFFFFFFFFFFFFFFFFFFFFFFFFFFFFFFFFFFF AND MUL OR SWAP1 SSTORE POP PUSH1 0x20 DUP3 ADD MLOAD DUP2 PUSH1 0x1 ADD SSTORE PUSH1 0x40 DUP3 ADD MLOAD DUP2 PUSH1 0x2 ADD SWAP1 DUP2 PUSH2 0x42C SWAP2 SWAP1 PUSH2 0xFB3 JUMP JUMPDEST POP PUSH1 0x60 DUP3 ADD MLOAD DUP2 PUSH1 0x3 ADD SWAP1 DUP2 PUSH2 0x442 SWAP2 SWAP1 PUSH2 0xFB3 JUMP JUMPDEST POP SWAP1 POP POP PUSH1 0x1 DUP5 DUP5 SWAP1 SWAP2 DUP1 PUSH1 0x1 DUP2 SLOAD ADD DUP1 DUP3 SSTORE DUP1 SWAP2 POP POP PUSH1 0x1 SWAP1 SUB SWAP1 PUSH1 0x0 MSTORE PUSH1 0x20 PUSH1 0x0 KECCAK256 ADD PUSH1 0x0 SWAP1 SWAP2 SWAP3 SWAP1 SWAP2 SWAP3 SWAP1 SWAP2 SWAP3 SWAP1 SWAP2 SWAP3 POP SWAP2 DUP3 PUSH2 0x483 SWAP3 SWAP2 SWAP1 PUSH2 0x1090 JUMP JUMPDEST POP CALLER PUSH20 0xFFFFFFFFFFFFFFFFFFFFFFFFFFFFFFFFFFFFFFFF AND DUP5 DUP5 PUSH1 0x40 MLOAD PUSH2 0x4AB SWAP3 SWAP2 SWAP1 PUSH2 0xC09 JUMP JUMPDEST PUSH1 0x40 MLOAD DUP1 SWAP2 SUB SWAP1 KECCAK256 PUSH32 0xC7BBA16AD61A496A17BF51BFAD299BBB51B3C664635C5875052854C1CBBA4428 PUSH1 0x40 MLOAD PUSH1 0x40 MLOAD DUP1 SWAP2 SUB SWAP1 LOG3 POP POP POP POP JUMP JUMPDEST PUSH1 0x60 PUSH1 0x1 DUP1 SLOAD DUP1 PUSH1 0x20 MUL PUSH1 0x20 ADD PUSH1 0x40 MLOAD SWAP1 DUP2 ADD PUSH1 0x40 MSTORE DUP1 SWAP3 SWAP2 SWAP1 DUP2 DUP2 MSTORE PUSH1 0x20 ADD PUSH1 0x0 SWAP1 JUMPDEST DUP3 DUP3 LT ISZERO PUSH2 0x5B5 JUMPI DUP4 DUP3 SWAP1 PUSH1 0x0 MSTORE PUSH1 0x20 PUSH1 0x0 KECCAK256 ADD DUP1 SLOAD PUSH2 0x528 SWAP1 PUSH2 0xD3B JUMP JUMPDEST DUP1 PUSH1 0x1F ADD PUSH1 0x20 DUP1 SWAP2 DIV MUL PUSH1 0x20 ADD PUSH1 0x40 MLOAD SWAP1 DUP2 ADD PUSH1 0x40 MSTORE DUP1 SWAP3 SWAP2 SWAP1 DUP2 DUP2 MSTORE PUSH1 0x20 ADD DUP3 DUP1 SLOAD PUSH2 0x554 SWAP1 PUSH2 0xD3B JUMP JUMPDEST DUP1 ISZERO PUSH2 0x5A1 JUMPI DUP1 PUSH1 0x1F LT PUSH2 0x576 JUMPI PUSH2 0x100 DUP1 DUP4 SLOAD DIV MUL DUP4 MSTORE SWAP2 PUSH1 0x20 ADD SWAP2 PUSH2 0x5A1 JUMP JUMPDEST DUP3 ADD SWAP2 SWAP1 PUSH1 0x0 MSTORE PUSH1 0x20 PUSH1 0x0 KECCAK256 SWAP1 JUMPDEST DUP2 SLOAD DUP2 MSTORE SWAP1 PUSH1 0x1 ADD SWAP1 PUSH1 0x20 ADD DUP1 DUP4 GT PUSH2 0x584 JUMPI DUP3 SWAP1 SUB PUSH1 0x1F AND DUP3 ADD SWAP2 JUMPDEST POP POP POP POP POP DUP2 MSTORE PUSH1 0x20 ADD SWAP1 PUSH1 0x1 ADD SWAP1 PUSH2 0x509 JUMP JUMPDEST POP POP POP POP SWAP1 POP SWAP1 JUMP JUMPDEST PUSH1 0x0 DUP1 PUSH1 0x60 DUP1 PUSH1 0x0 DUP1 DUP8 DUP8 PUSH1 0x40 MLOAD PUSH2 0x5D7 SWAP3 SWAP2 SWAP1 PUSH2 0xC09 JUMP JUMPDEST SWAP1 DUP2 MSTORE PUSH1 0x20 ADD PUSH1 0x40 MLOAD DUP1 SWAP2 SUB SWAP1 KECCAK256 SWAP1 POP PUSH1 0x0 DUP2 PUSH1 0x2 ADD DUP1 SLOAD PUSH2 0x5F8 SWAP1 PUSH2 0xD3B JUMP JUMPDEST SWAP1 POP SUB PUSH2 0x63A JUMPI PUSH1 0x40 MLOAD PUSH32 0x8C379A000000000000000000000000000000000000000000000000000000000 DUP2 MSTORE PUSH1 0x4 ADD PUSH2 0x631 SWAP1 PUSH2 0x11AC JUMP JUMPDEST PUSH1 0x40 MLOAD DUP1 SWAP2 SUB SWAP1 REVERT JUMPDEST DUP1 PUSH1 0x0 ADD PUSH1 0x0 SWAP1 SLOAD SWAP1 PUSH2 0x100 EXP SWAP1 DIV PUSH20 0xFFFFFFFFFFFFFFFFFFFFFFFFFFFFFFFFFFFFFFFF AND DUP2 PUSH1 0x1 ADD SLOAD DUP3 PUSH1 0x2 ADD DUP4 PUSH1 0x3 ADD DUP2 DUP1 SLOAD PUSH2 0x678 SWAP1 PUSH2 0xD3B JUMP JUMPDEST DUP1 PUSH1 0x1F ADD PUSH1 0x20 DUP1 SWAP2 DIV MUL PUSH1 0x20 ADD PUSH1 0x40 MLOAD SWAP1 DUP2 ADD PUSH1 0x40 MSTORE DUP1 SWAP3 SWAP2 SWAP1 DUP2 DUP2 MSTORE PUSH1 0x20 ADD DUP3 DUP1 SLOAD PUSH2 0x6A4 SWAP1 PUSH2 0xD3B JUMP JUMPDEST DUP1 ISZERO PUSH2 0x6F1 JUMPI DUP1 PUSH1 0x1F LT PUSH2 0x6C6 JUMPI PUSH2 0x100 DUP1 DUP4 SLOAD DIV MUL DUP4 MSTORE SWAP2 PUSH1 0x20 ADD SWAP2 PUSH2 0x6F1 JUMP JUMPDEST DUP3 ADD SWAP2 SWAP1 PUSH1 0x0 MSTORE PUSH1 0x20 PUSH1 0x0 KECCAK256 SWAP1 JUMPDEST DUP2 SLOAD DUP2 MSTORE SWAP1 PUSH1 0x1 ADD SWAP1 PUSH1 0x20 ADD DUP1 DUP4 GT PUSH2 0x6D4 JUMPI DUP3 SWAP1 SUB PUSH1 0x1F AND DUP3 ADD SWAP2 JUMPDEST POP POP POP POP POP SWAP2 POP DUP1 DUP1 SLOAD PUSH2 0x704 SWAP1 PUSH2 0xD3B JUMP JUMPDEST DUP1 PUSH1 0x1F ADD PUSH1 0x20 DUP1 SWAP2 DIV MUL PUSH1 0x20 ADD PUSH1 0x40 MLOAD SWAP1 DUP2 ADD PUSH1 0x40 MSTORE DUP1 SWAP3 SWAP2 SWAP1 DUP2 DUP2 MSTORE PUSH1 0x20 ADD DUP3 DUP1 SLOAD PUSH2 0x730 SWAP1 PUSH2 0xD3B JUMP JUMPDEST DUP1 ISZERO PUSH2 0x77D JUMPI DUP1 PUSH1 0x1F LT PUSH2 0x752 JUMPI PUSH2 0x100 DUP1 DUP4 SLOAD DIV MUL DUP4 MSTORE SWAP2 PUSH1 0x20 ADD SWAP2 PUSH2 0x77D JUMP JUMPDEST DUP3 ADD SWAP2 SWAP1 PUSH1 0x0 MSTORE PUSH1 0x20 PUSH1 0x0 KECCAK256 SWAP1 JUMPDEST DUP2 SLOAD DUP2 MSTORE SWAP1 PUSH1 0x1 ADD SWAP1 PUSH1 0x20 ADD DUP1 DUP4 GT PUSH2 0x760 JUMPI DUP3 SWAP1 SUB PUSH1 0x1F AND DUP3 ADD SWAP2 JUMPDEST POP POP POP POP POP SWAP1 POP SWAP5 POP SWAP5 POP SWAP5 POP SWAP5 POP POP SWAP3 SWAP6 SWAP2 SWAP5 POP SWAP3 POP JUMP JUMPDEST PUSH1 0x0 DUP1 REVERT JUMPDEST PUSH1 0x0 DUP1 REVERT JUMPDEST PUSH1 0x0 DUP1 REVERT JUMPDEST PUSH1 0x0 DUP1 REVERT JUMPDEST PUSH1 0x0 DUP1 REVERT JUMPDEST PUSH1 0x0 DUP1 DUP4 PUSH1 0x1F DUP5 ADD SLT PUSH2 0x7C5 JUMPI PUSH2 0x7C4 PUSH2 0x7A0 JUMP JUMPDEST JUMPDEST DUP3 CALLDATALOAD SWAP1 POP PUSH8 0xFFFFFFFFFFFFFFFF DUP2 GT ISZERO PUSH2 0x7E2 JUMPI PUSH2 0x7E1 PUSH2 0x7A5 JUMP JUMPDEST JUMPDEST PUSH1 0x20 DUP4 ADD SWAP2 POP DUP4 PUSH1 0x1 DUP3 MUL DUP4 ADD GT ISZERO PUSH2 0x7FE JUMPI PUSH2 0x7FD PUSH2 0x7AA JUMP JUMPDEST JUMPDEST SWAP3 POP SWAP3 SWAP1 POP JUMP JUMPDEST PUSH1 0x0 PUSH20 0xFFFFFFFFFFFFFFFFFFFFFFFFFFFFFFFFFFFFFFFF DUP3 AND SWAP1 POP SWAP2 SWAP1 POP JUMP JUMPDEST PUSH1 0x0 PUSH2 0x830 DUP3 PUSH2 0x805 JUMP JUMPDEST SWAP1 POP SWAP2 SWAP1 POP JUMP JUMPDEST PUSH2 0x840 DUP2 PUSH2 0x825 JUMP JUMPDEST DUP2 EQ PUSH2 0x84B JUMPI PUSH1 0x0 DUP1 REVERT JUMPDEST POP JUMP JUMPDEST PUSH1 0x0 DUP2 CALLDATALOAD SWAP1 POP PUSH2 0x85D DUP2 PUSH2 0x837 JUMP JUMPDEST SWAP3 SWAP2 POP POP JUMP JUMPDEST PUSH1 0x0 DUP1 PUSH1 0x0 PUSH1 0x40 DUP5 DUP7 SUB SLT ISZERO PUSH2 0x87C JUMPI PUSH2 0x87B PUSH2 0x796 JUMP JUMPDEST JUMPDEST PUSH1 0x0 DUP5 ADD CALLDATALOAD PUSH8 0xFFFFFFFFFFFFFFFF DUP2 GT ISZERO PUSH2 0x89A JUMPI PUSH2 0x899 PUSH2 0x79B JUMP JUMPDEST JUMPDEST PUSH2 0x8A6 DUP7 DUP3 DUP8 ADD PUSH2 0x7AF JUMP JUMPDEST SWAP4 POP SWAP4 POP POP PUSH1 0x20 PUSH2 0x8B9 DUP7 DUP3 DUP8 ADD PUSH2 0x84E JUMP JUMPDEST SWAP2 POP POP SWAP3 POP SWAP3 POP SWAP3 JUMP JUMPDEST PUSH1 0x0 DUP1 PUSH1 0x0 DUP1 PUSH1 0x40 DUP6 DUP8 SUB SLT ISZERO PUSH2 0x8DD JUMPI PUSH2 0x8DC PUSH2 0x796 JUMP JUMPDEST JUMPDEST PUSH1 0x0 DUP6 ADD CALLDATALOAD PUSH8 0xFFFFFFFFFFFFFFFF DUP2 GT ISZERO PUSH2 0x8FB JUMPI PUSH2 0x8FA PUSH2 0x79B JUMP JUMPDEST JUMPDEST PUSH2 0x907 DUP8 DUP3 DUP9 ADD PUSH2 0x7AF JUMP JUMPDEST SWAP5 POP SWAP5 POP POP PUSH1 0x20 DUP6 ADD CALLDATALOAD PUSH8 0xFFFFFFFFFFFFFFFF DUP2 GT ISZERO PUSH2 0x92A JUMPI PUSH2 0x929 PUSH2 0x79B JUMP JUMPDEST JUMPDEST PUSH2 0x936 DUP8 DUP3 DUP9 ADD PUSH2 0x7AF JUMP JUMPDEST SWAP3 POP SWAP3 POP POP SWAP3 SWAP6 SWAP2 SWAP5 POP SWAP3 POP JUMP JUMPDEST PUSH1 0x0 DUP2 MLOAD SWAP1 POP SWAP2 SWAP1 POP JUMP JUMPDEST PUSH1 0x0 DUP3 DUP3 MSTORE PUSH1 0x20 DUP3 ADD SWAP1 POP SWAP3 SWAP2 POP POP JUMP JUMPDEST PUSH1 0x0 DUP2 SWAP1 POP PUSH1 0x20 DUP3 ADD SWAP1 POP SWAP2 SWAP1 POP JUMP JUMPDEST PUSH1 0x0 DUP2 MLOAD SWAP1 POP SWAP2 SWAP1 POP JUMP JUMPDEST PUSH1 0x0 DUP3 DUP3 MSTORE PUSH1 0x20 DUP3 ADD SWAP1 POP SWAP3 SWAP2 POP POP JUMP JUMPDEST PUSH1 0x0 JUMPDEST DUP4 DUP2 LT ISZERO PUSH2 0x9AA JUMPI DUP1 DUP3 ADD MLOAD DUP2 DUP5 ADD MSTORE PUSH1 0x20 DUP2 ADD SWAP1 POP PUSH2 0x98F JUMP JUMPDEST PUSH1 0x0 DUP5 DUP5 ADD MSTORE POP POP POP POP JUMP JUMPDEST PUSH1 0x0 PUSH1 0x1F NOT PUSH1 0x1F DUP4 ADD AND SWAP1 POP SWAP2 SWAP1 POP JUMP JUMPDEST PUSH1 0x0 PUSH2 0x9D2 DUP3 PUSH2 0x970 JUMP JUMPDEST PUSH2 0x9DC DUP2 DUP6 PUSH2 0x97B JUMP JUMPDEST SWAP4 POP PUSH2 0x9EC DUP2 DUP6 PUSH1 0x20 DUP7 ADD PUSH2 0x98C JUMP JUMPDEST PUSH2 0x9F5 DUP2 PUSH2 0x9B6 JUMP JUMPDEST DUP5 ADD SWAP2 POP POP SWAP3 SWAP2 POP POP JUMP JUMPDEST PUSH1 0x0 PUSH2 0xA0C DUP4 DUP4 PUSH2 0x9C7 JUMP JUMPDEST SWAP1 POP SWAP3 SWAP2 POP POP JUMP JUMPDEST PUSH1 0x0 PUSH1 0x20 DUP3 ADD SWAP1 POP SWAP2 SWAP1 POP JUMP JUMPDEST PUSH1 0x0 PUSH2 0xA2C DUP3 PUSH2 0x944 JUMP JUMPDEST PUSH2 0xA36 DUP2 DUP6 PUSH2 0x94F JUMP JUMPDEST SWAP4 POP DUP4 PUSH1 0x20 DUP3 MUL DUP6 ADD PUSH2 0xA48 DUP6 PUSH2 0x960 JUMP JUMPDEST DUP1 PUSH1 0x0 JUMPDEST DUP6 DUP2 LT ISZERO PUSH2 0xA84 JUMPI DUP5 DUP5 SUB DUP10 MSTORE DUP2 MLOAD PUSH2 0xA65 DUP6 DUP3 PUSH2 0xA00 JUMP JUMPDEST SWAP5 POP PUSH2 0xA70 DUP4 PUSH2 0xA14 JUMP JUMPDEST SWAP3 POP PUSH1 0x20 DUP11 ADD SWAP10 POP POP PUSH1 0x1 DUP2 ADD SWAP1 POP PUSH2 0xA4C JUMP JUMPDEST POP DUP3 SWAP8 POP DUP8 SWAP6 POP POP POP POP POP POP SWAP3 SWAP2 POP POP JUMP JUMPDEST PUSH1 0x0 PUSH1 0x20 DUP3 ADD SWAP1 POP DUP2 DUP2 SUB PUSH1 0x0 DUP4 ADD MSTORE PUSH2 0xAB0 DUP2 DUP5 PUSH2 0xA21 JUMP JUMPDEST SWAP1 POP SWAP3 SWAP2 POP POP JUMP JUMPDEST PUSH1 0x0 DUP1 PUSH1 0x20 DUP4 DUP6 SUB SLT ISZERO PUSH2 0xACF JUMPI PUSH2 0xACE PUSH2 0x796 JUMP JUMPDEST JUMPDEST PUSH1 0x0 DUP4 ADD CALLDATALOAD PUSH8 0xFFFFFFFFFFFFFFFF DUP2 GT ISZERO PUSH2 0xAED JUMPI PUSH2 0xAEC PUSH2 0x79B JUMP JUMPDEST JUMPDEST PUSH2 0xAF9 DUP6 DUP3 DUP7 ADD PUSH2 0x7AF JUMP JUMPDEST SWAP3 POP SWAP3 POP POP SWAP3 POP SWAP3 SWAP1 POP JUMP JUMPDEST PUSH2 0xB0E DUP2 PUSH2 0x825 JUMP JUMPDEST DUP3 MSTORE POP POP JUMP JUMPDEST PUSH1 0x0 DUP2 SWAP1 POP SWAP2 SWAP1 POP JUMP JUMPDEST PUSH2 0xB27 DUP2 PUSH2 0xB14 JUMP JUMPDEST DUP3 MSTORE POP POP JUMP JUMPDEST PUSH1 0x0 DUP3 DUP3 MSTORE PUSH1 0x20 DUP3 ADD SWAP1 POP SWAP3 SWAP2 POP POP JUMP JUMPDEST PUSH1 0x0 PUSH2 0xB49 DUP3 PUSH2 0x970 JUMP JUMPDEST PUSH2 0xB53 DUP2 DUP6 PUSH2 0xB2D JUMP JUMPDEST SWAP4 POP PUSH2 0xB63 DUP2 DUP6 PUSH1 0x20 DUP7 ADD PUSH2 0x98C JUMP JUMPDEST PUSH2 0xB6C DUP2 PUSH2 0x9B6 JUMP JUMPDEST DUP5 ADD SWAP2 POP POP SWAP3 SWAP2 POP POP JUMP JUMPDEST PUSH1 0x0 PUSH1 0x80 DUP3 ADD SWAP1 POP PUSH2 0xB8C PUSH1 0x0 DUP4 ADD DUP8 PUSH2 0xB05 JUMP JUMPDEST PUSH2 0xB99 PUSH1 0x20 DUP4 ADD DUP7 PUSH2 0xB1E JUMP JUMPDEST DUP2 DUP2 SUB PUSH1 0x40 DUP4 ADD MSTORE PUSH2 0xBAB DUP2 DUP6 PUSH2 0xB3E JUMP JUMPDEST SWAP1 POP DUP2 DUP2 SUB PUSH1 0x60 DUP4 ADD MSTORE PUSH2 0xBBF DUP2 DUP5 PUSH2 0xB3E JUMP JUMPDEST SWAP1 POP SWAP6 SWAP5 POP POP POP POP POP JUMP JUMPDEST PUSH1 0x0 DUP2 SWAP1 POP SWAP3 SWAP2 POP POP JUMP JUMPDEST DUP3 DUP2 DUP4 CALLDATACOPY PUSH1 0x0 DUP4 DUP4 ADD MSTORE POP POP POP JUMP JUMPDEST PUSH1 0x0 PUSH2 0xBF0 DUP4 DUP6 PUSH2 0xBCA JUMP JUMPDEST SWAP4 POP PUSH2 0xBFD DUP4 DUP6 DUP5 PUSH2 0xBD5 JUMP JUMPDEST DUP3 DUP5 ADD SWAP1 POP SWAP4 SWAP3 POP POP POP JUMP JUMPDEST PUSH1 0x0 PUSH2 0xC16 DUP3 DUP5 DUP7 PUSH2 0xBE4 JUMP JUMPDEST SWAP2 POP DUP2 SWAP1 POP SWAP4 SWAP3 POP POP POP JUMP JUMPDEST PUSH32 0x4F6E6C7920686F6C646572000000000000000000000000000000000000000000 PUSH1 0x0 DUP3 ADD MSTORE POP JUMP JUMPDEST PUSH1 0x0 PUSH2 0xC58 PUSH1 0xB DUP4 PUSH2 0xB2D JUMP JUMPDEST SWAP2 POP PUSH2 0xC63 DUP3 PUSH2 0xC22 JUMP JUMPDEST PUSH1 0x20 DUP3 ADD SWAP1 POP SWAP2 SWAP1 POP JUMP JUMPDEST PUSH1 0x0 PUSH1 0x20 DUP3 ADD SWAP1 POP DUP2 DUP2 SUB PUSH1 0x0 DUP4 ADD MSTORE PUSH2 0xC87 DUP2 PUSH2 0xC4B JUMP JUMPDEST SWAP1 POP SWAP2 SWAP1 POP JUMP JUMPDEST PUSH32 0x4E487B7100000000000000000000000000000000000000000000000000000000 PUSH1 0x0 MSTORE PUSH1 0x11 PUSH1 0x4 MSTORE PUSH1 0x24 PUSH1 0x0 REVERT JUMPDEST PUSH1 0x0 PUSH2 0xCC8 DUP3 PUSH2 0xB14 JUMP JUMPDEST SWAP2 POP PUSH2 0xCD3 DUP4 PUSH2 0xB14 JUMP JUMPDEST SWAP3 POP DUP3 DUP3 ADD SWAP1 POP DUP1 DUP3 GT ISZERO PUSH2 0xCEB JUMPI PUSH2 0xCEA PUSH2 0xC8E JUMP JUMPDEST JUMPDEST SWAP3 SWAP2 POP POP JUMP JUMPDEST PUSH1 0x0 PUSH1 0x20 DUP3 ADD SWAP1 POP PUSH2 0xD06 PUSH1 0x0 DUP4 ADD DUP5 PUSH2 0xB1E JUMP JUMPDEST SWAP3 SWAP2 POP POP JUMP JUMPDEST PUSH32 0x4E487B7100000000000000000000000000000000000000000000000000000000 PUSH1 0x0 MSTORE PUSH1 0x22 PUSH1 0x4 MSTORE PUSH1 0x24 PUSH1 0x0 REVERT JUMPDEST PUSH1 0x0 PUSH1 0x2 DUP3 DIV SWAP1 POP PUSH1 0x1 DUP3 AND DUP1 PUSH2 0xD53 JUMPI PUSH1 0x7F DUP3 AND SWAP2 POP JUMPDEST PUSH1 0x20 DUP3 LT DUP2 SUB PUSH2 0xD66 JUMPI PUSH2 0xD65 PUSH2 0xD0C JUMP JUMPDEST JUMPDEST POP SWAP2 SWAP1 POP JUMP JUMPDEST PUSH32 0x416C726561647920657869737473000000000000000000000000000000000000 PUSH1 0x0 DUP3 ADD MSTORE POP JUMP JUMPDEST PUSH1 0x0 PUSH2 0xDA2 PUSH1 0xE DUP4 PUSH2 0xB2D JUMP JUMPDEST SWAP2 POP PUSH2 0xDAD DUP3 PUSH2 0xD6C JUMP JUMPDEST PUSH1 0x20 DUP3 ADD SWAP1 POP SWAP2 SWAP1 POP JUMP JUMPDEST PUSH1 0x0 PUSH1 0x20 DUP3 ADD SWAP1 POP DUP2 DUP2 SUB PUSH1 0x0 DUP4 ADD MSTORE PUSH2 0xDD1 DUP2 PUSH2 0xD95 JUMP JUMPDEST SWAP1 POP SWAP2 SWAP1 POP JUMP JUMPDEST PUSH32 0x4E487B7100000000000000000000000000000000000000000000000000000000 PUSH1 0x0 MSTORE PUSH1 0x41 PUSH1 0x4 MSTORE PUSH1 0x24 PUSH1 0x0 REVERT JUMPDEST PUSH1 0x0 DUP2 SWAP1 POP DUP2 PUSH1 0x0 MSTORE PUSH1 0x20 PUSH1 0x0 KECCAK256 SWAP1 POP SWAP2 SWAP1 POP JUMP JUMPDEST PUSH1 0x0 PUSH1 0x20 PUSH1 0x1F DUP4 ADD DIV SWAP1 POP SWAP2 SWAP1 POP JUMP JUMPDEST PUSH1 0x0 DUP3 DUP3 SHL SWAP1 POP SWAP3 SWAP2 POP POP JUMP JUMPDEST PUSH1 0x0 PUSH1 0x8 DUP4 MUL PUSH2 0xE69 PUSH32 0xFFFFFFFFFFFFFFFFFFFFFFFFFFFFFFFFFFFFFFFFFFFFFFFFFFFFFFFFFFFFFFFF DUP3 PUSH2 0xE2C JUMP JUMPDEST PUSH2 0xE73 DUP7 DUP4 PUSH2 0xE2C JUMP JUMPDEST SWAP6 POP DUP1 NOT DUP5 AND SWAP4 POP DUP1 DUP7 AND DUP5 OR SWAP3 POP POP POP SWAP4 SWAP3 POP POP POP JUMP JUMPDEST PUSH1 0x0 DUP2 SWAP1 POP SWAP2 SWAP1 POP JUMP JUMPDEST PUSH1 0x0 PUSH2 0xEB0 PUSH2 0xEAB PUSH2 0xEA6 DUP5 PUSH2 0xB14 JUMP JUMPDEST PUSH2 0xE8B JUMP JUMPDEST PUSH2 0xB14 JUMP JUMPDEST SWAP1 POP SWAP2 SWAP1 POP JUMP JUMPDEST PUSH1 0x0 DUP2 SWAP1 POP SWAP2 SWAP1 POP JUMP JUMPDEST PUSH2 0xECA DUP4 PUSH2 0xE95 JUMP JUMPDEST PUSH2 0xEDE PUSH2 0xED6 DUP3 PUSH2 0xEB7 JUMP JUMPDEST DUP5 DUP5 SLOAD PUSH2 0xE39 JUMP JUMPDEST DUP3 SSTORE POP POP POP POP JUMP JUMPDEST PUSH1 0x0 SWAP1 JUMP JUMPDEST PUSH2 0xEF3 PUSH2 0xEE6 JUMP JUMPDEST PUSH2 0xEFE DUP2 DUP5 DUP5 PUSH2 0xEC1 JUMP JUMPDEST POP POP POP JUMP JUMPDEST JUMPDEST DUP2 DUP2 LT ISZERO PUSH2 0xF22 JUMPI PUSH2 0xF17 PUSH1 0x0 DUP3 PUSH2 0xEEB JUMP JUMPDEST PUSH1 0x1 DUP2 ADD SWAP1 POP PUSH2 0xF04 JUMP JUMPDEST POP POP JUMP JUMPDEST PUSH1 0x1F DUP3 GT ISZERO PUSH2 0xF67 JUMPI PUSH2 0xF38 DUP2 PUSH2 0xE07 JUMP JUMPDEST PUSH2 0xF41 DUP5 PUSH2 0xE1C JUMP JUMPDEST DUP2 ADD PUSH1 0x20 DUP6 LT ISZERO PUSH2 0xF50 JUMPI DUP2 SWAP1 POP JUMPDEST PUSH2 0xF64 PUSH2 0xF5C DUP6 PUSH2 0xE1C JUMP JUMPDEST DUP4 ADD DUP3 PUSH2 0xF03 JUMP JUMPDEST POP POP JUMPDEST POP POP POP JUMP JUMPDEST PUSH1 0x0 DUP3 DUP3 SHR SWAP1 POP SWAP3 SWAP2 POP POP JUMP JUMPDEST PUSH1 0x0 PUSH2 0xF8A PUSH1 0x0 NOT DUP5 PUSH1 0x8 MUL PUSH2 0xF6C JUMP JUMPDEST NOT DUP1 DUP4 AND SWAP2 POP POP SWAP3 SWAP2 POP POP JUMP JUMPDEST PUSH1 0x0 PUSH2 0xFA3 DUP4 DUP4 PUSH2 0xF79 JUMP JUMPDEST SWAP2 POP DUP3 PUSH1 0x2 MUL DUP3 OR SWAP1 POP SWAP3 SWAP2 POP POP JUMP JUMPDEST PUSH2 0xFBC DUP3 PUSH2 0x970 JUMP JUMPDEST PUSH8 0xFFFFFFFFFFFFFFFF DUP2 GT ISZERO PUSH2 0xFD5 JUMPI PUSH2 0xFD4 PUSH2 0xDD8 JUMP JUMPDEST JUMPDEST PUSH2 0xFDF DUP3 SLOAD PUSH2 0xD3B JUMP JUMPDEST PUSH2 0xFEA DUP3 DUP3 DUP6 PUSH2 0xF26 JUMP JUMPDEST PUSH1 0x0 PUSH1 0x20 SWAP1 POP PUSH1 0x1F DUP4 GT PUSH1 0x1 DUP2 EQ PUSH2 0x101D JUMPI PUSH1 0x0 DUP5 ISZERO PUSH2 0x100B JUMPI DUP3 DUP8 ADD MLOAD SWAP1 POP JUMPDEST PUSH2 0x1015 DUP6 DUP3 PUSH2 0xF97 JUMP JUMPDEST DUP7 SSTORE POP PUSH2 0x107D JUMP JUMPDEST PUSH1 0x1F NOT DUP5 AND PUSH2 0x102B DUP7 PUSH2 0xE07 JUMP JUMPDEST PUSH1 0x0 JUMPDEST DUP3 DUP2 LT ISZERO PUSH2 0x1053 JUMPI DUP5 DUP10 ADD MLOAD DUP3 SSTORE PUSH1 0x1 DUP3 ADD SWAP2 POP PUSH1 0x20 DUP6 ADD SWAP5 POP PUSH1 0x20 DUP2 ADD SWAP1 POP PUSH2 0x102E JUMP JUMPDEST DUP7 DUP4 LT ISZERO PUSH2 0x1070 JUMPI DUP5 DUP10 ADD MLOAD PUSH2 0x106C PUSH1 0x1F DUP10 AND DUP3 PUSH2 0xF79 JUMP JUMPDEST DUP4 SSTORE POP JUMPDEST PUSH1 0x1 PUSH1 0x2 DUP9 MUL ADD DUP9 SSTORE POP POP POP JUMPDEST POP POP POP POP POP POP JUMP JUMPDEST PUSH1 0x0 DUP3 SWAP1 POP SWAP3 SWAP2 POP POP JUMP JUMPDEST PUSH2 0x109A DUP4 DUP4 PUSH2 0x1085 JUMP JUMPDEST PUSH8 0xFFFFFFFFFFFFFFFF DUP2 GT ISZERO PUSH2 0x10B3 JUMPI PUSH2 0x10B2 PUSH2 0xDD8 JUMP JUMPDEST JUMPDEST PUSH2 0x10BD DUP3 SLOAD PUSH2 0xD3B JUMP JUMPDEST PUSH2 0x10C8 DUP3 DUP3 DUP6 PUSH2 0xF26 JUMP JUMPDEST PUSH1 0x0 PUSH1 0x1F DUP4 GT PUSH1 0x1 DUP2 EQ PUSH2 0x10F7 JUMPI PUSH1 0x0 DUP5 ISZERO PUSH2 0x10E5 JUMPI DUP3 DUP8 ADD CALLDATALOAD SWAP1 POP JUMPDEST PUSH2 0x10EF DUP6 DUP3 PUSH2 0xF97 JUMP JUMPDEST DUP7 SSTORE POP PUSH2 0x1157 JUMP JUMPDEST PUSH1 0x1F NOT DUP5 AND PUSH2 0x1105 DUP7 PUSH2 0xE07 JUMP JUMPDEST PUSH1 0x0 JUMPDEST DUP3 DUP2 LT ISZERO PUSH2 0x112D JUMPI DUP5 DUP10 ADD CALLDATALOAD DUP3 SSTORE PUSH1 0x1 DUP3 ADD SWAP2 POP PUSH1 0x20 DUP6 ADD SWAP5 POP PUSH1 0x20 DUP2 ADD SWAP1 POP PUSH2 0x1108 JUMP JUMPDEST DUP7 DUP4 LT ISZERO PUSH2 0x114A JUMPI DUP5 DUP10 ADD CALLDATALOAD PUSH2 0x1146 PUSH1 0x1F DUP10 AND DUP3 PUSH2 0xF79 JUMP JUMPDEST DUP4 SSTORE POP JUMPDEST PUSH1 0x1 PUSH1 0x2 DUP9 MUL ADD DUP9 SSTORE POP POP POP JUMPDEST POP POP POP POP POP POP POP JUMP JUMPDEST PUSH32 0x4E6F7420666F756E640000000000000000000000000000000000000000000000 PUSH1 0x0 DUP3 ADD MSTORE POP JUMP JUMPDEST PUSH1 0x0 PUSH2 0x1196 PUSH1 0x9 DUP4 PUSH2 0xB2D JUMP JUMPDEST SWAP2 POP PUSH2 0x11A1 DUP3 PUSH2 0x1160 JUMP JUMPDEST PUSH1 0x20 DUP3 ADD SWAP1 POP SWAP2 SWAP1 POP JUMP JUMPDEST PUSH1 0x0 PUSH1 0x20 DUP3 ADD SWAP1 POP DUP2 DUP2 SUB PUSH1 0x0 DUP4 ADD MSTORE PUSH2 0x11C5 DUP2 PUSH2 0x1189 JUMP JUMPDEST SWAP1 POP SWAP2 SWAP1 POP JUMP INVALID LOG2 PUSH5 0x6970667358 0x22 SLT KECCAK256 PC DUP16 0x27 0xE0 0xFC 0x23 0xFC 0xA6 0xC7 PUSH22 0x8C749E67EA9C32580DC795641ED1B3389751BB0F0E83 PUSH5 0x736F6C6343 STOP ADDMOD EQ STOP CALLER "},"methodIdentifiers":{"getMaterial(string)":"c71f5100","initializeMaterial(string,string)":"a0d58ed0","listMaterials()":"bfcb7421","transferMaterial(string,address)":"93670984"}}}}}