{
  "_format": "hh-sol-artifact-1",
  "contractName": "WasteChain",
  "sourceName": "contracts/WasteChain.sol",
  "abi": [
    {
      "inputs": [
        {
          "internalType": "address",
          "name": "admin",
          "type": "address"
        }
      ],
      "stateMutability": "nonpayable",
      "type": "constructor"
    },
    {
      "inputs": [],
      "name": "AccessControlBadConfirmation",
      "type": "error"
    },
    {
      "inputs": [
        {
          "internalType": "address",
          "name": "account",
          "type": "address"
        },
        {
          "internalType": "bytes32",
          "name": "neededRole",
          "type": "bytes32"
        }
      ],
      "name": "AccessControlUnauthorizedAccount",
      "type": "error"
    },
    {
      "anonymous": false,
      "inputs": [
        {
          "indexed": true,
          "internalType": "string",
          "name": "wasteId",
          "type": "string"
        },
        {
          "indexed": true,
          "internalType": "address",
          "name": "generator",
          "type": "address"
        }
      ],
      "name": "Created",
      "type": "event"
    },
    {
      "anonymous": false,
      "inputs": [
        {
          "indexed": true,
          "internalType": "bytes32",
          "name": "role",
          "type": "bytes32"
        },
        {
          "indexed": true,
          "internalType": "bytes32",
          "name": "previousAdminRole",
          "type": "bytes32"
        },
        {
          "indexed": true,
          "internalType": "bytes32",
          "name": "newAdminRole",
          "type": "bytes32"
        }
      ],
      "name": "RoleAdminChanged",
      "type": "event"
    },
    {
      "anonymous": false,
      "inputs": [
        {
          "indexed": true,
          "internalType": "bytes32",
          "name": "role",
          "type": "bytes32"
        },
        {
          "indexed": true,
          "internalType": "address",
          "name": "account",
          "type": "address"
        },
        {
          "indexed": true,
          "internalType": "address",
          "name": "sender",
          "type": "address"
        }
      ],
      "name": "RoleGranted",
      "type": "event"
    },
    {
      "anonymous": false,
      "inputs": [
        {
          "indexed": true,
          "internalType": "bytes32",
          "name": "role",
          "type": "bytes32"
        },
        {
          "indexed": true,
          "internalType": "address",
          "name": "account",
          "type": "address"
        },
        {
          "indexed": true,
          "internalType": "address",
          "name": "sender",
          "type": "address"
        }
      ],
      "name": "RoleRevoked",
      "type": "event"
    },
    {
      "anonymous": false,
      "inputs": [
        {
          "indexed": true,
          "internalType": "string",
          "name": "wasteId",
          "type": "string"
        },
        {
          "indexed": false,
          "internalType": "enum WasteChain.Status",
          "name": "status",
          "type": "uint8"
        }
      ],
      "name": "StatusChanged",
      "type": "event"
    },
    {
      "anonymous": false,
      "inputs": [
        {
          "indexed": true,
          "internalType": "string",
          "name": "wasteId",
          "type": "string"
        },
        {
          "indexed": true,
          "internalType": "address",
          "name": "from",
          "type": "address"
        },
        {
          "indexed": true,
          "internalType": "address",
          "name": "to",
          "type": "address"
        }
      ],
      "name": "Transferred",
      "type": "event"
    },
    {
      "inputs": [],
      "name": "DEFAULT_ADMIN_ROLE",
      "outputs": [
        {
          "internalType": "bytes32",
          "name": "",
          "type": "bytes32"
        }
      ],
      "stateMutability": "view",
      "type": "function"
    },
    {
      "inputs": [],
      "name": "DISPOSER",
      "outputs": [
        {
          "internalType": "bytes32",
          "name": "",
          "type": "bytes32"
        }
      ],
      "stateMutability": "view",
      "type": "function"
    },
    {
      "inputs": [],
      "name": "GENERATOR",
      "outputs": [
        {
          "internalType": "bytes32",
          "name": "",
          "type": "bytes32"
        }
      ],
      "stateMutability": "view",
      "type": "function"
    },
    {
      "inputs": [],
      "name": "TRANSPORTER",
      "outputs": [
        {
          "internalType": "bytes32",
          "name": "",
          "type": "bytes32"
        }
      ],
      "stateMutability": "view",
      "type": "function"
    },
    {
      "inputs": [
        {
          "internalType": "string",
          "name": "wasteId",
          "type": "string"
        },
        {
          "internalType": "string",
          "name": "wasteType",
          "type": "string"
        },
        {
          "internalType": "string",
          "name": "hazardClass",
          "type": "string"
        },
        {
          "internalType": "uint256",
          "name": "quantity",
          "type": "uint256"
        },
        {
          "internalType": "string",
          "name": "units",
          "type": "string"
        }
      ],
      "name": "createWaste",
      "outputs": [],
      "stateMutability": "nonpayable",
      "type": "function"
    },
    {
      "inputs": [
        {
          "internalType": "string",
          "name": "wasteId",
          "type": "string"
        }
      ],
      "name": "deliverWaste",
      "outputs": [],
      "stateMutability": "nonpayable",
      "type": "function"
    },
    {
      "inputs": [
        {
          "internalType": "string",
          "name": "wasteId",
          "type": "string"
        }
      ],
      "name": "disposeWaste",
      "outputs": [],
      "stateMutability": "nonpayable",
      "type": "function"
    },
    {
      "inputs": [
        {
          "internalType": "bytes32",
          "name": "role",
          "type": "bytes32"
        }
      ],
      "name": "getRoleAdmin",
      "outputs": [
        {
          "internalType": "bytes32",
          "name": "",
          "type": "bytes32"
        }
      ],
      "stateMutability": "view",
      "type": "function"
    },
    {
      "inputs": [
        {
          "internalType": "string",
          "name": "wasteId",
          "type": "string"
        }
      ],
      "name": "getWaste",
      "outputs": [
        {
          "internalType": "address",
          "name": "currentHolder",
          "type": "address"
        },
        {
          "internalType": "enum WasteChain.Status",
          "name": "status",
          "type": "uint8"
        },
        {
          "internalType": "string",
          "name": "wasteType",
          "type": "string"
        },
        {
          "internalType": "string",
          "name": "hazardClass",
          "type": "string"
        },
        {
          "internalType": "uint256",
          "name": "quantity",
          "type": "uint256"
        },
        {
          "internalType": "string",
          "name": "units",
          "type": "string"
        },
        {
          "internalType": "uint256",
          "name": "sequence",
          "type": "uint256"
        }
      ],
      "stateMutability": "view",
      "type": "function"
    },
    {
      "inputs": [
        {
          "internalType": "bytes32",
          "name": "role",
          "type": "bytes32"
        },
        {
          "internalType": "address",
          "name": "account",
          "type": "address"
        }
      ],
      "name": "grantRole",
      "outputs": [],
      "stateMutability": "nonpayable",
      "type": "function"
    },
    {
      "inputs": [
        {
          "internalType": "bytes32",
          "name": "role",
          "type": "bytes32"
        },
        {
          "internalType": "address",
          "name": "account",
          "type": "address"
        }
      ],
      "name": "hasRole",
      "outputs": [
        {
          "internalType": "bool",
          "name": "",
          "type": "bool"
        }
      ],
      "stateMutability": "view",
      "type": "function"
    },
    {
      "inputs": [
        {
          "internalType": "address",
          "name": "addr",
          "type": "address"
        }
      ],
      "name": "registerDisposer",
      "outputs": [],
      "stateMutability": "nonpayable",
      "type": "function"
    },
    {
      "inputs": [
        {
          "internalType": "address",
          "name": "addr",
          "type": "address"
        }
      ],
      "name": "registerGenerator",
      "outputs": [],
      "stateMutability": "nonpayable",
      "type": "function"
    },
    {
      "inputs": [
        {
          "internalType": "address",
          "name": "addr",
          "type": "address"
        }
      ],
      "name": "registerTransporter",
      "outputs": [],
      "stateMutability": "nonpayable",
      "type": "function"
    },
    {
      "inputs": [
        {
          "internalType": "bytes32",
          "name": "role",
          "type": "bytes32"
        },
        {
          "internalType": "address",
          "name": "callerConfirmation",
          "type": "address"
        }
      ],
      "name": "renounceRole",
      "outputs": [],
      "stateMutability": "nonpayable",
      "type": "function"
    },
    {
      "inputs": [
        {
          "internalType": "bytes32",
          "name": "role",
          "type": "bytes32"
        },
        {
          "internalType": "address",
          "name": "account",
          "type": "address"
        }
      ],
      "name": "revokeRole",
      "outputs": [],
      "stateMutability": "nonpayable",
      "type": "function"
    },
    {
      "inputs": [
        {
          "internalType": "bytes4",
          "name": "interfaceId",
          "type": "bytes4"
        }
      ],
      "name": "supportsInterface",
      "outputs": [
        {
          "internalType": "bool",
          "name": "",
          "type": "bool"
        }
      ],
      "stateMutability": "view",
      "type": "function"
    },
    {
      "inputs": [
        {
          "internalType": "string",
          "name": "wasteId",
          "type": "string"
        },
        {
          "internalType": "address",
          "name": "to",
          "type": "address"
        }
      ],
      "name": "transferWaste",
      "outputs": [],
      "stateMutability": "nonpayable",
      "type": "function"
    }
  ],
  "bytecode": "0x60806040523480156200001157600080fd5b50604051620024b0380380620024b0833981810160405281019062000037919062000233565b6200004c6000801b826200005460201b60201c565b505062000265565b60006200006883836200015760201b60201c565b6200014c57600160008085815260200190815260200160002060000160008473ffffffffffffffffffffffffffffffffffffffff1673ffffffffffffffffffffffffffffffffffffffff16815260200190815260200160002060006101000a81548160ff021916908315150217905550620000e8620001c160201b60201c565b73ffffffffffffffffffffffffffffffffffffffff168273ffffffffffffffffffffffffffffffffffffffff16847f2f8788117e7eff1d82e926ec794901d17c78024a50270940304540a733656f0d60405160405180910390a46001905062000151565b600090505b92915050565b600080600084815260200190815260200160002060000160008373ffffffffffffffffffffffffffffffffffffffff1673ffffffffffffffffffffffffffffffffffffffff16815260200190815260200160002060009054906101000a900460ff16905092915050565b600033905090565b600080fd5b600073ffffffffffffffffffffffffffffffffffffffff82169050919050565b6000620001fb82620001ce565b9050919050565b6200020d81620001ee565b81146200021957600080fd5b50565b6000815190506200022d8162000202565b92915050565b6000602082840312156200024c576200024b620001c9565b5b60006200025c848285016200021c565b91505092915050565b61223b80620002756000396000f3fe608060405234801561001057600080fd5b50600436106101165760003560e01c806391d14854116100a2578063ba1e529511610071578063ba1e5295146102e3578063d547741f14610301578063d7255f6b1461031d578063e614a32814610339578063fa6d8c5f1461035557610116565b806391d148541461025b578063a217fddf1461028b578063a8390915146102a9578063b8be99cb146102c757610116565b8063248a9ca3116100e9578063248a9ca3146101b95780632f2ff15d146101e957806336568abe14610205578063549dafd614610221578063600a991c1461023f57610116565b806301ffc9a71461011b5780631759e08c1461014b578063203c56881461016757806320c2850414610183575b600080fd5b610135600480360381019061013091906115c9565b610371565b6040516101429190611611565b60405180910390f35b6101656004803603810190610160919061168a565b6103eb565b005b610181600480360381019061017c919061171c565b610426565b005b61019d6004803603810190610198919061171c565b61062d565b6040516101b09796959493929190611898565b60405180910390f35b6101d360048036038101906101ce9190611952565b610868565b6040516101e0919061198e565b60405180910390f35b61020360048036038101906101fe91906119a9565b610887565b005b61021f600480360381019061021a91906119a9565b6108a9565b005b610229610924565b604051610236919061198e565b60405180910390f35b610259600480360381019061025491906119e9565b610948565b005b610275600480360381019061027091906119a9565b610c45565b6040516102829190611611565b60405180910390f35b610293610caf565b6040516102a0919061198e565b60405180910390f35b6102b1610cb6565b6040516102be919061198e565b60405180910390f35b6102e160048036038101906102dc9190611a75565b610cda565b005b6102eb610fea565b6040516102f8919061198e565b60405180910390f35b61031b600480360381019061031691906119a9565b61100e565b005b6103376004803603810190610332919061171c565b611030565b005b610353600480360381019061034e919061168a565b611237565b005b61036f600480360381019061036a919061168a565b611272565b005b60007f7965db0b000000000000000000000000000000000000000000000000000000007bffffffffffffffffffffffffffffffffffffffffffffffffffffffff1916827bffffffffffffffffffffffffffffffffffffffffffffffffffffffff191614806103e457506103e3826112ad565b5b9050919050565b6000801b6103f881611317565b6104227fddfd3036e1eb6a4af67ba89b65b13a4c179e1ffbf33ac5f3c45ef9007b2cfc0f83610887565b5050565b7f91a89345c1a9fae222ed2cd495c788dea0a507c0332f6b4b33fc1661b781bb9e61045081611317565b600060018484604051610464929190611bb0565b908152602001604051809103902090503373ffffffffffffffffffffffffffffffffffffffff168160000160009054906101000a900473ffffffffffffffffffffffffffffffffffffffff1673ffffffffffffffffffffffffffffffffffffffff1614610506576040517f08c379a00000000000000000000000000000000000000000000000000000000081526004016104fd90611c15565b60405180910390fd5b6002600381111561051a57610519611778565b5b8160000160149054906101000a900460ff16600381111561053e5761053d611778565b5b1461057e576040517f08c379a000000000000000000000000000000000000000000000000000000000815260040161057590611c81565b60405180910390fd5b60038160000160146101000a81548160ff021916908360038111156105a6576105a5611778565b5b021790555060018160050160008282546105c09190611cd0565b9250508190555083836040516105d7929190611bb0565b60405180910390207f45bfd85e9c912cdd9f6adeaae3ed2883a67d05a538e4fde98b22c284f0078c668260000160149054906101000a900460ff1660405161061f9190611d04565b60405180910390a250505050565b6000806060806000606060008060018a8a60405161064c929190611bb0565b908152602001604051809103902090508060000160009054906101000a900473ffffffffffffffffffffffffffffffffffffffff168160000160149054906101000a900460ff16826001018360020184600301548560040186600501548480546106b590611d4e565b80601f01602080910402602001604051908101604052809291908181526020018280546106e190611d4e565b801561072e5780601f106107035761010080835404028352916020019161072e565b820191906000526020600020905b81548152906001019060200180831161071157829003601f168201915b5050505050945083805461074190611d4e565b80601f016020809104026020016040519081016040528092919081815260200182805461076d90611d4e565b80156107ba5780601f1061078f576101008083540402835291602001916107ba565b820191906000526020600020905b81548152906001019060200180831161079d57829003601f168201915b505050505093508180546107cd90611d4e565b80601f01602080910402602001604051908101604052809291908181526020018280546107f990611d4e565b80156108465780601f1061081b57610100808354040283529160200191610846565b820191906000526020600020905b81548152906001019060200180831161082957829003601f168201915b5050505050915097509750975097509750975097505092959891949750929550565b6000806000838152602001908152602001600020600101549050919050565b61089082610868565b61089981611317565b6108a3838361132b565b50505050565b6108b161141c565b73ffffffffffffffffffffffffffffffffffffffff168173ffffffffffffffffffffffffffffffffffffffff1614610915576040517f6697b23200000000000000000000000000000000000000000000000000000000815260040160405180910390fd5b61091f8282611424565b505050565b7fddfd3036e1eb6a4af67ba89b65b13a4c179e1ffbf33ac5f3c45ef9007b2cfc0f81565b7f7c2d301983a60156b882648bf1c7210b103e1d4715ba229e6182e4f8ecd987be61097281611317565b600060018585604051610986929190611bb0565b908152602001604051809103902090503373ffffffffffffffffffffffffffffffffffffffff168160000160009054906101000a900473ffffffffffffffffffffffffffffffffffffffff1673ffffffffffffffffffffffffffffffffffffffff1614610a28576040517f08c379a0000000000000000000000000000000000000000000000000000000008152600401610a1f90611dcb565b60405180910390fd5b60006003811115610a3c57610a3b611778565b5b8160000160149054906101000a900460ff166003811115610a6057610a5f611778565b5b1480610aa1575060026003811115610a7b57610a7a611778565b5b8160000160149054906101000a900460ff166003811115610a9f57610a9e611778565b5b145b610ae0576040517f08c379a0000000000000000000000000000000000000000000000000000000008152600401610ad790611e37565b60405180910390fd5b828160000160006101000a81548173ffffffffffffffffffffffffffffffffffffffff021916908373ffffffffffffffffffffffffffffffffffffffff16021790555060018160000160146101000a81548160ff02191690836003811115610b4b57610b4a611778565b5b02179055506001816005016000828254610b659190611cd0565b925050819055508273ffffffffffffffffffffffffffffffffffffffff163373ffffffffffffffffffffffffffffffffffffffff168686604051610baa929190611bb0565b60405180910390207f8e01a30047398cf836aedf6b5ffa5fcb54b140db5f5f1c67537d719bb23d4d4c60405160405180910390a48484604051610bee929190611bb0565b60405180910390207f45bfd85e9c912cdd9f6adeaae3ed2883a67d05a538e4fde98b22c284f0078c668260000160149054906101000a900460ff16604051610c369190611d04565b60405180910390a25050505050565b600080600084815260200190815260200160002060000160008373ffffffffffffffffffffffffffffffffffffffff1673ffffffffffffffffffffffffffffffffffffffff16815260200190815260200160002060009054906101000a900460ff16905092915050565b6000801b81565b7f91a89345c1a9fae222ed2cd495c788dea0a507c0332f6b4b33fc1661b781bb9e81565b7fddfd3036e1eb6a4af67ba89b65b13a4c179e1ffbf33ac5f3c45ef9007b2cfc0f610d0481611317565b600060018b8b604051610d18929190611bb0565b90815260200160405180910390206005015414610d6a576040517f08c379a0000000000000000000000000000000000000000000000000000000008152600401610d6190611ea3565b60405180910390fd5b6040518060e001604052803373ffffffffffffffffffffffffffffffffffffffff16815260200160006003811115610da557610da4611778565b5b815260200189898080601f016020809104026020016040519081016040528093929190818152602001838380828437600081840152601f19601f82011690508083019250505050505050815260200187878080601f016020809104026020016040519081016040528093929190818152602001838380828437600081840152601f19601f82011690508083019250505050505050815260200185815260200184848080601f016020809104026020016040519081016040528093929190818152602001838380828437600081840152601f19601f820116905080830192505050505050508152602001600181525060018b8b604051610ea5929190611bb0565b908152602001604051809103902060008201518160000160006101000a81548173ffffffffffffffffffffffffffffffffffffffff021916908373ffffffffffffffffffffffffffffffffffffffff16021790555060208201518160000160146101000a81548160ff02191690836003811115610f2557610f24611778565b5b02179055506040820151816001019081610f3f919061209e565b506060820151816002019081610f55919061209e565b506080820151816003015560a0820151816004019081610f75919061209e565b5060c082015181600501559050503373ffffffffffffffffffffffffffffffffffffffff168a8a604051610faa929190611bb0565b60405180910390207fdb4e8a6f69daa6b4b9977ed734b510ed9b7ce86536c87435bfd7ef57968d05ee60405160405180910390a350505050505050505050565b7f7c2d301983a60156b882648bf1c7210b103e1d4715ba229e6182e4f8ecd987be81565b61101782610868565b61102081611317565b61102a8383611424565b50505050565b7f7c2d301983a60156b882648bf1c7210b103e1d4715ba229e6182e4f8ecd987be61105a81611317565b60006001848460405161106e929190611bb0565b908152602001604051809103902090503373ffffffffffffffffffffffffffffffffffffffff168160000160009054906101000a900473ffffffffffffffffffffffffffffffffffffffff1673ffffffffffffffffffffffffffffffffffffffff1614611110576040517f08c379a0000000000000000000000000000000000000000000000000000000008152600401611107906121bc565b60405180910390fd5b6001600381111561112457611123611778565b5b8160000160149054906101000a900460ff16600381111561114857611147611778565b5b14611188576040517f08c379a000000000000000000000000000000000000000000000000000000000815260040161117f906121bc565b60405180910390fd5b60028160000160146101000a81548160ff021916908360038111156111b0576111af611778565b5b021790555060018160050160008282546111ca9190611cd0565b9250508190555083836040516111e1929190611bb0565b60405180910390207f45bfd85e9c912cdd9f6adeaae3ed2883a67d05a538e4fde98b22c284f0078c668260000160149054906101000a900460ff166040516112299190611d04565b60405180910390a250505050565b6000801b61124481611317565b61126e7f91a89345c1a9fae222ed2cd495c788dea0a507c0332f6b4b33fc1661b781bb9e83610887565b5050565b6000801b61127f81611317565b6112a97f7c2d301983a60156b882648bf1c7210b103e1d4715ba229e6182e4f8ecd987be83610887565b5050565b60007f01ffc9a7000000000000000000000000000000000000000000000000000000007bffffffffffffffffffffffffffffffffffffffffffffffffffffffff1916827bffffffffffffffffffffffffffffffffffffffffffffffffffffffff1916149050919050565b6113288161132361141c565b611516565b50565b60006113378383610c45565b61141157600160008085815260200190815260200160002060000160008473ffffffffffffffffffffffffffffffffffffffff1673ffffffffffffffffffffffffffffffffffffffff16815260200190815260200160002060006101000a81548160ff0219169083151502179055506113ae61141c565b73ffffffffffffffffffffffffffffffffffffffff168273ffffffffffffffffffffffffffffffffffffffff16847f2f8788117e7eff1d82e926ec794901d17c78024a50270940304540a733656f0d60405160405180910390a460019050611416565b600090505b92915050565b600033905090565b60006114308383610c45565b1561150b57600080600085815260200190815260200160002060000160008473ffffffffffffffffffffffffffffffffffffffff1673ffffffffffffffffffffffffffffffffffffffff16815260200190815260200160002060006101000a81548160ff0219169083151502179055506114a861141c565b73ffffffffffffffffffffffffffffffffffffffff168273ffffffffffffffffffffffffffffffffffffffff16847ff6391f5c32d9c69d2a47ea670b442974b53935d1edc7fd64eb21e047a839171b60405160405180910390a460019050611510565b600090505b92915050565b6115208282610c45565b6115635780826040517fe2517d3f00000000000000000000000000000000000000000000000000000000815260040161155a9291906121dc565b60405180910390fd5b5050565b600080fd5b600080fd5b60007fffffffff0000000000000000000000000000000000000000000000000000000082169050919050565b6115a681611571565b81146115b157600080fd5b50565b6000813590506115c38161159d565b92915050565b6000602082840312156115df576115de611567565b5b60006115ed848285016115b4565b91505092915050565b60008115159050919050565b61160b816115f6565b82525050565b60006020820190506116266000830184611602565b92915050565b600073ffffffffffffffffffffffffffffffffffffffff82169050919050565b60006116578261162c565b9050919050565b6116678161164c565b811461167257600080fd5b50565b6000813590506116848161165e565b92915050565b6000602082840312156116a05761169f611567565b5b60006116ae84828501611675565b91505092915050565b600080fd5b600080fd5b600080fd5b60008083601f8401126116dc576116db6116b7565b5b8235905067ffffffffffffffff8111156116f9576116f86116bc565b5b602083019150836001820283011115611715576117146116c1565b5b9250929050565b6000806020838503121561173357611732611567565b5b600083013567ffffffffffffffff8111156117515761175061156c565b5b61175d858286016116c6565b92509250509250929050565b6117728161164c565b82525050565b7f4e487b7100000000000000000000000000000000000000000000000000000000600052602160045260246000fd5b600481106117b8576117b7611778565b5b50565b60008190506117c9826117a7565b919050565b60006117d9826117bb565b9050919050565b6117e9816117ce565b82525050565b600081519050919050565b600082825260208201905092915050565b60005b8381101561182957808201518184015260208101905061180e565b60008484015250505050565b6000601f19601f8301169050919050565b6000611851826117ef565b61185b81856117fa565b935061186b81856020860161180b565b61187481611835565b840191505092915050565b6000819050919050565b6118928161187f565b82525050565b600060e0820190506118ad600083018a611769565b6118ba60208301896117e0565b81810360408301526118cc8188611846565b905081810360608301526118e08187611846565b90506118ef6080830186611889565b81810360a08301526119018185611846565b905061191060c0830184611889565b98975050505050505050565b6000819050919050565b61192f8161191c565b811461193a57600080fd5b50565b60008135905061194c81611926565b92915050565b60006020828403121561196857611967611567565b5b60006119768482850161193d565b91505092915050565b6119888161191c565b82525050565b60006020820190506119a3600083018461197f565b92915050565b600080604083850312156119c0576119bf611567565b5b60006119ce8582860161193d565b92505060206119df85828601611675565b9150509250929050565b600080600060408486031215611a0257611a01611567565b5b600084013567ffffffffffffffff811115611a2057611a1f61156c565b5b611a2c868287016116c6565b93509350506020611a3f86828701611675565b9150509250925092565b611a528161187f565b8114611a5d57600080fd5b50565b600081359050611a6f81611a49565b92915050565b600080600080600080600080600060a08a8c031215611a9757611a96611567565b5b60008a013567ffffffffffffffff811115611ab557611ab461156c565b5b611ac18c828d016116c6565b995099505060208a013567ffffffffffffffff811115611ae457611ae361156c565b5b611af08c828d016116c6565b975097505060408a013567ffffffffffffffff811115611b1357611b1261156c565b5b611b1f8c828d016116c6565b95509550506060611b328c828d01611a60565b93505060808a013567ffffffffffffffff811115611b5357611b5261156c565b5b611b5f8c828d016116c6565b92509250509295985092959850929598565b600081905092915050565b82818337600083830152505050565b6000611b978385611b71565b9350611ba4838584611b7c565b82840190509392505050565b6000611bbd828486611b8b565b91508190509392505050565b7f4d75737420626520646973706f73657200000000000000000000000000000000600082015250565b6000611bff6010836117fa565b9150611c0a82611bc9565b602082019050919050565b60006020820190508181036000830152611c2e81611bf2565b9050919050565b7f4e6f742064656c69766572656420796574000000000000000000000000000000600082015250565b6000611c6b6011836117fa565b9150611c7682611c35565b602082019050919050565b60006020820190508181036000830152611c9a81611c5e565b9050919050565b7f4e487b7100000000000000000000000000000000000000000000000000000000600052601160045260246000fd5b6000611cdb8261187f565b9150611ce68361187f565b9250828201905080821115611cfe57611cfd611ca1565b5b92915050565b6000602082019050611d1960008301846117e0565b92915050565b7f4e487b7100000000000000000000000000000000000000000000000000000000600052602260045260246000fd5b60006002820490506001821680611d6657607f821691505b602082108103611d7957611d78611d1f565b5b50919050565b7f4e6f742063757272656e7420686f6c6465720000000000000000000000000000600082015250565b6000611db56012836117fa565b9150611dc082611d7f565b602082019050919050565b60006020820190508181036000830152611de481611da8565b9050919050565b7f496e76616c696420737461747573000000000000000000000000000000000000600082015250565b6000611e21600e836117fa565b9150611e2c82611deb565b602082019050919050565b60006020820190508181036000830152611e5081611e14565b9050919050565b7f416c726561647920657869737473000000000000000000000000000000000000600082015250565b6000611e8d600e836117fa565b9150611e9882611e57565b602082019050919050565b60006020820190508181036000830152611ebc81611e80565b9050919050565b7f4e487b7100000000000000000000000000000000000000000000000000000000600052604160045260246000fd5b60008190508160005260206000209050919050565b60006020601f8301049050919050565b600082821b905092915050565b600060088302611f547fffffffffffffffffffffffffffffffffffffffffffffffffffffffffffffffff82611f17565b611f5e8683611f17565b95508019841693508086168417925050509392505050565b6000819050919050565b6000611f9b611f96611f918461187f565b611f76565b61187f565b9050919050565b6000819050919050565b611fb583611f80565b611fc9611fc182611fa2565b848454611f24565b825550505050565b600090565b611fde611fd1565b611fe9818484611fac565b505050565b5b8181101561200d57612002600082611fd6565b600181019050611fef565b5050565b601f8211156120525761202381611ef2565b61202c84611f07565b8101602085101561203b578190505b61204f61204785611f07565b830182611fee565b50505b505050565b600082821c905092915050565b600061207560001984600802612057565b1980831691505092915050565b600061208e8383612064565b9150826002028217905092915050565b6120a7826117ef565b67ffffffffffffffff8111156120c0576120bf611ec3565b5b6120ca8254611d4e565b6120d5828285612011565b600060209050601f83116001811461210857600084156120f6578287015190505b6121008582612082565b865550612168565b601f19841661211686611ef2565b60005b8281101561213e57848901518255600182019150602085019450602081019050612119565b8683101561215b5784890151612157601f891682612064565b8355505b6001600288020188555050505b505050505050565b7f4e6f7420696e207472616e736974000000000000000000000000000000000000600082015250565b60006121a6600e836117fa565b91506121b182612170565b602082019050919050565b600060208201905081810360008301526121d581612199565b9050919050565b60006040820190506121f16000830185611769565b6121fe602083018461197f565b939250505056fea2646970667358221220e0f9db0bd941a0e1a3581b2104a48e28a51e702921d822cf05c22becc1b7cc0164736f6c63430008140033",
  "linkReferences": {},
  "deployedLinkReferences": {}
}