{
  "_format": "hh-sol-artifact-1",
  "contractName": "ChainCustody",
  "sourceName": "contracts/ChainCustody.sol",
  "abi": [
    {
      "anonymous": false,
      "inputs": [
        {
          "indexed": true,
          "internalType": "string",
          "name": "id",
          "type": "string"
        },
        {
          "indexed": true,
          "internalType": "address",
          "name": "holder",
          "type": "address"
        }
      ],
      "name": "MaterialInitialized",
      "type": "event"
    },
    {
      "anonymous": false,
      "inputs": [
        {
          "indexed": true,
          "internalType": "string",
          "name": "id",
          "type": "string"
        },
        {
          "indexed": true,
          "internalType": "address",
          "name": "from",
          "type": "address"
        },
        {
          "indexed": true,
          "internalType": "address",
          "name": "to",
          "type": "address"
        },
        {
          "indexed": false,
          "internalType": "uint256",
          "name": "sequence",
          "type": "uint256"
        }
      ],
      "name": "MaterialTransferred",
      "type": "event"
    },
    {
      "inputs": [
        {
          "internalType": "string",
          "name": "_id",
          "type": "string"
        }
      ],
      "name": "getMaterial",
      "outputs": [
        {
          "internalType": "address",
          "name": "currentHolder",
          "type": "address"
        },
        {
          "internalType": "uint256",
          "name": "lastSequence",
          "type": "uint256"
        },
        {
          "internalType": "string",
          "name": "id",
          "type": "string"
        },
        {
          "internalType": "string",
          "name": "description",
          "type": "string"
        }
      ],
      "stateMutability": "view",
      "type": "function"
    },
    {
      "inputs": [
        {
          "internalType": "string",
          "name": "_id",
          "type": "string"
        },
        {
          "internalType": "string",
          "name": "_description",
          "type": "string"
        }
      ],
      "name": "initializeMaterial",
      "outputs": [],
      "stateMutability": "nonpayable",
      "type": "function"
    },
    {
      "inputs": [],
      "name": "listMaterials",
      "outputs": [
        {
          "internalType": "string[]",
          "name": "",
          "type": "string[]"
        }
      ],
      "stateMutability": "view",
      "type": "function"
    },
    {
      "inputs": [
        {
          "internalType": "string",
          "name": "_id",
          "type": "string"
        },
        {
          "internalType": "address",
          "name": "_newHolder",
          "type": "address"
        }
      ],
      "name": "transferMaterial",
      "outputs": [],
      "stateMutability": "nonpayable",
      "type": "function"
    }
  ],
  "bytecode": "0x608060405234801561001057600080fd5b50611202806100206000396000f3fe608060405234801561001057600080fd5b506004361061004c5760003560e01c80639367098414610051578063a0d58ed01461006d578063bfcb742114610089578063c71f5100146100a7575b600080fd5b61006b60048036038101906100669190610863565b6100da565b005b610087600480360381019061008291906108c3565b610275565b005b6100916104e5565b60405161009e9190610a96565b60405180910390f35b6100c160048036038101906100bc9190610ab8565b6105be565b6040516100d19493929190610b77565b60405180910390f35b60008084846040516100ed929190610c09565b908152602001604051809103902090503373ffffffffffffffffffffffffffffffffffffffff168160000160009054906101000a900473ffffffffffffffffffffffffffffffffffffffff1673ffffffffffffffffffffffffffffffffffffffff161461018f576040517f08c379a000000000000000000000000000000000000000000000000000000000815260040161018690610c6e565b60405180910390fd5b818160000160006101000a81548173ffffffffffffffffffffffffffffffffffffffff021916908373ffffffffffffffffffffffffffffffffffffffff16021790555060018160010160008282546101e79190610cbd565b925050819055508173ffffffffffffffffffffffffffffffffffffffff163373ffffffffffffffffffffffffffffffffffffffff16858560405161022c929190610c09565b60405180910390207f99ea32ae71460e8842c8289c2eb257cc48e1f961f9ec61c4bc7bcea8b296309e84600101546040516102679190610cf1565b60405180910390a450505050565b6000808585604051610288929190610c09565b908152602001604051809103902060020180546102a490610d3b565b9050146102e6576040517f08c379a00000000000000000000000000000000000000000000000000000000081526004016102dd90610db8565b60405180910390fd5b60405180608001604052803373ffffffffffffffffffffffffffffffffffffffff1681526020016001815260200185858080601f016020809104026020016040519081016040528093929190818152602001838380828437600081840152601f19601f82011690508083019250505050505050815260200183838080601f016020809104026020016040519081016040528093929190818152602001838380828437600081840152601f19601f82011690508083019250505050505050815250600085856040516103b8929190610c09565b908152602001604051809103902060008201518160000160006101000a81548173ffffffffffffffffffffffffffffffffffffffff021916908373ffffffffffffffffffffffffffffffffffffffff16021790555060208201518160010155604082015181600201908161042c9190610fb3565b5060608201518160030190816104429190610fb3565b509050506001848490918060018154018082558091505060019003906000526020600020016000909192909192909192909192509182610483929190611090565b503373ffffffffffffffffffffffffffffffffffffffff1684846040516104ab929190610c09565b60405180910390207fc7bba16ad61a496a17bf51bfad299bbb51b3c664635c5875052854c1cbba442860405160405180910390a350505050565b60606001805480602002602001604051908101604052809291908181526020016000905b828210156105b557838290600052602060002001805461052890610d3b565b80601f016020809104026020016040519081016040528092919081815260200182805461055490610d3b565b80156105a15780601f10610576576101008083540402835291602001916105a1565b820191906000526020600020905b81548152906001019060200180831161058457829003601f168201915b505050505081526020019060010190610509565b50505050905090565b60008060608060008087876040516105d7929190610c09565b9081526020016040518091039020905060008160020180546105f890610d3b565b90500361063a576040517f08c379a0000000000000000000000000000000000000000000000000000000008152600401610631906111ac565b60405180910390fd5b8060000160009054906101000a900473ffffffffffffffffffffffffffffffffffffffff168160010154826002018360030181805461067890610d3b565b80601f01602080910402602001604051908101604052809291908181526020018280546106a490610d3b565b80156106f15780601f106106c6576101008083540402835291602001916106f1565b820191906000526020600020905b8154815290600101906020018083116106d457829003601f168201915b5050505050915080805461070490610d3b565b80601f016020809104026020016040519081016040528092919081815260200182805461073090610d3b565b801561077d5780601f106107525761010080835404028352916020019161077d565b820191906000526020600020905b81548152906001019060200180831161076057829003601f168201915b5050505050905094509450945094505092959194509250565b600080fd5b600080fd5b600080fd5b600080fd5b600080fd5b60008083601f8401126107c5576107c46107a0565b5b8235905067ffffffffffffffff8111156107e2576107e16107a5565b5b6020830191508360018202830111156107fe576107fd6107aa565b5b9250929050565b600073ffffffffffffffffffffffffffffffffffffffff82169050919050565b600061083082610805565b9050919050565b61084081610825565b811461084b57600080fd5b50565b60008135905061085d81610837565b92915050565b60008060006040848603121561087c5761087b610796565b5b600084013567ffffffffffffffff81111561089a5761089961079b565b5b6108a6868287016107af565b935093505060206108b98682870161084e565b9150509250925092565b600080600080604085870312156108dd576108dc610796565b5b600085013567ffffffffffffffff8111156108fb576108fa61079b565b5b610907878288016107af565b9450945050602085013567ffffffffffffffff81111561092a5761092961079b565b5b610936878288016107af565b925092505092959194509250565b600081519050919050565b600082825260208201905092915050565b6000819050602082019050919050565b600081519050919050565b600082825260208201905092915050565b60005b838110156109aa57808201518184015260208101905061098f565b60008484015250505050565b6000601f19601f8301169050919050565b60006109d282610970565b6109dc818561097b565b93506109ec81856020860161098c565b6109f5816109b6565b840191505092915050565b6000610a0c83836109c7565b905092915050565b6000602082019050919050565b6000610a2c82610944565b610a36818561094f565b935083602082028501610a4885610960565b8060005b85811015610a845784840389528151610a658582610a00565b9450610a7083610a14565b925060208a01995050600181019050610a4c565b50829750879550505050505092915050565b60006020820190508181036000830152610ab08184610a21565b905092915050565b60008060208385031215610acf57610ace610796565b5b600083013567ffffffffffffffff811115610aed57610aec61079b565b5b610af9858286016107af565b92509250509250929050565b610b0e81610825565b82525050565b6000819050919050565b610b2781610b14565b82525050565b600082825260208201905092915050565b6000610b4982610970565b610b538185610b2d565b9350610b6381856020860161098c565b610b6c816109b6565b840191505092915050565b6000608082019050610b8c6000830187610b05565b610b996020830186610b1e565b8181036040830152610bab8185610b3e565b90508181036060830152610bbf8184610b3e565b905095945050505050565b600081905092915050565b82818337600083830152505050565b6000610bf08385610bca565b9350610bfd838584610bd5565b82840190509392505050565b6000610c16828486610be4565b91508190509392505050565b7f4f6e6c7920686f6c646572000000000000000000000000000000000000000000600082015250565b6000610c58600b83610b2d565b9150610c6382610c22565b602082019050919050565b60006020820190508181036000830152610c8781610c4b565b9050919050565b7f4e487b7100000000000000000000000000000000000000000000000000000000600052601160045260246000fd5b6000610cc882610b14565b9150610cd383610b14565b9250828201905080821115610ceb57610cea610c8e565b5b92915050565b6000602082019050610d066000830184610b1e565b92915050565b7f4e487b7100000000000000000000000000000000000000000000000000000000600052602260045260246000fd5b60006002820490506001821680610d5357607f821691505b602082108103610d6657610d65610d0c565b5b50919050565b7f416c726561647920657869737473000000000000000000000000000000000000600082015250565b6000610da2600e83610b2d565b9150610dad82610d6c565b602082019050919050565b60006020820190508181036000830152610dd181610d95565b9050919050565b7f4e487b7100000000000000000000000000000000000000000000000000000000600052604160045260246000fd5b60008190508160005260206000209050919050565b60006020601f8301049050919050565b600082821b905092915050565b600060088302610e697fffffffffffffffffffffffffffffffffffffffffffffffffffffffffffffffff82610e2c565b610e738683610e2c565b95508019841693508086168417925050509392505050565b6000819050919050565b6000610eb0610eab610ea684610b14565b610e8b565b610b14565b9050919050565b6000819050919050565b610eca83610e95565b610ede610ed682610eb7565b848454610e39565b825550505050565b600090565b610ef3610ee6565b610efe818484610ec1565b505050565b5b81811015610f2257610f17600082610eeb565b600181019050610f04565b5050565b601f821115610f6757610f3881610e07565b610f4184610e1c565b81016020851015610f50578190505b610f64610f5c85610e1c565b830182610f03565b50505b505050565b600082821c905092915050565b6000610f8a60001984600802610f6c565b1980831691505092915050565b6000610fa38383610f79565b9150826002028217905092915050565b610fbc82610970565b67ffffffffffffffff811115610fd557610fd4610dd8565b5b610fdf8254610d3b565b610fea828285610f26565b600060209050601f83116001811461101d576000841561100b578287015190505b6110158582610f97565b86555061107d565b601f19841661102b86610e07565b60005b828110156110535784890151825560018201915060208501945060208101905061102e565b86831015611070578489015161106c601f891682610f79565b8355505b6001600288020188555050505b505050505050565b600082905092915050565b61109a8383611085565b67ffffffffffffffff8111156110b3576110b2610dd8565b5b6110bd8254610d3b565b6110c8828285610f26565b6000601f8311600181146110f757600084156110e5578287013590505b6110ef8582610f97565b865550611157565b601f19841661110586610e07565b60005b8281101561112d57848901358255600182019150602085019450602081019050611108565b8683101561114a5784890135611146601f891682610f79565b8355505b6001600288020188555050505b50505050505050565b7f4e6f7420666f756e640000000000000000000000000000000000000000000000600082015250565b6000611196600983610b2d565b91506111a182611160565b602082019050919050565b600060208201905081810360008301526111c581611189565b905091905056fea2646970667358221220588f27e0fc23fca6c7758c749e67ea9c32580dc795641ed1b3389751bb0f0e8364736f6c63430008140033",
  "linkReferences": {},
  "deployedLinkReferences": {}
}